:100000000C9451010C9482010C9482010C94820195
:100010000C9482010C9482010C9482010C94820154
:100020000C9482010C9482010C9482010C94820144
:100030000C9482010C9482010C9482010C94820134
:100040000C9482010C9482010C9482010C94820124
:100050000C9482010C9482010C9482010C94A70AE6
:100060000C9482010C94710A0C94470A0C9482013E
:100070000C9482010C9482010C9482010C948201F4
:100080000C9482010C9482010C9482010C948201E4
:100090000C9482010C9482010C9482010C94F10A5C
:1000A0000C9482010C9482010C9482010C948201C4
:1000B0000C9482010C9482010C9482010C948201B4
:1000C0000C9482010C9482010C9482010C948201A4
:1000D0000C9482010C9482010C9482010C94820194
:1000E0000C9482010C9494030C9429090C949E03A3
:1000F0000C94FC020C9479030C94AC030C940E0445
:100100000C9417020C94DD030C9478070C94D4071C
:100110000C9480030C9477020C94AB030C94B00302
:100120000C9475030C944E070C9419020C944E0415
:100130000C94A2030C944F070C9471030C948A0343
:100140000C94A6030C94150C0C9471070C9490035A
:100150000C945E070C9469020C9446020C947D0387
:100160000C94A5070C9455020C94AF020C94180241
:100170000C946B030C9486030C9400060C94980367
:1001800000002100240027002A002D003000330049
:1001900001010000040107010A01000022002500FE
:1001A00028002B002E003100340002010000050160
:1001B00008010B01000020002300260029002C006C
:1001C0002F003200000100000301060109010505AE
:1001D0000505070508080808020202020A0A0808BD
:1001E00004040404010101010101010103030303EB
:1001F00003030303040707070C0C0C0C0C0C0C0C7A
:100200000202020206060606060606060B0B0B0B8A
:100210000B0B0B0B010210202008081020401020AF
:1002200040800201020108040201010204081020BA
:1002300040808040201008040201800402018040B8
:100240002010080402010804020101020408102021
:100250004080010204081020408000000A0B0209BF
:100260000C0D0E0807030401000000000000000050
:10027000000000000000000000000000000000007E
:10028000000000000000121110000000000000003B
:10029000000000000000000000000000000000005E
:1002A000150C11241FBECFEFD1E2DEBFCDBF00E0A1
:1002B0000CBF13E0A0E0B2E0E0EBF9E200E00BBF1E
:1002C00002C007900D92A436B107D9F725E0A4E645
:1002D000B3E001C01D92A836B207E1F711E0C1E515
:1002E000D1E000E006C021970109802FFE010E94A5
:1002F000F811C035D10780E00807A9F70E94DF0C8C
:100300000C94D6140C94000096E0899FD00111241F
:10031000A750BB4F90967C936E935F9791E0919618
:100320009C939197E0916605F09167059091650522
:10033000992339F0309751F0811108C0809115054B
:100340001994309719F05C968C91FACF0895CF925A
:10035000DF92EF92FF920F931F9396E0899FF00137
:100360001124E750FB4F11A2278D30A12130310518
:1003700051F178F02230310509F451C023303105B4
:1003800009F452C01F910F91FF90EF90DF90CF9032
:1003900008956623B9F361E070E00E9484012FB7ED
:1003A000F8948091340490913504A0913604B09172
:1003B00037042FBF8093510590935205A0935305A6
:1003C000B0935405DFCF9FB7F894C0903404D09019
:1003D0003504E0903604F09037049FBF009151053A
:1003E000109152052091530530915405C01AD10A3D
:1003F000E20AF30A009163051091640530E020E001
:100400000C151D052E053F0550F462E070E01F91AC
:100410000F91FF90EF90DF90CF900C9484016111C9
:10042000B1CF63E070E0F3CF70E060E0F0CF08950B
:100430000895AF92BF92CF92DF92EF92FF920F9307
:100440001F93CF93DF936C017B018B01040F151F6A
:10045000EB015E01AE18BF08C017D10759F06991D2
:10046000D601ED91FC910190F081E02DC601199526
:10047000892B79F7C501DF91CF911F910F91FF90E3
:10048000EF90DF90CF90BF90AF900895FC01538D17
:10049000448D252F30E0842F90E0821B930B54175E
:1004A00010F0CF96089501970895FC01918D828DEB
:1004B000981761F0A28DAE0FBF2FB11D5D968C9184
:1004C000928D9F5F9F73928F90E008958FEF9FEFC3
:1004D0000895FC01918D828D981731F0828DE80F7F
:1004E000F11D858D90E008958FEF9FEF0895FC0139
:1004F000918D228D892F90E0805C9F4F821B910906
:100500008F739927089588E394E00E94770221E091
:10051000892B09F420E0822F0895FC01A48DA80FF7
:10052000B92FB11DA35ABF4F2C91848D90E0019635
:100530008F739927848FA689B7892C93A089B18955
:100540008C91837080648C93938D848D981306C0F6
:100550000288F389E02D80818F7D80830895EF925A
:10056000FF920F931F93CF93DF93EC0181E0888F6D
:100570009B8D8C8D98131AC0E889F989808185FF3D
:1005800015C09FB7F894EE89FF896083E889F989DF
:1005900080818370806480839FBF81E090E0DF91E1
:1005A000CF911F910F91FF90EF900895F62E0B8D34
:1005B00010E00F5F1F4F0F731127E02E8C8D8E11EF
:1005C0000CC00FB607FCFACFE889F989808185FF56
:1005D000F5CFCE010E948D02F1CFEB8DEC0FFD2FF8
:1005E000F11DE35AFF4FF0829FB7F8940B8FEA8911
:1005F000FB8980818062CFCFCF93DF93EC01888D20
:100600008823B9F0AA89BB89E889F9898C9185FD8D
:1006100003C0808186FD0DC00FB607FCF7CF8C911B
:1006200085FFF2CF808185FFEDCFCE010E948D0244
:10063000E9CFDF91CF91089580E090E0892B29F0F8
:100640000E94830281110E94000080E090E0892BCB
:1006500049F080E090E0892B29F00E940000811190
:100660000E94000080E090E0892B49F080E090E05B
:10067000892B29F00E94000081110E94000080E077
:1006800090E0892B49F080E090E0892B29F00E94CE
:10069000000081110C94000008958150823108F00F
:1006A0005AC0E82FF0E08827E75AFC4F8F4F0C9490
:1006B000F81179037D036B0371037503AB038003AA
:1006C00086038A039003940398039E03A203AB035B
:1006D000A603AC03B003809180008F7780938000E5
:1006E0000895809180008F7DF9CF80918000877F71
:1006F000F5CF84B58F7784BD089584B58F7DFBCF0A
:100700008091B0008F778093B00008958091B00001
:100710008F7DF9CF809190008F778093900008951E
:10072000809190008F7DF9CF80919000877FF5CFE9
:100730008091A0008F778093A00008958091A00001
:100740008F7DF9CF8091A000877FF5CF8091200128
:100750008F77809320010895809120018F7DF9CFBC
:1007600080912001877FF5CFCF93DF93282F30E052
:10077000F901E65AFD4F8491F901EC5EFD4FD491E9
:10078000F901E253FE4FC491CC23A1F081110E94E4
:100790004D03EC2FF0E0EE0FFF1FEC54FE4FA59140
:1007A000B491EC91ED2381E090E009F480E0DF91D9
:1007B000CF91089580E090E0FACF862F0C94B40397
:1007C0001F93CF93DF93282F30E0F901E65AFD4FB6
:1007D0008491F901EC5EFD4FD491F901E253FE4F93
:1007E000C491CC23A9F0162F81110E944D03EC2F48
:1007F000F0E0EE0FFF1FE656FE4FA591B4918FB7C4
:10080000F894EC91111108C0D095DE23DC938FBFD2
:10081000DF91CF911F910895DE2BF8CF862F642FA3
:100820000C94E003CF93DF9390E0FC01EC5EFD4F6E
:10083000249182539E4FFC0184918823C9F090E05B
:10084000880F991FFC01E058FE4FA591B491FC015F
:10085000E656FE4FC591D49161110DC09FB7F89433
:100860008C91209582238C938881282328839FBF95
:10087000DF91CF910895623051F49FB7F8943C9185
:10088000822F809583238C93E8812E2BEFCF8FB717
:10089000F894EC912E2B2C938FBFEACF862F642FE8
:1008A0000C9412046F927F928F929F92AF92BF929C
:1008B000CF92DF92EF92FF920F931F93CF93DF932C
:1008C00081E0809365058FB7F8944091340450918E
:1008D000350460913604709137048FBF80915505BF
:1008E00090915605A0915705B0915805481B590B9A
:1008F0006A0B7B0B8091610590916205B0E0A0E0EE
:1009000084179507A607B70708F01DC1C0E08091BE
:100910005F05C81760F4E0915B05F0915C05EC0F92
:10092000F11D62E080810E941204CF5FF0CF712C34
:10093000812C912C5401839480916005781608F0E5
:100940005FC0072D10E0E0915D05F0915E05E00FBE
:10095000F11F61E080810E941204E0915D05F09139
:100960005E05E00FF11F60E080810E94E003D50189
:10097000C401072C04C0880F991FAA1FBB1F0A942B
:10098000D2F76C017C01E094F094612C80915F05BA
:100990006816F8F4C62DD0E0E0915B05F0915C0597
:1009A000EC0FFD1F80810E94B4032496CC0FDD1F45
:1009B000C750DB4F892B41F4888199818C299D296F
:1009C000998388836394E2CF888199818E219F21C6
:1009D000F7CFE0915D05F0915E05E00FF11F61E05A
:1009E00080810E94E00380915D0590915E05080F73
:1009F000191F60E0F80180810E94120473949CCF5B
:100A0000C9EFD4E0FE018FEF9FEF278D30A1232B9C
:100A100021F4148E968F858F11A2369625E0E5334A
:100A2000F20799F7F12C96E0D92E80915F05F81620
:100A300008F050C0E12C0F2D10E0000F111F0F5FC8
:100A40001A4F20916005E21608F042C0F80160815B
:100A500071810E2C02C0769567950A94E2F7F29E9A
:100A6000900111242E0D311DE9EFF4E080E0458D59
:100A7000568D2417350709F46AC08F5F36968A3081
:100A8000B1F760FF23C0E9EFF4E090E080E0448D2F
:100A9000411117C0E0915905F0915A05E20FF31F7B
:100AA0004081D89EF001D99EF00D1124E750FB4FF4
:100AB000448F368F258F10A2178E61E00E94A70108
:100AC00005C0019636968A30910509F7E394B9CFAF
:100AD000F394ABCF80E099A19111892F2696F5E090
:100AE000C533DF07C1F79FB7F894409134045091A4
:100AF000350460913604709137049FBF40935505CB
:100B00005093560560935705709358058823D9F084
:100B100080911A058823B9F08091180590911905E4
:100B2000019789F480911505DF91CF911F910F9165
:100B3000FF90EF90DF90CF90BF90AF909F908F90FD
:100B40007F906F9008951092650580E0EDCF617001
:100B5000B5CF3FB7F8948091A9039091AA03A091D3
:100B6000AB03B091AC0326B5A89B05C02F3F19F08D
:100B70000196A11DB11D3FBFBA2FA92F982F88271D
:100B8000BC01CD01620F711D811D911D42E0660FF8
:100B9000771F881F991F4A95D1F708958F929F92CA
:100BA000AF92BF92CF92DF92EF92FF924B015C0126
:100BB0000E94A9056B017C010E94A9056C197D09A1
:100BC0008E099F09683E734081059105A8F321E0D5
:100BD000821A9108A108B10888EEC80E83E0D81ED9
:100BE000E11CF11C81149104A104B10429F7FF90C8
:100BF000EF90DF90CF90BF90AF909F908F9008952F
:100C0000089520918503260F3327331F21323105A4
:100C1000ECF420910A04FC0190E080E0243069F0BB
:100C200082E00895A09185032191AC014B595C4F5E
:100C3000A40FB52FB11D2C930196861798F38091C0
:100C40008503680F6093850380E0089581E008952F
:100C500010920A0481E0809309041092E40361E099
:100C600084E10E94E00361E085E10E94E003E9EB9A
:100C7000F0E080818E7F808380818D7F808388E417
:100C80008093B80085E48093BC000895CF93DF93F0
:100C900091E0909364038823B9F0C091B800D0919B
:100CA000BA008091BC008A7B8093BC0060E084E144
:100CB0000E94E00360E085E10E94E0030E942806B4
:100CC000D093BA00C093B800DF91CF910895CF922E
:100CD000DF92EF92FF920F931F93CF93DF93D09108
:100CE000330481E0D13208F09CC0C09132040E94EC
:100CF000A9056B017C0180910A0481116CC082E01E
:100D000080930A0481E0809309048FEF80930804A4
:100D100010920704D0930604A2E1B4E0E6EEF3E0FB
:100D200080E0D8138DC01092E5038091E503CC0FCD
:100D3000C82BC093E5038091E403813009F084C09F
:100D40001092E4030E94A9056B017C018091E503E8
:100D50008093BB0080910C0490910D04A0910E042F
:100D6000B0910F04892B8A2B8B2BA1F00E94A9052F
:100D700000910C0410910D0420910E0430910F0489
:100D80006C197D098E099F0906171707280739076F
:100D900008F442C08091BC0083FDD8CF85EC8093DD
:100DA000BC000E94A9056B017C0180910A0482307D
:100DB00009F44CC0809108048F3F09F469C0809108
:100DC0000804803209F466C080910804803309F475
:100DD00063C084E026C080910C0490910D04A09122
:100DE0000E04B0910F04892B8A2B8B2B09F483CF2F
:100DF0000E94A90500910C0410910D0420910E048D
:100E000030910F046C197D098E099F090617170789
:100E10002807390708F06FCF80910B040E9446061F
:100E200085E0109211041092330410921004DF91A7
:100E3000CF911F910F91FF90EF90DF90CF90089589
:100E40009D9191938F5F6DCF85EEA9CF80910C041A
:100E500090910D04A0910E04B0910F04892B8A2B60
:100E60008B2B09F4A2CF0E94A90500910C041091CC
:100E70000D0420910E0430910F046C197D098E0928
:100E80009F09061717072807390708F08ECFC4CF28
:100E900080E0C7CF82E0C5CF83E0C3CF0895E09163
:100EA000B2038091B103E81730F4F0E0ED54FC4F49
:100EB000808190E008958FEF9FEF08959091B203A5
:100EC0008091B1032FEF3FEF981748F4E92FF0E03E
:100ED000ED54FC4F208130E09F5F9093B203C90135
:100EE00008958091B1039091B203891B990B0895E5
:100EF000CF92DF92EF92FF920F931F93CF93DF93E6
:100F00007C01CB018A0120911004222389F0EB019E
:100F10006B01C40ED51ECC15DD0569F06991D701B2
:100F2000ED91FC910190F081E02DC7011995F3CF6F
:100F3000642F0E940106C801DF91CF911F910F918C
:100F4000FF90EF90DF90CF900895CF93DF931F92A3
:100F5000CDB7DEB76983209110042223F9F02091E8
:100F60003304203258F021E030E0FC013383228347
:100F700090E080E00F90DF91CF910895809111046F
:100F8000E82FF0E0EE5EFB4F998190838F5F8093B6
:100F900011048093330481E090E0ECCF61E0CE0156
:100FA00001960E940106F7CF90E080E00895CF936C
:100FB000DF93EC0160E08E810E94E00361E08E81AE
:100FC0000E94E00360E08E810E94E0038BE891E0E4
:100FD0000197F1F7DF91CF910895CF92DF92EF92D1
:100FE000FF920F931F93CF93DF936C017C0187E0F7
:100FF000E80EF11CD0E0C0E0062F10E0B8010C2E86
:1010000002C0759567950A94E2F76170F7018191C6
:101010007F010E94E0032196C430D10579F7C60113
:10102000DF91CF911F910F91FF90EF90DF90CF90C4
:101030000C94D707CF92DF92EF92FF920F931F93FA
:10104000CF93DF93EC01F62E642F8C810E94E00396
:101050008D818F3F19F060E00E94E0030F2D10E0BA
:101060008F8584FF25C06E0187E0C80ED11CF12C4E
:10107000E12CB8010E2C02C0759567950A94E2F731
:101080006170F60181916F010E94E003FFEFEF1A9A
:10109000FF0A88E0E816F10461F7CE01DF91CF91F5
:1010A0001F910F91FF90EF90DF90CF900C94D70796
:1010B000B80184E0759567958A95E1F7CE010E94A5
:1010C000ED076F2DCE01DF91CF911F910F91FF9012
:1010D000EF90DF90CF900C94ED0740E0682F81EE09
:1010E00094E00C941A0881E00E946D088BE39FE164
:1010F0000197F1F70895CF93DF93613029F0909134
:10110000F00498609093F0046093F4041092F50456
:1011100090E49093F6048093F704805C8093F80445
:1011200061E08091E5040E9412048091E6048F3F03
:1011300019F061E00E94120461E08091E7040E94CE
:101140001204C1EED4E09E01215E34408091F0048F
:1011500084FD0BC084E090E021962817390744F401
:1011600061E08E810E941204EECF88E090E0F4CF1F
:101170008BE39DE00197F1F760E08091E5040E9428
:10118000E00360E08091E7040E94E0038091E604C0
:101190008F3F19F060E00E94E0038091F00484FD2D
:1011A00034C063E081EE94E00E94ED07CBE4D6E426
:1011B000CE010197F1F763E081EE94E00E94ED0724
:1011C0002197F1F763E081EE94E00E94ED0783E55B
:1011D00092E00197F1F762E081EE94E00E94ED0762
:1011E0008091F00480620E946D0884E08093F10495
:1011F0008CE00E946D080E94730882E08093F204E4
:1012000086E0DF91CF910C946D0880620E946D089A
:101210008BE496E40197F1F78091F00480620E94DC
:101220006D0883E592E00197F1F78091F004806208
:101230000E946D08D5CF9091F404891710F08FEFBC
:10124000890FE82FF0E0EF51FB4F848980680C9400
:101250006D0841E00E941A0881E090E00895FB01CA
:1012600001900020E9F73197AF01461B570BDC01D5
:10127000ED91FC910280F381E02D19948F929F9261
:10128000AF92BF920F931F93CF93DF93CDB7DEB78B
:10129000A1970FB6F894DEBF0FBECDBF19A24230A2
:1012A00008F44AE08E010F5D1F4F842E912CB12C63
:1012B000A12CA50194010E94D611E62FB901CA0103
:1012C000EA3004F5E05DD801EE938D01232B242B49
:1012D000252B79F790E080E0109729F0BD0181EE91
:1012E00094E00E942F09A1960FB6F894DEBF0FBEBE
:1012F000CDBFDF91CF911F910F91BF90AF909F9085
:101300008F900895E95CDFCFCF92DF92EF92FF924A
:101310006B017C0141E06DE281EE94E00E941A08CD
:1013200066277727CB016C197D098E099F094AE052
:101330000E943E090196FF90EF90DF90CF900895B4
:1013400067E572E00C942F09CF93DF93BC0181EE27
:1013500094E00E942F09EC0181EE94E00E94A00924
:101360008C0F9D1FDF91CF9108950C942F09813030
:10137000910571F02CF46AE572E0892B59F008951B
:101380008230910559F068E772E0039719F00895EB
:1013900063E672E081EE94E00C94B5096DE672E0CC
:1013A000F9CFCF92DF92EF92FF920F931F93CF93DB
:1013B000DF9364E084E10E947B080E947308C12CE3
:1013C000D12C7601C394D0E0C0E08C2F0E941B0981
:1013D0008E010F5F1F4F4AE0C701B6010E943E0910
:1013E00061E872E081EE94E00E94B509CE010E94AE
:1013F000B70981EE94E00E94A0098FEFC81AD80ABD
:10140000E80AF80AE80104301105F9F6DF91CF91F6
:101410001F910F91FF90EF90DF90CF90089585ED91
:101420008093BC0080910C0490910D04A0910E0457
:10143000B0910F040796A11DB11D23E0B695A795A5
:10144000979587952A95D1F72091BC0024FD03C07C
:1014500010920A04089540910C0450910D0460917B
:101460000E0470910F04452B462B472B69F3009710
:10147000A105B10541F025E32A95F1F70000019798
:10148000A109B109E1CF80910B040C9446061F928B
:101490000F920FB60F9211240BB60F922F933F931A
:1014A0004F935F936F937F938F939F93AF93BF936C
:1014B000EF93FF9388E394E00E948D02FF91EF91F8
:1014C000BF91AF919F918F917F916F915F914F915C
:1014D0003F912F910F900BBE0F900FBE0F901F905A
:1014E00018951F920F920FB60F9211240BB60F9200
:1014F0002F938F939F93EF93FF93E0914804F09184
:1015000049048081E0914E04F0914F0482FD1DC09A
:101510009081809151048F5F8F73209152048217C4
:1015200041F0E0915104F0E0E85CFB4F958F80932F
:101530005104FF91EF919F918F912F910F900BBECE
:101540000F900FBE0F901F9018958081F2CF1F92C1
:101550000F920FB60F9211242F933F938F939F9367
:10156000AF93BF938091340490913504A0913604D9
:10157000B09137043091A80323E0230F2D3758F59D
:101580000196A11DB11D2093A8038093340490936C
:101590003504A0933604B09337048091A903909149
:1015A000AA03A091AB03B091AC030196A11DB11D9C
:1015B0008093A9039093AA03A093AB03B093AC03C9
:1015C000BF91AF919F918F913F912F910F900FBE3F
:1015D0000F901F90189526E8230F0296A11DB11DAC
:1015E000D2CF1F920F920FB60F9211240BB60F920B
:1015F0002F933F934F935F936F937F938F939F931B
:10160000AF93BF93EF93FF938091B900887F8036AB
:1016100009F44DC008F040C0883209F4A9C028F58B
:10162000803109F49DC0C8F4882309F4FBC08830D8
:1016300009F496C0FF91EF91BF91AF919F918F9167
:101640007F916F915F914F913F912F910F900BBEC2
:101650000F900FBE0F901F901895883109F488C025
:10166000803241F78093080414C0803409F49DC08F
:1016700040F48033B9F38833E9F68093080485ECAD
:10168000B0C0803509F485C0883509F496C0883427
:1016900089F60E940F0ACECF883909F48CC038F53C
:1016A000883729F050F4883611F0803719F683E036
:1016B00080930A041092A70357C0883809F47BC0AE
:1016C000803919F0803809F0B5CF8091A7038032B6
:1016D00008F071C0E091A70381E08E0F8093A7030B
:1016E0008091BB00F0E0E957FC4F80833DC0803B18
:1016F00039F0E0F4803A09F479C0883A09F09ACFD9
:1017000084E080930A041092860310928503E0918E
:10171000AF03F091B00319958091850381110FC03B
:1017200081E0809385031092650309C0803C09F431
:10173000A6CF883C09F4A3CF883B09F07BCFE0918A
:10174000860381E08E0F80938603F0E0EB59FC4F17
:1017500080818093BB00909186038091850329C08E
:101760008091E5038093BB0085EC8093BC0062CF41
:101770009091070480910604981758F5E0910704AA
:1017800081E08E0F80930704F0E0EA51FC4F8081E6
:10179000E9CFE091070481E08E0F809307048091E8
:1017A000BB00F0E0EA51FC4F8083909107048091E8
:1017B00006049817C8F285E8D8CFE091070481E0C5
:1017C0008E0F809307048091BB00F0E0EA51FC4F3C
:1017D00080838091090481115CCF81E08093E403D0
:1017E00084EA8093BC0010920A0424CF85EC809395
:1017F000BC0010920A048091A703803230F4E0917B
:10180000A703F0E0E957FC4F10826091A70370E056
:10181000E091AD03F091AE0387E893E01995109243
:10182000A70308CF1092080434CF10923B04109203
:101830003A0488EE93E0A0E0B0E080933C049093FB
:101840003D04A0933E04B0933F0421E232E0309384
:1018500039042093380425EC30E03093450420937C
:10186000440424EC30E0309347042093460420ECF9
:1018700030E0309349042093480421EC30E0309369
:101880004B0420934A0422EC30E030934D04209323
:101890004C0426EC30E030934F0420934E04109219
:1018A0005104109252041092530410925404109256
:1018B000D8041092D7048093D9049093DA04A093AB
:1018C000DB04B093DC0483E392E09093D60480932E
:1018D000D5041092FB041092FF041092FE041092A3
:1018E000000581E592E09093FA048093F904E5E124
:1018F000F5E01082148213821582369685E0E13578
:10190000F807B9F785E092E090935C0580935B055A
:1019100082E092E090935E0580935D0594E0909361
:101920005F0583E08093600529E032E030935A053B
:10193000209359052AE030E0309362052093610539
:1019400024EF31E03093640520936305109267051E
:101950001092660510925505109256051092570583
:1019600010925805109265051092E4041092E30459
:1019700025E432E03093E2042093E1042CE020934C
:10198000E5042FEF2093E6042AE02093E70425E006
:101990002093E8049093E9048093EA0482E0809322
:1019A000EB041092EC041092ED041092EE041092ED
:1019B000EF041092F00461E080E10C947B087894CD
:1019C00084B5826084BD84B5816084BD85B5826044
:1019D00085BD85B5816085BD80916E0081608093F5
:1019E0006E0010928100809181008260809381005E
:1019F000809181008160809381008091800081606E
:101A0000809380008091B10084608093B1008091C8
:101A1000B00081608093B0008091910082608093DB
:101A2000910080919100816080939100809190005D
:101A30008160809390008091A10082608093A100DA
:101A40008091A10081608093A1008091A0008160BD
:101A50008093A00080912101826080932101809178
:101A60002101816080932101809120018160809318
:101A7000200180917A00846080937A0080917A00BE
:101A8000826080937A0080917A00816080937A00EE
:101A900080917A00806880937A001092C100C5E13D
:101AA000D2E09DE1E92E92E0F92EEC16FD0659F008
:101AB0001881229661E0812F0E94120460E0812F3C
:101AC0000E94E003F2CF1092B2031092B103109281
:101AD0001104109233040E94280687E192E090934B
:101AE000B0038093AF0388E192E09093AE038093BC
:101AF000AD03E0914804F091490482E08083E091D5
:101B00004404F09145041082E0914604F0914704AA
:101B10008FEC808310925004E0914C04F0914D04BE
:101B200086E08083E0914A04F0914B0480818061DB
:101B30008083E0914A04F0914B0480818860808327
:101B4000E0914A04F0914B04808180688083E091A9
:101B50004A04F0914B0480818F7D8083C5E0D2E000
:101B600009E012E00C171D0781F4C2E0D2E005E0A5
:101B700012E00C171D07A1F061E088810E94120499
:101B800061E089910E94E003F4CF61E089910E94B5
:101B90001204FE01319761E080810E94E003E2CFF0
:101BA0000E94D109F3EDCF2EF3E0DF2EA4E09A2EB0
:101BB000B0E58B2E07ED13E0C4E1EC2EC3E0FC2E64
:101BC000D5EE6D2E85EC782E0E945204882309F400
:101BD0006DC09091E30391110CC1C82F880FDD0BEC
:101BE000E197C430D10508F04DC20E94730864E843
:101BF00072E081EE94E00E94B509CE010E94B7091F
:101C000081EE94E00E94A00981E00E941B098FE808
:101C100092E00E94A40982E00E941B0963EA72E03C
:101C200081EE94E00E94B509D0930102C0930002B6
:101C300081E08093E3030E9452048823E1F3682F3C
:101C4000880F770B6F527109072E000C880B990BC8
:101C50000E944A112DEC3CEC4CE45EE30E94A5107E
:101C60000E9412118091000290910102EC01CC0FB0
:101C7000DD1FFE01E552FC4F843091050CF4B5C028
:101C800060E086E10E94E00360E087E10E94E003FB
:101C900060E088E10E94E00360E089E10E94E003E7
:101CA000CB5EDD4F61E088810E94E0038091E30319
:101CB000882309F4E7C18091000290910102049702
:101CC0000CF00EC2F601892D11928A95E9F76BECA2
:101CD00072E088E394E00E94B50981E080931004EB
:101CE00080923204109211041092330461E085ED69
:101CF00094E00E94A50769E585ED94E00E94A507A0
:101D00000E9467066AE070E080E090E00E94CE05E5
:101D10000E94A9051B012C0180910A04811183C036
:101D200081E080930A04809309049FEF9093080454
:101D300010920704E3E0E09306048093E5038091AA
:101D4000E503806A8093E5038091E403813009F024
:101D50009CC11092E4030E94A9051B012C018091F3
:101D6000E5038093BB0080910C0490910D04A09139
:101D70000E04B0910F04892B8A2B8B2BA1F00E94AB
:101D8000A90520910C0430910D0440910E0450914E
:101D90000F04621973098409950926173707480744
:101DA000590708F461C08091BC0083FDD8CF7092C0
:101DB000BC000E94A9051B012C0180910A048130FE
:101DC00009F466C180910704843008F083C18091D2
:101DD0000704A6EEB3E0E3EBF3E090E0981709F414
:101DE00048C02D9121939F5FF9CF61937193019624
:101DF00043CF833209F05FCF0E94730880E00E94D6
:101E00001B098BEA92E00E94A40981E00E941B0951
:101E100088EB92E00E94A4090E9452048823E1F317
:101E20008332D1F743CF80910C0490910D04A0919F
:101E30000E04B0910F04892B8A2B8B2B09F46CCFE5
:101E40000E94A90520910C0430910D0440910E04CC
:101E500050910F04621973098409950926173707F1
:101E60004807590708F058CF80910B040E94460696
:101E700080E01092B2038093B10353EDA52E53E09E
:101E8000B52EE50185ED94E00E945E078993F3E0AD
:101E9000C73DDF07B9F762EE72E088E394E00E9485
:101EA000B509F50161915F0188E394E00E94AF02FA
:101EB000CA15DB05B1F788E394E00E94A0090E94EF
:101EC000730880E00E941B096AEE72E081EE94E0E4
:101ED0000E94B50980910002909101020E94B70909
:101EE00081E00E941B09E0910002F0910102EE0FD7
:101EF000FF1FE552FC4F60817181072E000C880B9B
:101F0000990B97FFE9C00E94840984EF92E00E9438
:101F1000A40982E00E941B0983E093E00E94A409C7
:101F2000E0910002F0910102EE0FFF1FE552FC4F1D
:101F30008081918101979183808368EE73E080E0D6
:101F400090E00E94CE05F801892D11928A95E9F75B
:101F50008091E2038F938091E1038F938091E0035E
:101F60008F938091DF038F938091DE038F93809115
:101F7000DD038F938091DC038F938091DB038F933C
:101F8000FF92EF921F930F930E9400126DE173E096
:101F900088E394E00E94B50981E080931004809268
:101FA0003204109211041092330461E085ED94E044
:101FB0000E94A50769E585ED94E00E94A50737ED2D
:101FC000A32E33E0B32EEDB7FEB73C960FB6F894D0
:101FD000FEBF0FBEEDBFE501699185ED94E00E9463
:101FE000A507F3E0CB3DDF07B9F70E9467066AE07B
:101FF00070E080E090E00E94CE0562E373E088E349
:1020000094E00E94B509F50161915F0188E394E0D5
:102010000E94AF02CA15DB05B1F788E394E00E9485
:10202000A009C0910002D0910102FE01EE0FFF1F36
:10203000E552FC4F80819181181619061CF168EC5D
:1020400070E080E090E00E94CE052196D0930102DE
:10205000C093000260E086E10E94E00360E087E157
:102060000E94E00360E088E10E94E00360E089E113
:102070000E94E003CC0FDD1FCB5EDD4F61E0888165
:102080000E94E0030E941C039FCD6092BC0091CE91
:1020900080910C0490910D04A0910E04B0910F0456
:1020A000892B8A2B8B2B09F488CE0E94A9052091BD
:1020B0000C0430910D0440910E0450910F046219EC
:1020C000730984099509261737074807590708F047
:1020D00074CECACE84E07DCE4AE00E943E0915CF80
:1020E0000E94730880E00E941B098BE393E00E942A
:1020F000A40981E00E941B098DE493E00E94A409D9
:102100001092E30361E086E10E94E00361E087E171
:102110000E94E00361E088E10E94E00361E089E160
:102120000E94E0030E9452048823E1F3833219F4F1
:102130000E94D109A7CF0E94730880E00E941B096A
:102140008EE593E00E94A4099DCF5058BB27AA2793
:102150000E94BD100C949C110E948E1138F00E94B8
:10216000951120F039F49F3F19F426F40C948B114B
:102170000EF4E095E7FB0C948511E92F0E94AD1158
:1021800058F3BA17620773078407950720F079F4AC
:10219000A6F50C94CF110EF4E0950B2EBA2FA02DBE
:1021A0000B01B90190010C01CA01A0011124FF2704
:1021B000591B99F0593F50F4503E68F11A16F040FF
:1021C000A22F232F342F4427585FF3CF46953795FE
:1021D0002795A795F0405395C9F77EF41F16BA0BC3
:1021E000620B730B840BBAF09150A1F0FF0FBB1F71
:1021F000661F771F881FC2F70EC0BA0F621F731FBA
:10220000841F48F4879577956795B795F7959E3F16
:1022100008F0B0CF9395880F08F09927EE0F9795A7
:10222000879508950E9419116894B1110C94D011EA
:1022300008950E94B51188F09F5798F0B92F9927FB
:10224000B751B0F0E1F0660F771F881F991F1AF0A1
:10225000BA95C9F714C0B13091F00E94CF11B1E026
:1022600008950C94CF11672F782F8827B85F39F025
:10227000B93FCCF3869577956795B395D9F73EF43A
:1022800090958095709561957F4F8F4F9F4F0895E2
:10229000E89409C097FB3EF4909580957095619500
:1022A0007F4F8F4F9F4F9923A9F0F92F96E9BB27B6
:1022B0009395F695879577956795B795F111F8CF32
:1022C000FAF4BB0F11F460FF1BC06F5F7F4F8F4F9D
:1022D0009F4F16C0882311F096E911C0772321F093
:1022E0009EE8872F762F05C0662371F096E8862F2B
:1022F00070E060E02AF09A95660F771F881FDAF782
:10230000880F9695879597F9089597F99F6780E8C4
:1023100070E060E008959FEF80EC089500240A9437
:102320001616170618060906089500240A941216B0
:102330001306140605060895092E0394000C11F4E3
:10234000882352F0BB0F40F4BF2B11F460FF04C090
:102350006F5F7F4F8F4F9F4F089557FD9058440FE9
:10236000551F59F05F3F71F04795880F97FB991FF4
:1023700061F09F3F79F087950895121613061406B1
:10238000551FF2CF4695F1DF08C01616170618063E
:10239000991FF1CF86957105610508940895E89419
:1023A000BB2766277727CB0197F90895A1E21A2E5C
:1023B000AA1BBB1BFD010DC0AA1FBB1FEE1FFF1FE9
:1023C000A217B307E407F50720F0A21BB30BE40B39
:1023D000F50B661F771F881F991F1A9469F7609580
:1023E0007095809590959B01AC01BD01CF0108953A
:1023F000EE0FFF1F881F8BBF0790F691E02D1994F9
:102400000F931F93CF93DF93CDB7DEB72E970FB601
:10241000F894DEBF0FBECDBF0E891F8986E08C8386
:102420001A8309838FEF9FE79E838D83AE01465EFB
:102430005F4F688D798DCE0101960E9430122F81F9
:102440003885020F131FF80110822E960FB6F894EC
:10245000DEBF0FBECDBFDF91CF911F910F910895C9
:102460002F923F924F925F926F927F928F929F92A4
:10247000AF92BF92CF92DF92EF92FF920F931F9392
:10248000CF93DF9300D000D000D01F921F92CDB722
:10249000DEB77C013B018A01FC0117821682838131
:1024A00081FFDDC1CE0101965C01F7019381F3014B
:1024B00093FD859193FF81913F01882309F453C1D6
:1024C000853239F493FD859193FF81913F018532E7
:1024D00029F4B70190E00E944814E7CF912C212CF9
:1024E000312CFFE1F31538F08B3211F190F480328A
:1024F00009F1833229F137FC3CC020ED280F2A3046
:1025000050F536FE20C08AE0989E200D1124922EB0
:1025100006C08D3291F0803371F7689430F8F30182
:1025200093FD859193FF81913F018111DACF21C005
:10253000689431F8689432F8F2CF689433F8EFCFAA
:10254000689434F8ECCFEAE02E9E200D1124222E60
:10255000689435F8E4CF8E3229F436FC04C16894CF
:1025600036F8DDCF8C3619F4689437F8D8CF883632
:10257000B1F2982F9F7D95549330E0F08336A1F10E
:102580008337C1F1833509F063C02801F2E04F0EB3
:10259000511CF801C080D180692D70E036FC02C06A
:1025A0006FEF7FEFC6010E9432144C01689437F838
:1025B00082010AC00C5F1F4FFFE3F98388248394D4
:1025C000912C6501E89437F833FE2DC0522C81140C
:1025D000910471F5552009F468CFB70180E290E0CD
:1025E0000E9448145A94F6CFF801808189830E5FC7
:1025F0001F4FE4CF2801F2E04F0E511CF801C080BC
:10260000D180692D70E036FC02C06FEF7FEFC6010C
:102610000E943D144C018201D5CFB70180E290E0C9
:102620000E9448142A942814190409F0B0F7CECF58
:10263000F60137FC859137FE81916F01B70190E07B
:102640000E94481451105A94F1E08F1A9108BFCF9C
:10265000843619F0893609F077C0F80137FE6BC06F
:1026600060817181828193810C5F1F4FF32DFF7612
:102670003F2E97FF09C090958095709561957F4F8B
:102680008F4F9F4F689437F82AE030E0A5010E94F1
:102690007814C82ECA188C2C432C36FE0CC0E89433
:1026A00040F8C91440F434FE05C032FC03C0F32DD9
:1026B000FE7E4F2E892C44FEAAC0FE01EC0DF11DBA
:1026C0008081803309F09CC0242D297E422E842DE8
:1026D0008870582E43FCAAC040FEA4C09C2C8214D3
:1026E00018F42C0C922C981844FEA6C0B70180E375
:1026F00090E00E94481442FE09C088E790E041FE45
:1027000002C088E590E0B7010E944814C91408F49B
:102710009FC0CA94D12C9FEFC91AD90ACA0CDB1CDE
:10272000F60182916F01B70190E00E944814AC1449
:10273000BD04B1F74FCF60817181072E000C880B6B
:10274000990B0E5F1F4F92CFD32CE894D4F82AE058
:1027500030E08537E1F1232D297FD22E8F36A9F184
:10276000F0F4883551F1F701868197812B960FB6E9
:10277000F894DEBF0FBECDBFDF91CF911F910F91B7
:10278000FF90EF90DF90CF90BF90AF909F908F9091
:102790007F906F905F904F903F902F90089580377B
:1027A00049F0883701F7D4FE02C06894D2F820E1DE
:1027B00030E00DC06894D4F8F6CF34FE03C0822F09
:1027C0008660D82E20E132E002C028E030E0F80137
:1027D000D7FE0FC060817181828193810C5F1F4F92
:1027E000A5010E947814C82ECA183D2CE89437F829
:1027F00052CF6081718190E080E00E5F1F4FF0CF7B
:1028000042FC02C0839463CF8394839460CF842D71
:10281000867809F45CCFF6CFB70180E290E00E94A1
:10282000481483948214C0F3512C5ECF522C581854
:10283000821408F459CFF8CF842D867809F466CF36
:102840008BE241FE80E247FC8DE2B70190E05CCF75
:10285000B70180E390E00E9448149A9457CF8FEF1D
:102860009FEF84CFFC010590615070400110D8F7B4
:10287000809590958E0F9F1F0895FC0161507040C8
:1028800001900110D8F7809590958E0F9F1F0895A5
:102890000F931F93CF93DF93182F092FEB018B8199
:1028A00081FD09C01FEF0FEF812F902FDF91CF9196
:1028B0001F910F91089582FF14C02E813F818C815A
:1028C0009D81281739073CF4E881F981CF010196F1
:1028D0009983888310838E819F8101969F838E8345
:1028E000E3CFE885F985812F1995892BA1F3DACFFC
:1028F000FA01AA27283051F1203181F1E8946F9331
:102900006E7F6E5F7F4F8F4F9F4FAF4FB1E03ED0D6
:10291000B4E03CD0670F781F891F9A1FA11D680F74
:10292000791F8A1F911DA11D6A0F711D811D911DA7
:10293000A11D20D009F468943F912AE0269F11241C
:102940003019305D3193DEF6CF010895462F477080
:10295000405D4193B3E00FD0C9F7F6CF462F4F70DB
:10296000405D4A3318F0495D31FD4052419302D039
:10297000A9F7EACFB4E0A6959795879577956795DF
:10298000BA95C9F700976105710508959B01AC01DF
:102990000A2E06945795479537952795BA95C9F706
:1029A000620F731F841F951FA01D0895F894FFCF19
:1029B000FFFF1A1B1C1D1E1F2031323334353637E2
:1029C00038392A30231600170018001900000000BB
:1029D00000AF0219024602FC0277025502690200AA
:1029E000000000A5077807D4074E0771075E074F60
:1029F000070000000029091902D4070006000000A2
:102A0000004E040E04DD030D0A005072652D57615F
:102A1000736800546964652D576173680057617469
:102A200065722D57617368004472792D5761736820
:102A3000002E200053656C65637465643A2000467F
:102A40006F7220486F77204C6F6E673F2028302DC3
:102A500039290056616C75653A2000576F726B20FA
:102A600068616C7465642E00507265737320232056
:102A7000746F20726573756D652E005265616469AF
:102A80006E672066726F6D20454550524F4D2E2E59
:102A90002E0020526561643A200043757272656EA3
:102AA000743A2000732072656D61696E696E672EDD
:102AB0002E2E005072657373202320746F20686F70
:102AC0006C642E00256425642564256400577269B2
:102AD00074696E6720746F20454550524F4D2E2EFD
:102AE0002E002057726F74653A200046696E697334
:102AF00068656420576F726B696E672E005072654F
:102B00007373202320666F72204D656E75004279C5
:042B1000652E00002E
:00000001FF
