:020000040000FA
:100000000C9451010C9482010C9482010C94820195
:100010000C9482010C9482010C9482010C94820154
:100020000C9482010C9482010C9482010C94820144
:100030000C9482010C9482010C9482010C94820134
:100040000C9482010C9482010C9482010C94820124
:100050000C9482010C9482010C9482010C94A70AE6
:100060000C9482010C94710A0C94470A0C9482013E
:100070000C9482010C9482010C9482010C948201F4
:100080000C9482010C9482010C9482010C948201E4
:100090000C9482010C9482010C9482010C94F10A5C
:1000A0000C9482010C9482010C9482010C948201C4
:1000B0000C9482010C9482010C9482010C948201B4
:1000C0000C9482010C9482010C9482010C948201A4
:1000D0000C9482010C9482010C9482010C94820194
:1000E0000C9482010C9494030C9429090C949E03A3
:1000F0000C94FC020C9479030C94AC030C940E0445
:100100000C9417020C94DD030C9478070C94D4071C
:100110000C9480030C9477020C94AB030C94B00302
:100120000C9475030C944E070C9419020C944E0415
:100130000C94A2030C944F070C9471030C948A0343
:100140000C94A6030C94150C0C9471070C9490035A
:100150000C945E070C9469020C9446020C947D0387
:100160000C94A5070C9455020C94AF020C94180241
:100170000C946B030C9486030C9400060C94980367
:1001800000002100240027002A002D003000330049
:1001900001010000040107010A01000022002500FE
:1001A00028002B002E003100340002010000050160
:1001B00008010B01000020002300260029002C006C
:1001C0002F003200000100000301060109010505AE
:1001D0000505070508080808020202020A0A0808BD
:1001E00004040404010101010101010103030303EB
:1001F00003030303040707070C0C0C0C0C0C0C0C7A
:100200000202020206060606060606060B0B0B0B8A
:100210000B0B0B0B010210202008081020401020AF
:1002200040800201020108040201010204081020BA
:1002300040808040201008040201800402018040B8
:100240002010080402010804020101020408102021
:100250004080010204081020408000000A0B0209BF
:100260000C0D0E0807030401000000000000000050
:10027000000000000000000000000000000000007E
:10028000000000000000121110000000000000003B
:10029000000000000000000000000000000000005E
:1002A000150C11241FBECFEFD1E2DEBFCDBF00E0A1
:1002B0000CBF13E0A0E0B2E0E0EBF9E200E00BBF1E
:1002C00002C007900D92A436B107D9F725E0A4E645
:1002D000B3E001C01D92A836B207E1F711E0C1E515
:1002E000D1E000E006C021970109802FFE010E94A5
:1002F000F811C035D10780E00807A9F70E94DF0C8C
:100300000C94D6140C94000096E0899FD00111241F
:10031000A750BB4F90967C936E935F9791E0919618
:100320009C939197E0916605F09167059091650522
:10033000992339F0309751F0811108C0809115054B
:100340001994309719F05C968C91FACF0895CF925A
:10035000DF92EF92FF920F931F9396E0899FF00137
:100360001124E750FB4F11A2278D30A12130310518
:1003700051F178F02230310509F451C023303105B4
:1003800009F452C01F910F91FF90EF90DF90CF9032
:1003900008956623B9F361E070E00E9484012FB7ED
:1003A000F8948091340490913504A0913604B09172
:1003B00037042FBF8093510590935205A0935305A6
:1003C000B0935405DFCF9FB7F894C0903404D09019
:1003D0003504E0903604F09037049FBF009151053A
:1003E000109152052091530530915405C01AD10A3D
:1003F000E20AF30A009163051091640530E020E001
:100400000C151D052E053F0550F462E070E01F91AC
:100410000F91FF90EF90DF90CF900C9484016111C9
:10042000B1CF63E070E0F3CF70E060E0F0CF08950B
:100430000895AF92BF92CF92DF92EF92FF920F9307
:100440001F93CF93DF936C017B018B01040F151F6A
:10045000EB015E01AE18BF08C017D10759F06991D2
:10046000D601ED91FC910190F081E02DC601199526
:10047000892B79F7C501DF91CF911F910F91FF90E3
:10048000EF90DF90CF90BF90AF900895FC01538D17
:10049000448D252F30E0842F90E0821B930B54175E
:1004A00010F0CF96089501970895FC01918D828DEB
:1004B000981761F0A28DAE0FBF2FB11D5D968C9184
:1004C000928D9F5F9F73928F90E008958FEF9FEFC3
:1004D0000895FC01918D828D981731F0828DE80F7F
:1004E000F11D858D90E008958FEF9FEF0895FC0139
:1004F000918D228D892F90E0805C9F4F821B910906
:100500008F739927089588E394E00E94770221E091
:10051000892B09F420E0822F0895FC01A48DA80FF7
:10052000B92FB11DA35ABF4F2C91848D90E0019635
:100530008F739927848FA689B7892C93A089B18955
:100540008C91837080648C93938D848D981306C0F6
:100550000288F389E02D80818F7D80830895EF925A
:10056000FF920F931F93CF93DF93EC0181E0888F6D
:100570009B8D8C8D98131AC0E889F989808185FF3D
:1005800015C09FB7F894EE89FF896083E889F989DF
:1005900080818370806480839FBF81E090E0DF91E1
:1005A000CF911F910F91FF90EF900895F62E0B8D34
:1005B00010E00F5F1F4F0F731127E02E8C8D8E11EF
:1005C0000CC00FB607FCFACFE889F989808185FF56
:1005D000F5CFCE010E948D02F1CFEB8DEC0FFD2FF8
:1005E000F11DE35AFF4FF0829FB7F8940B8FEA8911
:1005F000FB8980818062CFCFCF93DF93EC01888D20
:100600008823B9F0AA89BB89E889F9898C9185FD8D
:1006100003C0808186FD0DC00FB607FCF7CF8C911B
:1006200085FFF2CF808185FFEDCFCE010E948D0244
:10063000E9CFDF91CF91089580E090E0892B29F0F8
:100640000E94830281110E94000080E090E0892BCB
:1006500049F080E090E0892B29F00E940000811190
:100660000E94000080E090E0892B49F080E090E05B
:10067000892B29F00E94000081110E94000080E077
:1006800090E0892B49F080E090E0892B29F00E94CE
:10069000000081110C94000008958150823108F00F
:1006A0005AC0E82FF0E08827E75AFC4F8F4F0C9490
:1006B000F81179037D036B0371037503AB038003AA
:1006C00086038A039003940398039E03A203AB035B
:1006D000A603AC03B003809180008F7780938000E5
:1006E0000895809180008F7DF9CF80918000877F71
:1006F000F5CF84B58F7784BD089584B58F7DFBCF0A
:100700008091B0008F778093B00008958091B00001
:100710008F7DF9CF809190008F778093900008951E
:10072000809190008F7DF9CF80919000877FF5CFE9
:100730008091A0008F778093A00008958091A00001
:100740008F7DF9CF8091A000877FF5CF8091200128
:100750008F77809320010895809120018F7DF9CFBC
:1007600080912001877FF5CFCF93DF93282F30E052
:10077000F901E65AFD4F8491F901EC5EFD4FD491E9
:10078000F901E253FE4FC491CC23A1F081110E94E4
:100790004D03EC2FF0E0EE0FFF1FEC54FE4FA59140
:1007A000B491EC91ED2381E090E009F480E0DF91D9
:1007B000CF91089580E090E0FACF862F0C94B40397
:1007C0001F93CF93DF93282F30E0F901E65AFD4FB6
:1007D0008491F901EC5EFD4FD491F901E253FE4F93
:1007E000C491CC23A9F0162F81110E944D03EC2F48
:1007F000F0E0EE0FFF1FE656FE4FA591B4918FB7C4
:10080000F894EC91111108C0D095DE23DC938FBFD2
:10081000DF91CF911F910895DE2BF8CF862F642FA3
:100820000C94E003CF93DF9390E0FC01EC5EFD4F6E
:10083000249182539E4FFC0184918823C9F090E05B
:10084000880F991FFC01E058FE4FA591B491FC015F
:10085000E656FE4FC591D49161110DC09FB7F89433
:100860008C91209582238C938881282328839FBF95
:10087000DF91CF910895623051F49FB7F8943C9185
:10088000822F809583238C93E8812E2BEFCF8FB717
:10089000F894EC912E2B2C938FBFEACF862F642FE8
:1008A0000C9412046F927F928F929F92AF92BF929C
:1008B000CF92DF92EF92FF920F931F93CF93DF932C
:1008C00081E0809365058FB7F8944091340450918E
:1008D000350460913604709137048FBF80915505BF
:1008E00090915605A0915705B0915805481B590B9A
:1008F0006A0B7B0B8091610590916205B0E0A0E0EE
:1009000084179507A607B70708F01DC1C0E08091BE
:100910005F05C81760F4E0915B05F0915C05EC0F92
:10092000F11D62E080810E941204CF5FF0CF712C34
:10093000812C912C5401839480916005781608F0E5
:100940005FC0072D10E0E0915D05F0915E05E00FBE
:10095000F11F61E080810E941204E0915D05F09139
:100960005E05E00FF11F60E080810E94E003D50189
:10097000C401072C04C0880F991FAA1FBB1F0A942B
:10098000D2F76C017C01E094F094612C80915F05BA
:100990006816F8F4C62DD0E0E0915B05F0915C0597
:1009A000EC0FFD1F80810E94B4032496CC0FDD1F45
:1009B000C750DB4F892B41F4888199818C299D296F
:1009C000998388836394E2CF888199818E219F21C6
:1009D000F7CFE0915D05F0915E05E00FF11F61E05A
:1009E00080810E94E00380915D0590915E05080F73
:1009F000191F60E0F80180810E94120473949CCF5B
:100A0000C9EFD4E0FE018FEF9FEF278D30A1232B9C
:100A100021F4148E968F858F11A2369625E0E5334A
:100A2000F20799F7F12C96E0D92E80915F05F81620
:100A300008F050C0E12C0F2D10E0000F111F0F5FC8
:100A40001A4F20916005E21608F042C0F80160815B
:100A500071810E2C02C0769567950A94E2F7F29E9A
:100A6000900111242E0D311DE9EFF4E080E0458D59
:100A7000568D2417350709F46AC08F5F36968A3081
:100A8000B1F760FF23C0E9EFF4E090E080E0448D2F
:100A9000411117C0E0915905F0915A05E20FF31F7B
:100AA0004081D89EF001D99EF00D1124E750FB4FF4
:100AB000448F368F258F10A2178E61E00E94A70108
:100AC00005C0019636968A30910509F7E394B9CFAF
:100AD000F394ABCF80E099A19111892F2696F5E090
:100AE000C533DF07C1F79FB7F894409134045091A4
:100AF000350460913604709137049FBF40935505CB
:100B00005093560560935705709358058823D9F084
:100B100080911A058823B9F08091180590911905E4
:100B2000019789F480911505DF91CF911F910F9165
:100B3000FF90EF90DF90CF90BF90AF909F908F90FD
:100B40007F906F9008951092650580E0EDCF617001
:100B5000B5CF3FB7F8948091A9039091AA03A091D3
:100B6000AB03B091AC0326B5A89B05C02F3F19F08D
:100B70000196A11DB11D3FBFBA2FA92F982F88271D
:100B8000BC01CD01620F711D811D911D42E0660FF8
:100B9000771F881F991F4A95D1F708958F929F92CA
:100BA000AF92BF92CF92DF92EF92FF924B015C0126
:100BB0000E94A9056B017C010E94A9056C197D09A1
:100BC0008E099F09683E734081059105A8F321E0D5
:100BD000821A9108A108B10888EEC80E83E0D81ED9
:100BE000E11CF11C81149104A104B10429F7FF90C8
:100BF000EF90DF90CF90BF90AF909F908F9008952F
:100C0000089520918503260F3327331F21323105A4
:100C1000ECF420910A04FC0190E080E0243069F0BB
:100C200082E00895A09185032191AC014B595C4F5E
:100C3000A40FB52FB11D2C930196861798F38091C0
:100C40008503680F6093850380E0089581E008952F
:100C500010920A0481E0809309041092E40361E099
:100C600084E10E94E00361E085E10E94E003E9EB9A
:100C7000F0E080818E7F808380818D7F808388E417
:100C80008093B80085E48093BC000895CF93DF93F0
:100C900091E0909364038823B9F0C091B800D0919B
:100CA000BA008091BC008A7B8093BC0060E084E144
:100CB0000E94E00360E085E10E94E0030E942806B4
:100CC000D093BA00C093B800DF91CF910895CF922E
:100CD000DF92EF92FF920F931F93CF93DF93D09108
:100CE000330481E0D13208F09CC0C09132040E94EC
:100CF000A9056B017C0180910A0481116CC082E01E
:100D000080930A0481E0809309048FEF80930804A4
:100D100010920704D0930604A2E1B4E0E6EEF3E0FB
:100D200080E0D8138DC01092E5038091E503CC0FCD
:100D3000C82BC093E5038091E403813009F084C09F
:100D40001092E4030E94A9056B017C018091E503E8
:100D50008093BB0080910C0490910D04A0910E042F
:100D6000B0910F04892B8A2B8B2BA1F00E94A9052F
:100D700000910C0410910D0420910E0430910F0489
:100D80006C197D098E099F0906171707280739076F
:100D900008F442C08091BC0083FDD8CF85EC8093DD
:100DA000BC000E94A9056B017C0180910A0482307D
:100DB00009F44CC0809108048F3F09F469C0809108
:100DC0000804803209F466C080910804803309F475
:100DD00063C084E026C080910C0490910D04A09122
:100DE0000E04B0910F04892B8A2B8B2B09F483CF2F
:100DF0000E94A90500910C0410910D0420910E048D
:100E000030910F046C197D098E099F090617170789
:100E10002807390708F06FCF80910B040E9446061F
:100E200085E0109211041092330410921004DF91A7
:100E3000CF911F910F91FF90EF90DF90CF90089589
:100E40009D9191938F5F6DCF85EEA9CF80910C041A
:100E500090910D04A0910E04B0910F04892B8A2B60
:100E60008B2B09F4A2CF0E94A90500910C041091CC
:100E70000D0420910E0430910F046C197D098E0928
:100E80009F09061717072807390708F08ECFC4CF28
:100E900080E0C7CF82E0C5CF83E0C3CF0895E09163
:100EA000B2038091B103E81730F4F0E0ED54FC4F49
:100EB000808190E008958FEF9FEF08959091B203A5
:100EC0008091B1032FEF3FEF981748F4E92FF0E03E
:100ED000ED54FC4F208130E09F5F9093B203C90135
:100EE00008958091B1039091B203891B990B0895E5
:100EF000CF92DF92EF92FF920F931F93CF93DF93E6
:100F00007C01CB018A0120911004222389F0EB019E
:100F10006B01C40ED51ECC15DD0569F06991D701B2
:100F2000ED91FC910190F081E02DC7011995F3CF6F
:100F3000642F0E940106C801DF91CF911F910F918C
:100F4000FF90EF90DF90CF900895CF93DF931F92A3
:100F5000CDB7DEB76983209110042223F9F02091E8
:100F60003304203258F021E030E0FC013383228347
:100F700090E080E00F90DF91CF910895809111046F
:100F8000E82FF0E0EE5EFB4F998190838F5F8093B6
:100F900011048093330481E090E0ECCF61E0CE0156
:100FA00001960E940106F7CF90E080E00895CF936C
:100FB000DF93EC0160E08E810E94E00361E08E81AE
:100FC0000E94E00360E08E810E94E0038BE891E0E4
:100FD0000197F1F7DF91CF910895CF92DF92EF92D1
:100FE000FF920F931F93CF93DF936C017C0187E0F7
:100FF000E80EF11CD0E0C0E0062F10E0B8010C2E86
:1010000002C0759567950A94E2F76170F7018191C6
:101010007F010E94E0032196C430D10579F7C60113
:10102000DF91CF911F910F91FF90EF90DF90CF90C4
:101030000C94D707CF92DF92EF92FF920F931F93FA
:10104000CF93DF93EC01F62E642F8C810E94E00396
:101050008D818F3F19F060E00E94E0030F2D10E0BA
:101060008F8584FF25C06E0187E0C80ED11CF12C4E
:10107000E12CB8010E2C02C0759567950A94E2F731
:101080006170F60181916F010E94E003FFEFEF1A9A
:10109000FF0A88E0E816F10461F7CE01DF91CF91F5
:1010A0001F910F91FF90EF90DF90CF900C94D70796
:1010B000B80184E0759567958A95E1F7CE010E94A5
:1010C000ED076F2DCE01DF91CF911F910F91FF9012
:1010D000EF90DF90CF900C94ED0740E0682F81EE09
:1010E00094E00C941A0881E00E946D088BE39FE164
:1010F0000197F1F70895CF93DF93613029F0909134
:10110000F00498609093F0046093F4041092F50456
:1011100090E49093F6048093F704805C8093F80445
:1011200061E08091E5040E9412048091E6048F3F03
:1011300019F061E00E94120461E08091E7040E94CE
:101140001204C1EED4E09E01215E34408091F0048F
:1011500084FD0BC084E090E021962817390744F401
:1011600061E08E810E941204EECF88E090E0F4CF1F
:101170008BE39DE00197F1F760E08091E5040E9428
:10118000E00360E08091E7040E94E0038091E604C0
:101190008F3F19F060E00E94E0038091F00484FD2D
:1011A00034C063E081EE94E00E94ED07CBE4D6E426
:1011B000CE010197F1F763E081EE94E00E94ED0724
:1011C0002197F1F763E081EE94E00E94ED0783E55B
:1011D00092E00197F1F762E081EE94E00E94ED0762
:1011E0008091F00480620E946D0884E08093F10495
:1011F0008CE00E946D080E94730882E08093F204E4
:1012000086E0DF91CF910C946D0880620E946D089A
:101210008BE496E40197F1F78091F00480620E94DC
:101220006D0883E592E00197F1F78091F004806208
:101230000E946D08D5CF9091F404891710F08FEFBC
:10124000890FE82FF0E0EF51FB4F848980680C9400
:101250006D0841E00E941A0881E090E00895FB01CA
:1012600001900020E9F73197AF01461B570BDC01D5
:10127000ED91FC910280F381E02D19948F929F9261
:10128000AF92BF920F931F93CF93DF93CDB7DEB78B
:10129000A1970FB6F894DEBF0FBECDBF19A24230A2
:1012A00008F44AE08E010F5D1F4F842E912CB12C63
:1012B000A12CA50194010E94D611E62FB901CA0103
:1012C000EA3004F5E05DD801EE938D01232B242B49
:1012D000252B79F790E080E0109729F0BD0181EE91
:1012E00094E00E942F09A1960FB6F894DEBF0FBEBE
:1012F000CDBFDF91CF911F910F91BF90AF909F9085
:101300008F900895E95CDFCFCF92DF92EF92FF924A
:101310006B017C0141E06DE281EE94E00E941A08CD
:1013200066277727CB016C197D098E099F094AE052
:101330000E943E090196FF90EF90DF90CF900895B4
:1013400067E572E00C942F09CF93DF93BC0181EE27
:1013500094E00E942F09EC0181EE94E00E94A00924
:101360008C0F9D1FDF91CF9108950C942F09813030
:10137000910571F02CF46AE572E0892B59F008951B
:101380008230910559F068E772E0039719F00895EB
:1013900063E672E081EE94E00C94B5096DE672E0CC
:1013A000F9CFCF92DF92EF92FF920F931F93CF93DB
:1013B000DF9364E084E10E947B080E947308C12CE3
:1013C000D12C7601C394D0E0C0E08C2F0E941B0981
:1013D0008E010F5F1F4F4AE0C701B6010E943E0910
:1013E00061E872E081EE94E00E94B509CE010E94AE
:1013F000B70981EE94E00E94A0098FEFC81AD80ABD
:10140000E80AF80AE80104301105F9F6DF91CF91F6
:101410001F910F91FF90EF90DF90CF90089585ED91
:101420008093BC0080910C0490910D04A0910E0457
:10143000B0910F040796A11DB11D23E0B695A795A5
:10144000979587952A95D1F72091BC0024FD03C07C
:1014500010920A04089540910C0450910D0460917B
:101460000E0470910F04452B462B472B69F3009710
:10147000A105B10541F025E32A95F1F70000019798
:10148000A109B109E1CF80910B040C9446061F928B
:101490000F920FB60F9211240BB60F922F933F931A
:1014A0004F935F936F937F938F939F93AF93BF936C
:1014B000EF93FF9388E394E00E948D02FF91EF91F8
:1014C000BF91AF919F918F917F916F915F914F915C
:1014D0003F912F910F900BBE0F900FBE0F901F905A
:1014E00018951F920F920FB60F9211240BB60F9200
:1014F0002F938F939F93EF93FF93E0914804F09184
:1015000049048081E0914E04F0914F0482FD1DC09A
:101510009081809151048F5F8F73209152048217C4
:1015200041F0E0915104F0E0E85CFB4F958F80932F
:101530005104FF91EF919F918F912F910F900BBECE
:101540000F900FBE0F901F9018958081F2CF1F92C1
:101550000F920FB60F9211242F933F938F939F9367
:10156000AF93BF938091340490913504A0913604D9
:10157000B09137043091A80323E0230F2D3758F59D
:101580000196A11DB11D2093A8038093340490936C
:101590003504A0933604B09337048091A903909149
:1015A000AA03A091AB03B091AC030196A11DB11D9C
:1015B0008093A9039093AA03A093AB03B093AC03C9
:1015C000BF91AF919F918F913F912F910F900FBE3F
:1015D0000F901F90189526E8230F0296A11DB11DAC
:1015E000D2CF1F920F920FB60F9211240BB60F920B
:1015F0002F933F934F935F936F937F938F939F931B
:10160000AF93BF93EF93FF938091B900887F8036AB
:1016100009F44DC008F040C0883209F4A9C028F58B
:10162000803109F49DC0C8F4882309F4FBC08830D8
:1016300009F496C0FF91EF91BF91AF919F918F9167
:101640007F916F915F914F913F912F910F900BBEC2
:101650000F900FBE0F901F901895883109F488C025
:10166000803241F78093080414C0803409F49DC08F
:1016700040F48033B9F38833E9F68093080485ECAD
:10168000B0C0803509F485C0883509F496C0883427
:1016900089F60E940F0ACECF883909F48CC038F53C
:1016A000883729F050F4883611F0803719F683E036
:1016B00080930A041092A70357C0883809F47BC0AE
:1016C000803919F0803809F0B5CF8091A7038032B6
:1016D00008F071C0E091A70381E08E0F8093A7030B
:1016E0008091BB00F0E0E957FC4F80833DC0803B18
:1016F00039F0E0F4803A09F479C0883A09F09ACFD9
:1017000084E080930A041092860310928503E0918E
:10171000AF03F091B00319958091850381110FC03B
:1017200081E0809385031092650309C0803C09F431
:10173000A6CF883C09F4A3CF883B09F07BCFE0918A
:10174000860381E08E0F80938603F0E0EB59FC4F17
:1017500080818093BB00909186038091850329C08E
:101760008091E5038093BB0085EC8093BC0062CF41
:101770009091070480910604981758F5E0910704AA
:1017800081E08E0F80930704F0E0EA51FC4F8081E6
:10179000E9CFE091070481E08E0F809307048091E8
:1017A000BB00F0E0EA51FC4F8083909107048091E8
:1017B00006049817C8F285E8D8CFE091070481E0C5
:1017C0008E0F809307048091BB00F0E0EA51FC4F3C
:1017D00080838091090481115CCF81E08093E403D0
:1017E00084EA8093BC0010920A0424CF85EC809395
:1017F000BC0010920A048091A703803230F4E0917B
:10180000A703F0E0E957FC4F10826091A70370E056
:10181000E091AD03F091AE0387E893E01995109243
:10182000A70308CF1092080434CF10923B04109203
:101830003A0488EE93E0A0E0B0E080933C049093FB
:101840003D04A0933E04B0933F0421E232E0309384
:1018500039042093380425EC30E03093450420937C
:10186000440424EC30E0309347042093460420ECF9
:1018700030E0309349042093480421EC30E0309369
:101880004B0420934A0422EC30E030934D04209323
:101890004C0426EC30E030934F0420934E04109219
:1018A0005104109252041092530410925404109256
:1018B000D8041092D7048093D9049093DA04A093AB
:1018C000DB04B093DC0483E392E09093D60480932E
:1018D000D5041092FB041092FF041092FE041092A3
:1018E000000581E592E09093FA048093F904E5E124
:1018F000F5E01082148213821582369685E0E13578
:10190000F807B9F785E092E090935C0580935B055A
:1019100082E092E090935E0580935D0594E0909361
:101920005F0583E08093600529E032E030935A053B
:10193000209359052AE030E0309362052093610539
:1019400024EF31E03093640520936305109267051E
:101950001092660510925505109256051092570583
:1019600010925805109265051092E4041092E30459
:1019700025E432E03093E2042093E1042CE020934C
:10198000E5042FEF2093E6042AE02093E70425E006
:101990002093E8049093E9048093EA0482E0809322
:1019A000EB041092EC041092ED041092EE041092ED
:1019B000EF041092F00461E080E10C947B087894CD
:1019C00084B5826084BD84B5816084BD85B5826044
:1019D00085BD85B5816085BD80916E0081608093F5
:1019E0006E0010928100809181008260809381005E
:1019F000809181008160809381008091800081606E
:101A0000809380008091B10084608093B1008091C8
:101A1000B00081608093B0008091910082608093DB
:101A2000910080919100816080939100809190005D
:101A30008160809390008091A10082608093A100DA
:101A40008091A10081608093A1008091A0008160BD
:101A50008093A00080912101826080932101809178
:101A60002101816080932101809120018160809318
:101A7000200180917A00846080937A0080917A00BE
:101A8000826080937A0080917A00816080937A00EE
:101A900080917A00806880937A001092C100C5E13D
:101AA000D2E09DE1E92E92E0F92EEC16FD0659F008
:101AB0001881229661E0812F0E94120460E0812F3C
:101AC0000E94E003F2CF1092B2031092B103109281
:101AD0001104109233040E94280687E192E090934B
:101AE000B0038093AF0388E192E09093AE038093BC
:101AF000AD03E0914804F091490482E08083E091D5
:101B00004404F09145041082E0914604F0914704AA
:101B10008FEC808310925004E0914C04F0914D04BE
:101B200086E08083E0914A04F0914B0480818061DB
:101B30008083E0914A04F0914B0480818860808327
:101B4000E0914A04F0914B04808180688083E091A9
:101B50004A04F0914B0480818F7D8083C5E0D2E000
:101B600009E012E00C171D0781F4C2E0D2E005E0A5
:101B700012E00C171D07A1F061E088810E94120499
:101B800061E089910E94E003F4CF61E089910E94B5
:101B90001204FE01319761E080810E94E003E2CFF0
:101BA0000E94D109F3EDCF2EF3E0DF2EA4E09A2EB0
:101BB000B0E58B2E07ED13E0C4E1EC2EC3E0FC2E64
:101BC000D5EE6D2E85EC782E0E945204882309F400
:101BD0006DC09091E30391110CC1C82F880FDD0BEC
:101BE000E197C430D10508F04DC20E94730864E843
:101BF00072E081EE94E00E94B509CE010E94B7091F
:101C000081EE94E00E94A00981E00E941B098FE808
:101C100092E00E94A40982E00E941B0963EA72E03C
:101C200081EE94E00E94B509D0930102C0930002B6
:101C300081E08093E3030E9452048823E1F3682F3C
:101C4000880F770B6F527109072E000C880B990BC8
:101C50000E944A112DEC3CEC4CE45EE30E94A5107E
:101C60000E9412118091000290910102EC01CC0FB0
:101C7000DD1FFE01E552FC4F843091050CF4B5C028
:101C800060E086E10E94E00360E087E10E94E003FB
:101C900060E088E10E94E00360E089E10E94E003E7
:101CA000CB5EDD4F61E088810E94E0038091E30319
:101CB000882309F4E7C18091000290910102049702
:101CC0000CF00EC2F601892D11928A95E9F76BECA2
:101CD00072E088E394E00E94B50981E080931004EB
:101CE00080923204109211041092330461E085ED69
:101CF00094E00E94A50769E585ED94E00E94A507A0
:101D00000E9467066AE070E080E090E00E94CE05E5
:101D10000E94A9051B012C0180910A04811183C036
:101D200081E080930A04809309049FEF9093080454
:101D300010920704E3E0E09306048093E5038091AA
:101D4000E503806A8093E5038091E403813009F024
:101D50009CC11092E4030E94A9051B012C018091F3
:101D6000E5038093BB0080910C0490910D04A09139
:101D70000E04B0910F04892B8A2B8B2BA1F00E94AB
:101D8000A90520910C0430910D0440910E0450914E
:101D90000F04621973098409950926173707480744
:101DA000590708F461C08091BC0083FDD8CF7092C0
:101DB000BC000E94A9051B012C0180910A048130FE
:101DC00009F466C180910704843008F083C18091D2
:101DD0000704A6EEB3E0E3EBF3E090E0981709F414
:101DE00048C02D9121939F5FF9CF61937193019624
:101DF00043CF833209F05FCF0E94730880E00E94D6
:101E00001B098BEA92E00E94A40981E00E941B0951
:101E100088EB92E00E94A4090E9452048823E1F317
:101E20008332D1F743CF80910C0490910D04A0919F
:101E30000E04B0910F04892B8A2B8B2B09F46CCFE5
:101E40000E94A90520910C0430910D0440910E04CC
:101E500050910F04621973098409950926173707F1
:101E60004807590708F058CF80910B040E94460696
:101E700080E01092B2038093B10353EDA52E53E09E
:101E8000B52EE50185ED94E00E945E078993F3E0AD
:101E9000C73DDF07B9F762EE72E088E394E00E9485
:101EA000B509F50161915F0188E394E00E94AF02FA
:101EB000CA15DB05B1F788E394E00E94A0090E94EF
:101EC000730880E00E941B096AEE72E081EE94E0E4
:101ED0000E94B50980910002909101020E94B70909
:101EE00081E00E941B09E0910002F0910102EE0FD7
:101EF000FF1FE552FC4F60817181072E000C880B9B
:101F0000990B97FFE9C00E94840984EF92E00E9438
:101F1000A40982E00E941B0983E093E00E94A409C7
:101F2000E0910002F0910102EE0FFF1FE552FC4F1D
:101F30008081918101979183808368EE73E080E0D6
:101F400090E00E94CE05F801892D11928A95E9F75B
:101F50008091E2038F938091E1038F938091E0035E
:101F60008F938091DF038F938091DE038F93809115
:101F7000DD038F938091DC038F938091DB038F933C
:101F8000FF92EF921F930F930E9400126DE173E096
:101F900088E394E00E94B50981E080931004809268
:101FA0003204109211041092330461E085ED94E044
:101FB0000E94A50769E585ED94E00E94A50737ED2D
:101FC000A32E33E0B32EEDB7FEB73C960FB6F894D0
:101FD000FEBF0FBEEDBFE501699185ED94E00E9463
:101FE000A507F3E0CB3DDF07B9F70E9467066AE07B
:101FF00070E080E090E00E94CE0562E373E088E349
:1020000094E00E94B509F50161915F0188E394E0D5
:102010000E94AF02CA15DB05B1F788E394E00E9485
:10202000A009C0910002D0910102FE01EE0FFF1F36
:10203000E552FC4F80819181181619061CF168EC5D
:1020400070E080E090E00E94CE052196D0930102DE
:10205000C093000260E086E10E94E00360E087E157
:102060000E94E00360E088E10E94E00360E089E113
:102070000E94E003CC0FDD1FCB5EDD4F61E0888165
:102080000E94E0030E941C039FCD6092BC0091CE91
:1020900080910C0490910D04A0910E04B0910F0456
:1020A000892B8A2B8B2B09F488CE0E94A9052091BD
:1020B0000C0430910D0440910E0450910F046219EC
:1020C000730984099509261737074807590708F047
:1020D00074CECACE84E07DCE4AE00E943E0915CF80
:1020E0000E94730880E00E941B098BE393E00E942A
:1020F000A40981E00E941B098DE493E00E94A409D9
:102100001092E30361E086E10E94E00361E087E171
:102110000E94E00361E088E10E94E00361E089E160
:102120000E94E0030E9452048823E1F3833219F4F1
:102130000E94D109A7CF0E94730880E00E941B096A
:102140008EE593E00E94A4099DCF5058BB27AA2793
:102150000E94BD100C949C110E948E1138F00E94B8
:10216000951120F039F49F3F19F426F40C948B114B
:102170000EF4E095E7FB0C948511E92F0E94AD1158
:1021800058F3BA17620773078407950720F079F4AC
:10219000A6F50C94CF110EF4E0950B2EBA2FA02DBE
:1021A0000B01B90190010C01CA01A0011124FF2704
:1021B000591B99F0593F50F4503E68F11A16F040FF
:1021C000A22F232F342F4427585FF3CF46953795FE
:1021D0002795A795F0405395C9F77EF41F16BA0BC3
:1021E000620B730B840BBAF09150A1F0FF0FBB1F71
:1021F000661F771F881FC2F70EC0BA0F621F731FBA
:10220000841F48F4879577956795B795F7959E3F16
:1022100008F0B0CF9395880F08F09927EE0F9795A7
:10222000879508950E9419116894B1110C94D011EA
:1022300008950E94B51188F09F5798F0B92F9927FB
:10224000B751B0F0E1F0660F771F881F991F1AF0A1
:10225000BA95C9F714C0B13091F00E94CF11B1E026
:1022600008950C94CF11672F782F8827B85F39F025
:10227000B93FCCF3869577956795B395D9F73EF43A
:1022800090958095709561957F4F8F4F9F4F0895E2
:10229000E89409C097FB3EF4909580957095619500
:1022A0007F4F8F4F9F4F9923A9F0F92F96E9BB27B6
:1022B0009395F695879577956795B795F111F8CF32
:1022C000FAF4BB0F11F460FF1BC06F5F7F4F8F4F9D
:1022D0009F4F16C0882311F096E911C0772321F093
:1022E0009EE8872F762F05C0662371F096E8862F2B
:1022F00070E060E02AF09A95660F771F881FDAF782
:10230000880F9695879597F9089597F99F6780E8C4
:1023100070E060E008959FEF80EC089500240A9437
:102320001616170618060906089500240A941216B0
:102330001306140605060895092E0394000C11F4E3
:10234000882352F0BB0F40F4BF2B11F460FF04C090
:102350006F5F7F4F8F4F9F4F089557FD9058440FE9
:10236000551F59F05F3F71F04795880F97FB991FF4
:1023700061F09F3F79F087950895121613061406B1
:10238000551FF2CF4695F1DF08C01616170618063E
:10239000991FF1CF86957105610508940895E89419
:1023A000BB2766277727CB0197F90895A1E21A2E5C
:1023B000AA1BBB1BFD010DC0AA1FBB1FEE1FFF1FE9
:1023C000A217B307E407F50720F0A21BB30BE40B39
:1023D000F50B661F771F881F991F1A9469F7609580
:1023E0007095809590959B01AC01BD01CF0108953A
:1023F000EE0FFF1F881F8BBF0790F691E02D1994F9
:102400000F931F93CF93DF93CDB7DEB72E970FB601
:10241000F894DEBF0FBECDBF0E891F8986E08C8386
:102420001A8309838FEF9FE79E838D83AE01465EFB
:102430005F4F688D798DCE0101960E9430122F81F9
:102440003885020F131FF80110822E960FB6F894EC
:10245000DEBF0FBECDBFDF91CF911F910F910895C9
:102460002F923F924F925F926F927F928F929F92A4
:10247000AF92BF92CF92DF92EF92FF920F931F9392
:10248000CF93DF9300D000D000D01F921F92CDB722
:10249000DEB77C013B018A01FC0117821682838131
:1024A00081FFDDC1CE0101965C01F7019381F3014B
:1024B00093FD859193FF81913F01882309F453C1D6
:1024C000853239F493FD859193FF81913F018532E7
:1024D00029F4B70190E00E944814E7CF912C212CF9
:1024E000312CFFE1F31538F08B3211F190F480328A
:1024F00009F1833229F137FC3CC020ED280F2A3046
:1025000050F536FE20C08AE0989E200D1124922EB0
:1025100006C08D3291F0803371F7689430F8F30182
:1025200093FD859193FF81913F018111DACF21C005
:10253000689431F8689432F8F2CF689433F8EFCFAA
:10254000689434F8ECCFEAE02E9E200D1124222E60
:10255000689435F8E4CF8E3229F436FC04C16894CF
:1025600036F8DDCF8C3619F4689437F8D8CF883632
:10257000B1F2982F9F7D95549330E0F08336A1F10E
:102580008337C1F1833509F063C02801F2E04F0EB3
:10259000511CF801C080D180692D70E036FC02C06A
:1025A0006FEF7FEFC6010E9432144C01689437F838
:1025B00082010AC00C5F1F4FFFE3F98388248394D4
:1025C000912C6501E89437F833FE2DC0522C81140C
:1025D000910471F5552009F468CFB70180E290E0CD
:1025E0000E9448145A94F6CFF801808189830E5FC7
:1025F0001F4FE4CF2801F2E04F0E511CF801C080BC
:10260000D180692D70E036FC02C06FEF7FEFC6010C
:102610000E943D144C018201D5CFB70180E290E0C9
:102620000E9448142A942814190409F0B0F7CECF58
:10263000F60137FC859137FE81916F01B70190E07B
:102640000E94481451105A94F1E08F1A9108BFCF9C
:10265000843619F0893609F077C0F80137FE6BC06F
:1026600060817181828193810C5F1F4FF32DFF7612
:102670003F2E97FF09C090958095709561957F4F8B
:102680008F4F9F4F689437F82AE030E0A5010E94F1
:102690007814C82ECA188C2C432C36FE0CC0E89433
:1026A00040F8C91440F434FE05C032FC03C0F32DD9
:1026B000FE7E4F2E892C44FEAAC0FE01EC0DF11DBA
:1026C0008081803309F09CC0242D297E422E842DE8
:1026D0008870582E43FCAAC040FEA4C09C2C8214D3
:1026E00018F42C0C922C981844FEA6C0B70180E375
:1026F00090E00E94481442FE09C088E790E041FE45
:1027000002C088E590E0B7010E944814C91408F49B
:102710009FC0CA94D12C9FEFC91AD90ACA0CDB1CDE
:10272000F60182916F01B70190E00E944814AC1449
:10273000BD04B1F74FCF60817181072E000C880B6B
:10274000990B0E5F1F4F92CFD32CE894D4F82AE058
:1027500030E08537E1F1232D297FD22E8F36A9F184
:10276000F0F4883551F1F701868197812B960FB6E9
:10277000F894DEBF0FBECDBFDF91CF911F910F91B7
:10278000FF90EF90DF90CF90BF90AF909F908F9091
:102790007F906F905F904F903F902F90089580377B
:1027A00049F0883701F7D4FE02C06894D2F820E1DE
:1027B00030E00DC06894D4F8F6CF34FE03C0822F09
:1027C0008660D82E20E132E002C028E030E0F80137
:1027D000D7FE0FC060817181828193810C5F1F4F92
:1027E000A5010E947814C82ECA183D2CE89437F829
:1027F00052CF6081718190E080E00E5F1F4FF0CF7B
:1028000042FC02C0839463CF8394839460CF842D71
:10281000867809F45CCFF6CFB70180E290E00E94A1
:10282000481483948214C0F3512C5ECF522C581854
:10283000821408F459CFF8CF842D867809F466CF36
:102840008BE241FE80E247FC8DE2B70190E05CCF75
:10285000B70180E390E00E9448149A9457CF8FEF1D
:102860009FEF84CFFC010590615070400110D8F7B4
:10287000809590958E0F9F1F0895FC0161507040C8
:1028800001900110D8F7809590958E0F9F1F0895A5
:102890000F931F93CF93DF93182F092FEB018B8199
:1028A00081FD09C01FEF0FEF812F902FDF91CF9196
:1028B0001F910F91089582FF14C02E813F818C815A
:1028C0009D81281739073CF4E881F981CF010196F1
:1028D0009983888310838E819F8101969F838E8345
:1028E000E3CFE885F985812F1995892BA1F3DACFFC
:1028F000FA01AA27283051F1203181F1E8946F9331
:102900006E7F6E5F7F4F8F4F9F4FAF4FB1E03ED0D6
:10291000B4E03CD0670F781F891F9A1FA11D680F74
:10292000791F8A1F911DA11D6A0F711D811D911DA7
:10293000A11D20D009F468943F912AE0269F11241C
:102940003019305D3193DEF6CF010895462F477080
:10295000405D4193B3E00FD0C9F7F6CF462F4F70DB
:10296000405D4A3318F0495D31FD4052419302D039
:10297000A9F7EACFB4E0A6959795879577956795DF
:10298000BA95C9F700976105710508959B01AC01DF
:102990000A2E06945795479537952795BA95C9F706
:1029A000620F731F841F951FA01D0895F894FFCF19
:1029B000FFFF1A1B1C1D1E1F2031323334353637E2
:1029C00038392A30231600170018001900000000BB
:1029D00000AF0219024602FC0277025502690200AA
:1029E000000000A5077807D4074E0771075E074F60
:1029F000070000000029091902D4070006000000A2
:102A0000004E040E04DD030D0A005072652D57615F
:102A1000736800546964652D576173680057617469
:102A200065722D57617368004472792D5761736820
:102A3000002E200053656C65637465643A2000467F
:102A40006F7220486F77204C6F6E673F2028302DC3
:102A500039290056616C75653A2000576F726B20FA
:102A600068616C7465642E00507265737320232056
:102A7000746F20726573756D652E005265616469AF
:102A80006E672066726F6D20454550524F4D2E2E59
:102A90002E0020526561643A200043757272656EA3
:102AA000743A2000732072656D61696E696E672EDD
:102AB0002E2E005072657373202320746F20686F70
:102AC0006C642E00256425642564256400577269B2
:102AD00074696E6720746F20454550524F4D2E2EFD
:102AE0002E002057726F74653A200046696E697334
:102AF00068656420576F726B696E672E005072654F
:102B00007373202320666F72204D656E75004279C5
:042B1000652E00002E
:020000040003F7
:10E000000D9489F10D94B2F10D94B2F10D94B2F129
:10E010000D94B2F10D94B2F10D94B2F10D94B2F1F0
:10E020000D94B2F10D94B2F10D94B2F10D94B2F1E0
:10E030000D94B2F10D94B2F10D94B2F10D94B2F1D0
:10E040000D94B2F10D94B2F10D94B2F10D94B2F1C0
:10E050000D94B2F10D94B2F10D94B2F10D94B2F1B0
:10E060000D94B2F10D94B2F10D94B2F10D94B2F1A0
:10E070000D94B2F10D94B2F10D94B2F10D94B2F190
:10E080000D94B2F10D94B2F10D94B2F10D94B2F180
:10E090000D94B2F10D94B2F10D94B2F10D94B2F170
:10E0A0000D94B2F10D94B2F10D94B2F10D94B2F160
:10E0B0000D94B2F10D94B2F10D94B2F10D94B2F150
:10E0C0000D94B2F10D94B2F10D94B2F10D94B2F140
:10E0D0000D94B2F10D94B2F10D94B2F10D94B2F130
:10E0E0000D94B2F141546D656761323536300041AF
:10E0F000726475696E6F206578706C6F72657220DE
:10E1000073746B3530305632206279204D4C530099
:10E11000426F6F746C6F616465723E004875683F52
:10E1200000436F6D70696C6564206F6E203D200048
:10E130004350552054797065202020203D20005FF9
:10E140005F4156525F415243485F5F3D2000415658
:10E1500052204C696243205665723D20004743437C
:10E160002056657273696F6E203D20004350552024
:10E1700049442020202020203D20004C6F7720663D
:10E18000757365202020203D20004869676820665F
:10E190007573652020203D200045787420667573D6
:10E1A00065202020203D20004C6F636B2066757336
:10E1B000652020203D20004D617220203720323024
:10E1C000313300312E362E3800342E332E350056A2
:10E1D00023202020414444522020206F7020636F70
:10E1E00064652020202020696E73747275637469E1
:10E1F0006F6E2061646472202020496E74657272B3
:10E20000757074006E6F20766563746F7200726A49
:10E210006D702020006A6D70200057686174207056
:10E220006F72743A00506F7274206E6F7420737541
:10E2300070706F72746564004D7573742062652030
:10E2400061206C6574746572002000577269747483
:10E25000696E672045450052656164696E672045B7
:10E26000450045452065727220636E743D00504F35
:10E27000525400303D5A65726F2061646472003FF1
:10E280003D43505520737461747300403D454550C3
:10E29000524F4D207465737400423D426C696E6B41
:10E2A000204C454400453D44756D70204545505215
:10E2B0004F4D00463D44756D7020464C415348001B
:10E2C000483D48656C70004C3D4C69737420492F83
:10E2D0004F20506F72747300513D51756974005234
:10E2E0003D44756D702052414D00563D73686F7707
:10E2F00020696E7465727275707420566563746FF0
:10E30000727300593D506F727420626C696E6B00BD
:10E310002A0011241FBECFEFD1E2DEBFCDBF01E046
:10E320000CBF12E0A0E0B2E0EEE1FDEF03E00BBFB6
:10E3300002C007900D92A030B107D9F712E0A0E01B
:10E34000B2E001C01D92AE30B107E1F70F9460F367
:10E350000D948DFE01E20EBF0FEF0DBF11241FBE05
:10E360000D9460F30D9400F020E030E040ED57E0B4
:10E3700005C0FA013197F1F72F5F3F4F2817390792
:10E38000C0F308959C01260F311DC901A0E0B0E043
:10E390002F5F3F4FABBFFC018791882361F08093D3
:10E3A000C6008091C00086FFFCCF8091C0008064D1
:10E3B0008093C000EACF08958DE08093C6008091DD
:10E3C000C00086FFFCCF8091C00080648093C000B5
:10E3D0008AE08093C6008091C00086FFFCCF8091C8
:10E3E000C00080648093C00008950F94C2F10F9420
:10E3F000DCF10895FC019081992359F09093C600B7
:10E400008091C00086FFFCCF8091C0008064809323
:10E41000C0003196992379F70895282F982F929567
:10E420009F70892F805D8A3308F0895F8093C600D2
:10E430008091C00086FFFCCF8091C00080648093F3
:10E44000C000822F8F70982F905D9A3308F0995FEB
:10E450009093C6008091C00086FFFCCF8091C000E1
:10E4600080648093C00008959C01FB01853691056E
:10E470001CF46330710594F0C90164E670E00F94F8
:10E480002EFE605D7F4F6093C6008091C00086FFC6
:10E49000FCCF8091C00080648093C0002B30310598
:10E4A00014F43297B4F0C90164E670E00F942EFEC4
:10E4B0006AE070E00F942EFE605D7F4F6093C600AF
:10E4C0008091C00086FFFCCF8091C0008064809363
:10E4D000C000C9016AE070E00F942EFEC0968093E0
:10E4E000C6008091C00086FFFCCF8091C000806490
:10E4F0008093C00008951F93182F8EE692EE60E07F
:10E500000F94C2F11093C6008091C00086FFFCCF2B
:10E510008091C00080648093C0000F94DCF11F9153
:10E5200008952F923F924F925F926F927F928F92B7
:10E530009F92AF92BF92CF92DF92EF92FF920F9392
:10E540001F93DF93CF93CDB7DEB762970FB6F894E2
:10E55000DEBF0FBECDBF382E622ECA01DB015C01CB
:10E560006D01772420E2222E2E010894411C511CBB
:10E570008BC081E0A81680E0B80681E0C80680E084
:10E58000D80628F0C601AA27BB270F940DF2BB2797
:10E59000AD2D9C2D8B2D0F940DF28A2D0F940DF225
:10E5A0002092C6008091C00086FFFCCF8091C00001
:10E5B00080648093C0009DE29093C6008091C0006B
:10E5C00086FFFCCF8091C00080648093C0002092C1
:10E5D000C6008091C00086FFFCCF8091C00080649F
:10E5E0008093C00019828601750188249924A1E0D6
:10E5F0003A1651F03A1620F0B2E03B1661F409C029
:10E600000BBFF701779007C0C7010F9477FE782EF4
:10E6100002C0F7017080872D0F940DF22092C60082
:10E620008091C00086FFFCCF8091C0008064809301
:10E63000C000872D8052F401EF70F0708F3520F408
:10E64000E40DF51D708204C0E40DF51D8EE280839B
:10E650000894E11CF11C011D111D0894811C911CE2
:10E6600090E18916910409F0C2CF80E190E0A0E02A
:10E67000B0E0A80EB91ECA1EDB1E198AC2010F9493
:10E68000FAF10F94DCF16A94662009F072CF629679
:10E690000FB6F894DEBF0FBECDBFCF91DF911F91B3
:10E6A0000F91FF90EF90DF90CF90BF90AF909F9031
:10E6B0008F907F906F905F904F903F902F90089534
:10E6C0002F923F924F925F926F927F928F929F9282
:10E6D000AF92BF92CF92DF92EF92FF920F931F9370
:10E6E000DF93CF93CDB7DEB7CD53D1400FB6F894BB
:10E6F000DEBF0FBECDBF01E20EBF0FEF0DBF94B75F
:10E70000F894A89514BE80916000886180936000A1
:10E7100010926000789493FF05C0E0910002F091A0
:10E7200001021995279A2F9A8091C00082608093E8
:10E73000C00080E18093C40088E18093C1000000A4
:10E74000EE24FF24870144E0A42EB12CCC24DD2448
:10E7500024C0C5010197F1F70894E11CF11C011DCB
:10E76000111D21E2E2162EE4F20620E0020720E06D
:10E77000120718F031E0C32ED12CC801B70127ECE5
:10E780003BE140E050E00F9441FE611571058105C9
:10E79000910519F485B1805885B98091C00087FD35
:10E7A00003C0C114D104A9F2A6014F5F5F4FC25E3E
:10E7B000DE4F59834883CE51D140C25EDE4F8881FF
:10E7C0009981CE51D140019711F00D9410FEC05D9A
:10E7D000DE4F19821882C053D14060E0C15DDE4F28
:10E7E0001882CF52D14088249924C35DDE4F19820C
:10E7F0001882CD52D140C05EDE4F188219821A8233
:10E800001B82C052D140CE5CDE4F188219821A8220
:10E810001B82C253D140EE24FF2487010BBFF701B6
:10E8200007911691C45CDE4F19830883CC53D14005
:10E830000D940BFEC25EDE4F28813981CE51D1404E
:10E840002130310509F52091C600C25EDE4F1982E4
:10E850001882CE51D14022C02F5F3F4F4F4F5F4FA4
:10E86000213082E138078AE7480780E0580780F0C6
:10E87000C45CDE4FE881F981CC53D140EF5FFF4F9C
:10E8800019F0EE27FF27099420E030E040E050E047
:10E890008091C00087FFE0CF2091C600C35DDE4FAE
:10E8A00048815981CD52D1404F5F5F4FC35DDE4FEC
:10E8B00059834883CD52D140213209F063C64A3092
:10E8C000510508F05FC60894811C911C53E0851621
:10E8D000910409F059C600E010E018C081E280936D
:10E8E000C6008091C00086FFFCCF8091C00080648C
:10E8F0008093C0002F5F3F4F2931310579F70F9486
:10E90000DCF10F5F1F4F0530110519F020E030E0FA
:10E91000E5CF10920A0210920B0210920C02109294
:10E920000D02109206021092070210920802109235
:10E930000902109202021092030210920402109235
:10E9400005028FEE90EE60E00F94F5F180E191EE1C
:10E9500060E00F94C2F18091C00087FFFCCF9091DE
:10E96000C600903608F09F759032B8F09093C600BC
:10E970008091C00086FFFCCF8091C00080648093AE
:10E98000C000A0E2A093C6008091C00086FFFCCF2B
:10E990008091C00080648093C000983409F4D7C18E
:10E9A0009934B8F4923409F459C1933458F490333B
:10E9B00019F1903308F4E3C59F33A1F1903409F0C5
:10E9C000DEC5BDC0953409F470C1963409F0D7C5D1
:10E9D00098C1923509F42BC2933538F49C3409F46C
:10E9E000F5C1913509F0CBC518C2963509F445C279
:10E9F000993509F0C4C567C483E792EE62E00F94CD
:10EA0000F5F110920602109207021092080210927D
:10EA1000090210920A0210920B0210920C0210923C
:10EA20000D0213C18FE792EE62E00F94F5F18FEEC5
:10EA300090EE60E00F94F5F181E291EE60E00F94CA
:10EA4000C2F187EB91EE60E00F94F5F180E391EE77
:10EA500060E00F94C2F184EE90EE60E00F94F5F167
:10EA60008FE391EE60E00F94C2F186E090E061E008
:10EA700070E00F9434F20F94DCF18DE591EE60E0DC
:10EA80000F94C2F189EC91EE60E00F94F5F18EE401
:10EA900091EE60E00F94C2F183EC91EE60E00F9490
:10EAA000F5F18CE691EE60E00F94C2F18EE10F94E7
:10EAB0000DF288E90F940DF281E00F940DF20F949E
:10EAC000DCF18BE791EE60E00F94C2F119E0E0E039
:10EAD000F0E010935700E4918E2F0F940DF20F94F5
:10EAE000DCF18AE891EE60E00F94C2F1E3E0F0E03F
:10EAF00010935700E4918E2F0F940DF20F94DCF1D8
:10EB000089E991EE60E00F94C2F1E2E0F0E0109349
:10EB10005700E4918E2F0F940DF20F94DCF188EAE8
:10EB200091EE60E00F94C2F1E1E0F0E01093570045
:10EB30001491812F0F940DF20F94DCF107CF8BE825
:10EB400092EE62E00F94F5F18BE492EE60E00F94A8
:10EB5000F5F10F94DCF100E010E019C0C8016F2D51
:10EB60000F947FFEFF2031F489E492EE60E00F9471
:10EB7000C2F10BC0F092C6008091C00086FFFCCFAE
:10EB80008091C00080648093C0000F5F1F4FC80158
:10EB900081519F41A0E0B0E0ABBFFC01F790BAE229
:10EBA000FB1621F0E2E000301E07C1F60F94DCF105
:10EBB0000F94DCF187E592EE60E00F94F5F10F948D
:10EBC000DCF1CC24DD2400E010E01EC0C8010F946D
:10EBD00077FEF82E882331F489E492EE60E00F94FA
:10EBE000C2F10BC08093C6008091C00086FFFCCFAD
:10EBF0008091C00080648093C000FE1419F00894D6
:10EC0000C11CD11C0F5F1F4FC80181519F41A0E063
:10EC1000B0E0ABBFFC01E790FAE2EF1621F022E092
:10EC20000030120799F60F94DCF10F94DCF182E6C4
:10EC300092EE60E00F94C2F1C60161E070E00F94C3
:10EC400034F20F94DCF10F94DCF110920202109276
:10EC50000302109204021092050278CE89E992EE26
:10EC600062E00F94F5F1279A2F9A16C02F9880E052
:10EC700090E0E0EDF7E03197F1F7019684369105E9
:10EC8000C1F72F9A80E090E0E0EDF7E03197F1F7DF
:10EC9000019684369105C1F78091C00087FFE6CFC9
:10ECA0008091C00087FFFCCF64C485EA92EE62E0E9
:10ECB0000F94F5F140910202509103026091040219
:10ECC0007091050281E020E10F9491F2809102029F
:10ECD00090910302A0910402B091050280509F4FD1
:10ECE000AF4FBF4F8093020290930302A0930402A0
:10ECF000B093050280509041A040B04008F426CE69
:10ED0000A4CF83EB92EE62E00F94F5F140910602FE
:10ED100050910702609108027091090280E020E1A1
:10ED20000F9491F28091060290910702A09108023F
:10ED3000B091090280509F4FAF4FBF4F80930602A2
:10ED400090930702A0930802B0930902FFCD80ECD4
:10ED500092EE62E00F94F5F183E792EE60E00F949B
:10ED6000F5F18FE792EE60E00F94F5F18BE892EE0B
:10ED700060E00F94F5F189E992EE60E00F94F5F10F
:10ED800085EA92EE60E00F94F5F183EB92EE60E09D
:10ED90000F94F5F180EC92EE60E00F94F5F187ECC2
:10EDA00092EE60E00F94F5F188ED92EE60E00F9442
:10EDB000F5F18FED92EE60E00F94F5F18AEE92EEB0
:10EDC00060E00F94F5F183E093EEBDCD87EC92EE19
:10EDD00062E00F94F5F181E40F947BF282E40F94EA
:10EDE0007BF283E40F947BF284E40F947BF285E45E
:10EDF0000F947BF286E40F947BF287E40F947BF20E
:10EE000088E40F947BF28AE40F947BF28BE40F94F6
:10EE10007BF28CE40F947BF299CD88ED92EE62E068
:10EE20000F94F5F1772473948824992409C48FED05
:10EE300092EE62E00F94F5F140910A0250910B02BC
:10EE400060910C0270910D0282E020E10F9491F22A
:10EE500080910A0290910B02A0910C02B0910D02D8
:10EE600080509F4FAF4FBF4F80930A0290930B0289
:10EE7000A0930C02B0930D0269CD8AEE92EE62E08F
:10EE80000F94F5F184EE90EE60E00F94F5F18FECC5
:10EE900091EE60E00F94F5F1662477244301CC5D98
:10EEA000DE4F19821882C452D140D401C301B695F5
:10EEB000A79597958795CA5DDE4F88839983AA8326
:10EEC000BB83C652D140CC5DDE4FA881B981C4520C
:10EED000D1401196CC5DDE4FB983A883C452D14096
:10EEE000CD0162E070E00F9434F2B0E2B093C6005E
:10EEF0008091C00086FFFCCF8091C0008064809329
:10EF0000C000EDE2E093C6008091C00086FFFCCF18
:10EF10008091C00080648093C000F0E2F093C6004E
:10EF20008091C00086FFFCCF8091C00080648093F8
:10EF3000C000CA5DDE4FE880F9800A811B81C6529D
:10EF4000D140BB27A12F902F8F2D0F940DF2CA5DBA
:10EF5000DE4F8881C652D1400F940DF2B0E2FB2EF5
:10EF6000F092C6008091C00086FFFCCF8091C00067
:10EF700080648093C0000DE30093C6008091C000C0
:10EF800086FFFCCF8091C00080648093C00010E2B7
:10EF90001093C6008091C00086FFFCCF8091C00016
:10EFA00080648093C0008BBEF3012791C65DDE4F65
:10EFB0002883CA52D140A22EBB24CC24DD2408943D
:10EFC000611C711C811C911C8BBEF3018791282E42
:10EFD0003324442455240894611C711C811C911C09
:10EFE0008BBEF3013791C55DDE4F3883CB52D140E4
:10EFF0000894611C711C811C911C8BBEF30147910C
:10F00000C45DDE4F4883CC52D140ADEFEA2EAFEF66
:10F01000FA2EAFEF0A2FAFEF1A2F6E0C7F1C801E57
:10F02000911E142D032DF22CEE24EA0CFB1C0C1D5A
:10F030001D1D0F940DF220E22093C6008091C000A8
:10F0400086FFFCCF8091C00080648093C000C65DC5
:10F05000DE4F8881CA52D1400F940DF230E23093D6
:10F06000C6008091C00086FFFCCF8091C000806404
:10F070008093C000C45DDE4F8881CC52D1400F9494
:10F080000DF240E24093C6008091C00086FFFCCFA5
:10F090008091C00080648093C000C55DDE4F888190
:10F0A000CB52D1400F940DF250E25093C6008091A4
:10F0B000C00086FFFCCF8091C00080648093C000B8
:10F0C0008FEFE8168FEFF80680E0080780E018075A
:10F0D00031F484E092EE60E00F94C2F1DFC0D80119
:10F0E000C7018070907CA070B0708050904CA040A0
:10F0F000B040D1F52FEF3FE340E050E0E222F322B1
:10F1000004231523CA5DDE4FA880B980CA80DB8046
:10F11000C652D140AE0CBF1CC01ED11EAA0CBB1CD7
:10F12000CC1CDD1C8EE092EE60E00F94C2F1BB2798
:10F13000A12F902F8F2D0F940DF28E2D0F940DF285
:10F1400030E23093C6008091C00086FFFCCF8091F2
:10F15000C00080648093C0004EE34093C60080915D
:10F16000C00086FFFCCF87C08EE09EEFA0E0B0E03D
:10F17000E822F9220A231B239CE0E91694E9F90608
:10F1800090E0090790E0190709F088C0C45DDE4FE0
:10F19000A881CC52D140EA2EFF2400E010E0102FCD
:10F1A0000F2DFE2CEE24C55DDE4FB881CB52D14031
:10F1B000EB0EF11C011D111DD601C501817090706F
:10F1C000A070B070DC0199278827E80EF91E0A1F8D
:10F1D0001B1F20EF30E040E050E0A222B322C42207
:10F1E000D52241E1AA0CBB1CCC1CDD1C4A95D1F7F1
:10F1F000EA0CFB1C0C1D1D1D81E090E0A0E0B0E0BE
:10F20000282239224A225B2235E1220C331C441C7D
:10F21000551C3A95D1F7E20CF31C041D151D57013E
:10F220006801AA0CBB1CCC1CDD1C85E192EE60E0E1
:10F230000F94C2F1C801AA27BB270F940DF2BB2778
:10F24000A12F902F8F2D0F940DF28E2D0F940DF274
:10F2500090E29093C6008091C00086FFFCCF809121
:10F26000C00080648093C000AEE3A093C60080918C
:10F27000C00086FFFCCF8091C00080648093C000F6
:10F28000C601AA27BB270F940DF2BB27AD2D9C2DDD
:10F290008B2D0F940DF28A2D0F940DF20F94DCF14B
:10F2A000CC5DDE4FE881F981C452D140F99709F471
:10F2B0004DCBF4E0EF2EF12C012D112D6E0C7F1CA7
:10F2C000801E911EF2CD83E093EE62E00F94F5F183
:10F2D0008AE192EE60E00F94C2F18091C00087FF56
:10F2E000FCCF1091C6001F751093C6008091C0001E
:10F2F00086FFFCCF8091C00080648093C0000F9493
:10F30000DCF1812F81548A3108F036C1163409F4BA
:10F3100095C0173490F4133409F44EC0143430F40B
:10F320001134F1F0123409F01DC130C0143409F465
:10F3300059C0153409F016C16BC01A3409F4C4C0A1
:10F340001B3438F4173409F48FC0183409F00AC19B
:10F35000A1C01B3409F4D2C01C3409F003C1E8C0B9
:10F360008FEF81B90DC082B1809582B980E090E0C5
:10F37000E0EDF7E03197F1F70196883C9105C1F790
:10F380008091C00087FFEFCF12B8EFC08FEF84B934
:10F390000DC085B1809585B980E090E0E0EDF7E0A3
:10F3A0003197F1F70196883C9105C1F78091C00033
:10F3B00087FFEFCF15B8D9C08FEF87B90DC088B1DF
:10F3C000809588B980E090E0E0EDF7E03197F1F7C3
:10F3D0000196883C9105C1F78091C00087FFEFCF6F
:10F3E00018B8C3C08FEF8AB90DC08BB180958BB9A7
:10F3F00080E090E0E0EDF7E03197F1F70196883C8E
:10F400009105C1F78091C00087FFEFCF1BB8ADC059
:10F410008FEF8DB90DC08EB180958EB980E090E0F0
:10F42000E0EDF7E03197F1F70196883C9105C1F7DF
:10F430008091C00087FFEFCF1EB897C08FEF80BBD1
:10F440000DC081B3809581BB80E090E0E0EDF7E0F6
:10F450003197F1F70196883C9105C1F78091C00082
:10F4600087FFEFCF11BA81C08FEF83BB0DC084B38C
:10F47000809584BB80E090E0E0EDF7E03197F1F714
:10F480000196883C9105C1F78091C00087FFEFCFBE
:10F4900014BA6BC08FEF809301010FC080910201FD
:10F4A00080958093020180E090E0E0EDF7E03197F5
:10F4B000F1F70196883C9105C1F78091C00087FF64
:10F4C000EDCF1092020151C08FEF809304010FC065
:10F4D0008091050180958093050180E090E0E0ED4A
:10F4E000F7E03197F1F70196883C9105C1F78091DB
:10F4F000C00087FFEDCF1092050137C08FEF8093DA
:10F5000007010FC08091080180958093080180E079
:10F5100090E0E0EDF7E03197F1F70196883C910536
:10F52000C1F78091C00087FFEDCF109208011DC088
:10F530008FEF80930A010FC080910B01809580931B
:10F540000B0180E090E0E0EDF7E03197F1F70196F4
:10F55000883C9105C1F78091C00087FFEDCF1092E4
:10F560000B0103C085E292EEEEC98091C00087FFD7
:10F57000FCCF8091C600EAC988E392EEE4C98CE131
:10F5800091EEE1C988249924933011F1943028F444
:10F59000913089F09230B8F408C0953061F195301F
:10F5A000F0F0963009F048C043C02B3109F042C951
:10F5B00091E06BE13FC96227C15DDE4F2883CF52E6
:10F5C000D14092E037C9B22FA0E0622793E032C960
:10F5D000822F90E0A82BB92B622794E02BC92E3004
:10F5E00009F039C3622795E0C05DDE4F19821882A9
:10F5F000C053D1401FC9E1E0F0E0EC0FFD1FC05D3A
:10F60000DE4F08811981C053D140E00FF11F2083E4
:10F610000F5F1F4FC05DDE4F19830883C053D14079
:10F6200062270A171B0709F005C9D80196E002C92D
:10F63000261709F010C303C0973009F0FBC87724E0
:10F640009981933109F412C19431C8F4963009F4C8
:10F65000D8C0973050F4923009F406C1933009F4C1
:10F660006DC0913009F059C253C0913109F477C08F
:10F67000923108F0BBC0903109F04FC2F5C098310B
:10F6800009F487C0993150F4953109F4EFC09531F0
:10F6900008F4C6C1963109F040C2C2C19A3109F4DA
:10F6A0006CC09A3108F491C09B3109F45BC09D3164
:10F6B00009F033C29D81903359F48F81882311F46E
:10F6C0009EE11CC0813011F091E018C098E916C08D
:10F6D000892F807591F0903539F4E0E0F0E089E011
:10F6E0008093570094910AC0983539F4E3E0F0E034
:10F6F00089E080935700949101C090E01A821B82A8
:10F700008D818C831D829E831F8227E030E009C299
:10F710001A8288E08B8381E48C8386E58D8382E581
:10F720008E8389E48F8383E5888780E589878FE5E9
:10F730008A8782E38B872BE030E0F3C18A818139AD
:10F7400041F0823941F0803911F48FE005C080E04A
:10F7500003C082E001C08AE01A828B8344C0772410
:10F76000739482C08D81882311F48EE12CC0813086
:10F7700011F081E028C088E926C01A82E1E0F0E0BB
:10F7800089E08093570084918B831C8224E030E0D1
:10F79000C8C18B81803589F48C81883039F4E2E0EE
:10F7A000F0E089E08093570084910DC0E0E0F0E044
:10F7B00089E080935700849106C0E3E0F0E089E09F
:10F7C0008093570084911A82DFCF8D81836C99E0FA
:10F7D000E1E0F0E0082E90935700E89507B600FCB2
:10F7E000FDCF1A821B8223E030E09BC180EC8A832C
:10F7F000CE5CDE4F188219821A821B82C253D1401E
:10F800008EC18A8190E0A0E0B0E0582F44273327D2
:10F8100022278B8190E0A0E0B0E0DC0199278827C7
:10F82000282B392B4A2B5B2B8D8190E0A0E0B0E098
:10F83000282B392B4A2B5B2B8C8190E0A0E0B0E089
:10F84000BA2FA92F982F8827282B392B4A2B5B2BCF
:10F85000220F331F441F551FC05EDE4F288339839C
:10F860004A835B83C052D1401A8259C13A81C95C34
:10F87000DE4F3883C753D140CA5CDE4F1882C6536F
:10F88000D1408B81C82EDD24CA5CDE4F488159816E
:10F89000C653D140C42AD52A933109F082C0CE5C28
:10F8A000DE4F88819981AA81BB81C253D1408050AB
:10F8B000904CA340B04030F583E0CE5CDE4FE88052
:10F8C000F9800A811B81C253D140F70100935B008C
:10F8D00080935700E89507B600FCFDCFCE5CDE4F65
:10F8E000088119812A813B81C253D14000501F4FAA
:10F8F0002F4F3F4FCE5CDE4F088319832A833B8313
:10F90000C253D140C05EDE4F488159816A817B81FC
:10F91000C052D140DE011B9631E08C9111962C91A2
:10F9200011971296C75CDE4F2883C953D140C85C3B
:10F93000DE4F1882C853D14090E0C85CDE4FE881AA
:10F94000F981C853D1408E2B9F2B0C01FA01609393
:10F950005B0030935700E89511244E5F5F4F6F4F67
:10F960007F4F0EEFE02E0FEFF02ECE0CDF1CC114F8
:10F97000D10499F685E0C05EDE4F088119812A81A5
:10F980003B81C052D140F80120935B008093570027
:10F99000E89507B600FCFDCF81E180935700E8951C
:10F9A00035C0C05EDE4F88819981AA81BB81C0527B
:10F9B000D140B695A795979587957C018601ABE0D8
:10F9C000AA2EB12CAC0EBD1E0BC0D5016D915D01F0
:10F9D000C7010F947FFE0894E11CF11C01501040F8
:10F9E0000115110591F7A60160E070E0440F551F65
:10F9F000661F771FC05EDE4FE880F9800A811B8199
:10FA0000C052D1404E0D5F1D601F711F1A82C05E33
:10FA1000DE4F488359836A837B83C052D1407FC0C5
:10FA2000FA80C55CDE4FF882CB53D140C65CDE4F16
:10FA30001882CA53D1408B81C82EDD24C65CDE4FAC
:10FA400008811981CA53D140C02AD12A1A828981DA
:10FA5000BE016D5F7F4F843121F59601C05EDE4FA0
:10FA6000E880F9800A811B81C052D1400BBFF701A9
:10FA700087919691DB018C9311969C936E5F7F4FDB
:10FA8000D801C7010296A11DB11DC05EDE4F88835B
:10FA90009983AA83BB83C052D14022503040F1F6F3
:10FAA00036C0C05EDE4F288139814A815B81C052F9
:10FAB000D1400894C108D108760100E010E0089414
:10FAC000C11CD11C0894E11CF11C011D111DE20E8A
:10FAD000F31E041F151F21BDBB27A52F942F832FB5
:10FAE00082BD2F5F3F4F4F4F5F4FF89A80B5DB01CC
:10FAF0008D93BD012E153F054007510761F7C05E8C
:10FB0000DE4F288339834A835B83C052D1409601FC
:10FB10002D5F3F4FFB01108204C080EC8A8322E0FE
:10FB200030E08BE18093C6008091C00086FFFCCF5F
:10FB30008091C00080648093C000C15DDE4FF88179
:10FB4000CF52D140F093C6008091C00086FFFCCF19
:10FB50008091C00080648093C000432F3093C60022
:10FB60008091C00086FFFCCF8091C00080648093AC
:10FB7000C000922F2093C6008091C00086FFFCCF6A
:10FB80008091C00080648093C0008EE08093C600A6
:10FB90008091C00086FFFCCF8091C000806480937C
:10FBA000C00065E1C15DDE4FE880CF52D1406E25D7
:10FBB00069276427FE01319610C090819093C6009A
:10FBC0008091C00086FFFCCF31968091C000806498
:10FBD0008093C0006927215030402115310569F715
:10FBE0006093C6008091C00086FFFCCF8091C0006A
:10FBF00080648093C00085B1805885B9772081F4F6
:10FC0000C15DDE4F0881CF52D1400F5FC15DDE4F35
:10FC10000883CF52D14090E0A0E0B0E00D941AF4F8
:10FC200027982F9880E090E020ED37E0F901319798
:10FC3000F1F7019684369105C9F700008091C00064
:10FC40008D7F8093C00081E180935700E895EE2777
:10FC5000FF270994FFCF90E00D941AF497FB092E2B
:10FC600007260AD077FD04D02ED006D000201AF443
:10FC7000709561957F4F0895F6F7909581959F4F08
:10FC80000895A1E21A2EAA1BBB1BFD010DC0AA1FDD
:10FC9000BB1FEE1FFF1FA217B307E407F50720F0F5
:10FCA000A21BB30BE40BF50B661F771F881F991F70
:10FCB0001A9469F760957095809590959B01AC01B9
:10FCC000BD01CF010895AA1BBB1B51E107C0AA1FAC
:10FCD000BB1FA617B70710F0A61BB70B881F991FED
:10FCE0005A95A9F780959095BC01CD010895F99991
:10FCF000FECF92BD81BDF89A992780B50895262F31
:10FD0000F999FECF1FBA92BD81BD20BD0FB6F89400
:0EFD1000FA9AF99A0FBE01960895F894FFCF63
:00000001FF
