:100000000C9444010C9475010C9475010C947501C9
:100010000C9475010C9475010C9475010C94750188
:100020000C9475010C9475010C9475010C94750178
:100030000C9475010C9475010C9475010C94750168
:100040000C9475010C9475010C9475010C94750158
:100050000C9475010C9475010C9475010C941706A1
:100060000C9475010C94E1050C94B7050C94750182
:100070000C9475010C9475010C9475010C94750128
:100080000C9475010C9475010C9475010C94750118
:100090000C9475010C9475010C9475010C94750108
:1000A0000C9475010C9475010C9475010C947501F8
:1000B0000C9475010C9475010C9475010C947501E8
:1000C0000C9475010C9475010C9475010C947501D8
:1000D0000C9475010C9475010C9475010C947501C8
:1000E0000C9475010C9444040C9481030C949303B8
:1000F0000C947B030C948F030C94ED020C949703E7
:100100000C9477030C945C030C94A0020C944304AD
:100110000C9471030C940A020C9462030C948905EC
:100120000C9489030C9485030C94A1030C949D03F7
:100130000C9468020C94FF030C9446020C946A031E
:100140000C9437020C943F040C94E1090C949C032A
:100150000C949D060C9466030C94CE030C945A02E6
:100160000C946E0300002100240027002A002D00BB
:100170003000330001010000040107010A01000002
:100180002200250028002B002E003100340002013F
:100190000000050108010B010000200023002600DB
:1001A00029002C002F00320000010000030106018D
:1001B00009010505050507050808080802020202ED
:1001C0000A0A0808040404040101010101010101F3
:1001D0000303030303030303040707070C0C0C0CBE
:1001E0000C0C0C0C020202020606060606060606A7
:1001F0000B0B0B0B0B0B0B0B010210202008081034
:100200002040102040800201020108040201010286
:10021000040810204080804020100804020180045F
:1002200002018040201008040201080402010102BA
:1002300004081020408001020408102040800000C3
:100240000A0B02090C0D0E08070304010000000050
:10025000000000000000000000000000000000009E
:10026000000000000000000000001211100000005B
:10027000000000000000000000000000000000007E
:10028000000000009D06E10911241FBECFEFD1E25E
:10029000DEBFCDBF00E00CBF23E0A2E6B2E001C0AC
:1002A0001D92AF39B207E1F712E0A0E0B2E0E6E557
:1002B000F8E100E00BBF02C007900D92A236B10733
:1002C000D9F711E0C3E4D1E000E006C021970109AD
:1002D000802FFE010E94F209C234D10780E0080796
:1002E000A9F70E9462070C94190C0C94000096E088
:1002F000899FD0011124A05EBC4F90967C936E9391
:100300005F9791E091969C939197E0918D03F09186
:100310008E0390918C03992339F0309751F081111D
:1003200008C080913C031994309719F05C968C9129
:10033000FACF0895CF92DF92EF92FF920F931F931F
:1003400096E0899FF0011124E05EFC4F11A2278DF9
:1003500030A12130310551F178F02230310509F416
:1003600051C02330310509F452C01F910F91FF9005
:10037000EF90DF90CF9008956623B9F361E070E0CD
:100380000E9477012FB7F8948091670290916802DC
:10039000A0916902B0916A022FBF80937803909375
:1003A0007903A0937A03B0937B03DFCF9FB7F894D0
:1003B000C0906702D0906802E0906902F0906A02F3
:1003C0009FBF009178031091790320917A033091B7
:1003D0007B03C01AD10AE20AF30A00918A03109142
:1003E0008B0330E020E00C151D052E053F0550F471
:1003F00062E070E01F910F91FF90EF90DF90CF903F
:100400000C9477016111B1CF63E070E0F3CF70E03D
:1004100060E0F0CFAF92BF92CF92DF92EF92FF9267
:100420000F931F93CF93DF936C017B018B01040F1C
:10043000151FEB015E01AE18BF08C017D10759F0B8
:100440006991D601ED91FC910190F081E02DC601FA
:100450001995892B79F7C501DF91CF911F910F91E4
:10046000FF90EF90DF90CF90BF90AF900895FC0188
:10047000538D448D252F30E0842F90E0821B930B09
:10048000541710F0CF96089501970895FC01918DAF
:10049000828D981761F0A28DAE0FBF2FB11D5D96B2
:1004A0008C91928D9F5F9F73928F90E008958FEF54
:1004B0009FEF0895FC01918D828D981731F0828D08
:1004C000E80FF11D858D90E008958FEF9FEF08955F
:1004D000FC01918D228D892F90E0805C9F4F821BC3
:1004E00091098F73992708958BE692E00E94680224
:1004F00021E0892B09F420E0822F0895FC01A48DCE
:10050000A80FB92FB11DA35ABF4F2C91848D90E035
:1005100001968F739927848FA689B7892C93A08918
:10052000B1898C91837080648C93938D848D9813A2
:1005300006C00288F389E02D80818F7D8083089535
:10054000EF92FF920F931F93CF93DF93EC0181E023
:10055000888F9B8D8C8D98131AC0E889F9898081CA
:1005600085FF15C09FB7F894EE89FF896083E889FD
:10057000F98980818370806480839FBF81E090E0EF
:10058000DF91CF911F910F91FF90EF900895F62E7C
:100590000B8D10E00F5F1F4F0F731127E02E8C8D16
:1005A0008E110CC00FB607FCFACFE889F98980815B
:1005B00085FFF5CFCE010E947E02F1CFEB8DEC0FCF
:1005C000FD2FF11DE35AFF4FF0829FB7F8940B8F78
:1005D000EA89FB8980818062CFCFCF93DF93EC01E2
:1005E000888D8823B9F0AA89BB89E889F9898C911B
:1005F00085FD03C0808186FD0DC00FB607FCF7CFD7
:100600008C9185FFF2CF808185FFEDCFCE010E94D6
:100610007E02E9CFDF91CF91089580E090E0892BB1
:1006200029F00E94740281110E94000080E090E095
:10063000892B49F080E090E0892B29F00E9400008E
:1006400081110E94000080E090E0892B49F080E059
:1006500090E0892B29F00E94000081110E94000087
:1006600080E090E0892B49F080E090E0892B29F030
:100670000E94000081110C94000008958150823185
:1006800008F05AC0E82FF0E08827E65BFC4F8F4F58
:100690000C94F2096A036E035C03620366039C0315
:1006A000710377037B038103850389038F0393031E
:1006B0009C0397039D03A103809180008F77809313
:1006C00080000895809180008F7DF9CF8091800017
:1006D000877FF5CF84B58F7784BD089584B58F7DEE
:1006E000FBCF8091B0008F778093B0000895809108
:1006F000B0008F7DF9CF809190008F77809390002C
:100700000895809190008F7DF9CF80919000877F30
:10071000F5CF8091A0008F778093A00008958091FD
:10072000A0008F7DF9CF8091A000877FF5CF8091C9
:1007300020018F77809320010895809120018F7D83
:10074000F9CF80912001877FF5CFCF93DF93282FBA
:1007500030E0F901E25CFD4F8491F901E850FE4F71
:10076000D491F901EE54FE4FC491CC23A1F0811134
:100770000E943E03EC2FF0E0EE0FFF1FE856FE4F05
:10078000A591B491EC91ED2381E090E009F480E033
:10079000DF91CF91089580E090E0FACF862F0C94FE
:1007A000A5031F93CF93DF93282F30E0F901E25C7C
:1007B000FD4F8491F901E850FE4FD491F901EE54B8
:1007C000FE4FC491CC23A9F0162F81110E943E0345
:1007D000EC2FF0E0EE0FFF1FE258FE4FA591B49111
:1007E0008FB7F894EC91111108C0D095DE23DC93FB
:1007F0008FBFDF91CF911F910895DE2BF8CF862F09
:10080000642F0C94D103CF93DF9390E0FC01E85068
:10081000FE4F24918E549E4FFC0184918823C9F091
:1008200090E0880F991FFC01EC59FE4FA591B491FF
:10083000FC01E258FE4FC591D49161110DC09FB7E4
:10084000F8948C91209582238C9388812823288387
:100850009FBFDF91CF910895623051F49FB7F89414
:100860003C91822F809583238C93E8812E2BEFCFB0
:100870008FB7F894EC912E2B2C938FBFEACF862F55
:10088000642F0C940304089590E080E00895CF93C2
:10089000DF93EC0160E08E810E94D10361E08E81E4
:1008A0000E94D10360E08E810E94D1038BE891E029
:1008B0000197F1F7DF91CF910895CF92DF92EF92F8
:1008C000FF920F931F93CF93DF936C017C0187E01E
:1008D000E80EF11CD0E0C0E0062F10E0B8010C2EAD
:1008E00002C0759567950A94E2F76170F7018191EE
:1008F0007F010E94D1032196C430D10579F7C6014A
:10090000DF91CF911F910F91FF90EF90DF90CF90EB
:100910000C944704CF92DF92EF92FF920F931F93B4
:10092000CF93DF93EC01F62E642F8C810E94D103CC
:100930008D818F3F19F060E00E94D1030F2D10E0F0
:100940008F8584FF25C06E0187E0C80ED11CF12C75
:10095000E12CB8010E2C02C0759567950A94E2F758
:100960006170F60181916F010E94D103FFEFEF1AD0
:10097000FF0A88E0E816F10461F7CE01DF91CF911C
:100980001F910F91FF90EF90DF90CF900C94470450
:10099000B80184E0759567958A95E1F7CE010E94CC
:1009A0005D046F2DCE01DF91CF911F910F91FF90CC
:1009B000EF90DF90CF900C945D0440E0682F88E0CA
:1009C00093E00C948A04CF93DF93823029F49091C2
:1009D000170398609093170380931B0310921C03D6
:1009E00080E480931D0380E180931E0380E5809363
:1009F0001F0361E080910C030E94030480910D03AA
:100A00008F3F19F061E00E94030461E080910E03C2
:100A10000E940304C8E0D3E09E0128503340809137
:100A2000170384FD0BC084E090E021962817390756
:100A300044F461E08E810E940304EECF88E090E0F0
:100A4000F4CF8BE39DE00197F1F760E080910C0318
:100A50000E94D10360E080910E030E94D103809137
:100A60000D038F3F19F060E00E94D10380911703BE
:100A700084FD39C063E088E093E00E945D04CBE42C
:100A8000D6E4CE010197F1F763E088E093E00E949D
:100A90005D042197F1F763E088E093E00E945D0434
:100AA00083E592E00197F1F762E088E093E00E942D
:100AB0005D048091170380620E94DD0484E08093CE
:100AC00018038CE00E94DD0481E00E94DD048BE3CA
:100AD0009FE10197F1F782E08093190386E0DF91AF
:100AE000CF910C94DD0480620E94DD048BE496E4D7
:100AF0000197F1F78091170380620E94DD0483E57E
:100B000092E00197F1F78091170380620E94DD0463
:100B1000D0CF41E00E948A0481E090E008950F93D5
:100B20001F93CF93DF93EC0188819981009759F04F
:100B30002A813B812617370730F081E0DF91CF9182
:100B40001F910F9108958B016F5F7F4F0E941F0BC4
:100B5000009759F0998388831B830A832C813D81F8
:100B6000232B59F7FC011082E8CF80E0E7CF1F92DA
:100B70000F920FB60F9211240BB60F922F933F9343
:100B80004F935F936F937F938F939F93AF93BF9395
:100B9000EF93FF938BE692E00E947E02FF91EF912C
:100BA000BF91AF919F918F917F916F915F914F9185
:100BB0003F912F910F900BBE0F900FBE0F901F9083
:100BC00018951F920F920FB60F9211240BB60F9229
:100BD0002F938F939F93EF93FF93E0917B02F0917C
:100BE0007C028081E0918102F091820282FD1DC031
:100BF0009081809184028F5F8F732091850282178C
:100C000041F0E0918402F0E0E559FD4F958F80932B
:100C10008402FF91EF919F918F912F910F900BBEC6
:100C20000F900FBE0F901F9018958081F2CF1F92EA
:100C30000F920FB60F9211242F933F938F939F9390
:100C4000AF93BF938091670290916802A09169026F
:100C5000B0916A023091660223E0230F2D3758F5D8
:100C60000196A11DB11D20936602809367029093A7
:100C70006802A0936902B0936A0280916202909127
:100C80006302A0916402B09165020196A11DB11D9D
:100C90008093620290936302A0936402B093650212
:100CA000BF91AF919F918F913F912F910F900FBE68
:100CB0000F901F90189526E8230F0296A11DB11DD5
:100CC000D2CFEF92FF920F931F93CF93DF93EC015C
:100CD0007B01198218821B821A821D821C82FB01F1
:100CE00001900020E9F731978F01061B170BB8011F
:100CF0000E948F0528813981811113C0211531058A
:100D000019F0C9010E94960A198218821D821C825C
:100D10001B821A82DF91CF911F910F91FF90EF906C
:100D200008951D830C83B701C901DF91CF911F91F5
:100D30000F91FF90EF900C94120C10926E02109293
:100D40006D0288EE93E0A0E0B0E080936F02909394
:100D50007002A0937102B09372028DE192E09093C1
:100D60006C0280936B0285EC90E090937802809304
:100D7000770284EC90E090937A028093790280EC81
:100D800090E090937C0280937B0281EC90E09093C2
:100D90007E0280937D0282EC90E0909380028093AB
:100DA0007F0286EC90E09093820280938102109201
:100DB000840210928502109286021092870268E4E3
:100DC00072E085E993E00E94610661E472E08FE8D9
:100DD00093E00E9461061092220310922603109263
:100DE0002503109227038BE392E0909321038093D5
:100DF0002003ECE3F3E0108214821382158236960E
:100E000083E0E837F807B9F783E092E09093830333
:100E10008093820380E092E0909385038093840323
:100E200084E08093860383E08093870387E092E0E9
:100E300090938103809380038AE090E090938903EC
:100E40008093880384EF91E090938B0380938A03CF
:100E500010928E0310928D0310927C0310927D03EA
:100E600010927E0310927F0310928C0310920B035A
:100E700010920A038FE292E0909309038093080393
:100E80008DE080930C038FEF80930D038CE08093B3
:100E90000E0388E080930F0389E0809310038AE0BB
:100EA000809311038BE0809312031092130310922E
:100EB000140310921503109216031092170381E089
:100EC0000C94E304CF93DF931F921F92CDB7DEB74C
:100ED000789484B5826084BD84B5816084BD85B515
:100EE000826085BD85B5816085BD80916E00816021
:100EF00080936E00109281008091810082608093C7
:100F000081008091810081608093810080918000C8
:100F10008160809380008091B10084608093B100F3
:100F20008091B00081608093B000809191008260D8
:100F300080939100809191008160809391008091D5
:100F400090008160809390008091A10082608093E6
:100F5000A1008091A10081608093A1008091A000F8
:100F600081608093A00080912101826080932101A3
:100F70008091210181608093210180912001816015
:100F80008093200180917A00846080937A00809120
:100F90007A00826080937A0080917A0081608093E9
:100FA0007A0080917A00806880937A001092C10064
:100FB000E0917B02F0917C0282E08083E0917702F5
:100FC000F09178021082E0917902F0917A028FEC30
:100FD000808310928302E0917F02F091800286E08C
:100FE0008083E0917D02F0917E0280818061808328
:100FF000E0917D02F0917E02808188608083E091A3
:101000007D02F0917E02808180688083E0917D0284
:10101000F0917E0280818F7D808382E00E94E304D4
:1010200081E00E94DD048BE39FE10197F1F7E1E0AD
:1010300080911B038111E0E0E195F0E0E85FFC4F57
:10104000848980680E94DD04412C512C3201439434
:10105000AA24AA94BA2C51E050938C038FB7F89429
:1010600040916702509168026091690270916A0232
:101070008FBF80917C0390917D03A0917E03B091FE
:101080007F03481B590B6A0B7B0B8091880390915F
:101090008903B0E0A0E084179507A607B70708F01A
:1010A00012C110E080918603181760F4E09182036A
:1010B000F0918303E10FF11D62E080810E9403043F
:1010C0001F5FF0CF312C80918703381608F061C084
:1010D000E32CF12CE0918403F0918503EE0DFF1DCC
:1010E00061E080810E940304E0918403F091850314
:1010F000EE0DFF1D60E080810E94D103D301C2018B
:10110000032C04C0880F991FAA1FBB1F0A94D2F793
:101110004C016C01C094D094212C80918603281638
:1011200008F5022D10E0E0918203F0918303E00FB7
:10113000F11F80810E94A5030C5F1F4F000F111F3C
:10114000F801E05EFC4F892B41F480819181882970
:101150009929918380832394E0CF808191818C2190
:101160009D21F7CFE0918403F0918503EE0DFF1DE3
:1011700061E080810E94D103809184039091850376
:10118000E80EF91E60E0F70180810E9403043394A9
:101190009ACF00E213E0F801878D90A1892B21F40A
:1011A000148EB68EA58E11A2369653E0EC35F50757
:1011B00099F7D12C80918603D81608F053C0C12C22
:1011C000ED2CF12CEE0CFF1CC701885D9C4F7C01BF
:1011D00020918703C21608F043C0F7016081718136
:1011E0000C2C02C0769567950A94E2F7D29E900186
:1011F00011242C0D311DE0E2F3E080E0458D568D89
:101200002417350709F4C5C08F5F36968A30B1F7C9
:1012100060FF24C0E0E2F3E090E080E0448D411103
:1012200018C0E0918003F0918103E20FF31F408129
:1012300056E0589FF001599FF00D1124E05EFC4FDD
:10124000448F368F258F10A2178E61E00E949A017D
:1012500005C0019636968A30910501F7C394B8CF40
:10126000D394A8CF80E0F80191A19111892F0A5F52
:101270001F4FF3E00C351F07B1F79FB7F89440916B
:101280006702509168026091690270916A029FBF83
:1012900040937C0350937D0360937E0370937F03A0
:1012A000882389F080914103882369F080913F036E
:1012B00090914003019739F4F0903C03F11006C07F
:1012C0000E940D03C8CE10928C03FACF80ED8F0DD3
:1012D0008A3040F5F9821A820091990310919A039D
:1012E0000F5F1F4FB80185E993E00E948F058823A7
:1012F00099F02091950330919603809199039091F4
:101300009A03BE016F5F7F4F820F931F0E94120CE2
:1013100010939A03009399036F2D88E093E00E9445
:101320008905CECF5AE2F512CBCFE0911B03E23014
:1013300030F5E150F0E0E85FFC4F848980680E945E
:10134000DD042091990330919A0380919303909149
:10135000940328173907C1F480919503909196035F
:1013600060918F03709190030097A9F0611571054A
:1013700041F4232BE9F0FC01808190E017C0E1E00B
:10138000D9CF0E94090C12C04AE050E066E572E035
:1013900013C061705BCF6115710551F0232B41F0D3
:1013A000FB01808190E0919581959109892B61F7EE
:1013B0004CE050E069E472E088E093E00E940A02A9
:1013C0007FCF80918F0390919003009711F00E943E
:1013D000960A8091950390919603009711F00C94D2
:1013E000960A0895EE0FFF1F881F8BBF0790F69196
:1013F000E02D19940F931F93CF93DF9382309105C3
:1014000010F482E090E0E0919D03F0919E0330E0C3
:1014100020E0B0E0A0E0309799F42115310509F4FF
:101420004AC0281B390B24303105D8F58A819B81AD
:101430006115710589F1FB0193838283FE0111C05F
:10144000408151810281138148175907E0F0481704
:10145000590799F4109761F012960C93129713960E
:101460001C933296CF01DF91CF911F910F91089578
:1014700000939D0310939E03F4CF2115310551F085
:101480004217530738F0A901DB019A01BD01DF01C2
:10149000F801C1CFEF01F9CF90939E0380939D0394
:1014A000CDCFFE01E20FF31F8193919322503109BA
:1014B00039832883D7CF20919B0330919C03232B22
:1014C00041F4209115023091160230939C03209331
:1014D0009B0320911302309114022115310541F430
:1014E0002DB73EB74091170250911802241B350BBF
:1014F000E0919B03F0919C03E217F307A0F42E1BED
:101500003F0B2817390778F0AC014E5F5F4F241767
:10151000350748F04E0F5F1F50939C0340939B0389
:10152000819391939FCFF0E0E0E09CCFCF93DF9346
:101530000097E9F0FC01329713821282A0919D037B
:10154000B0919E03ED0130E020E01097A1F42081DE
:101550003181820F931F20919B0330919C032817A8
:10156000390709F061C0F0939C03E0939B03DF917E
:10157000CF910895EA01CE17DF07E8F54A815B8134
:101580009E0141155105B1F7E901FB83EA834991B9
:101590005991C40FD51FEC17FD0761F4808191812B
:1015A0000296840F951FE901998388838281938134
:1015B0009B838A83F0E0E0E012968D919C911397D3
:1015C0000097B9F52D913C911197CD010296820FAC
:1015D000931F20919B0330919C032817390739F6FC
:1015E000309751F510929E0310929D03B0939C0387
:1015F000A0939B03BCCFD383C28340815181840FCE
:10160000951FC817D90761F44E5F5F4F8881998194
:10161000480F591F518340838A819B819383828322
:101620002115310509F0B0CFF0939E03E0939D039F
:101630009ECFFD01DC01C0CF13821282D7CF4F9223
:101640005F926F927F928F929F92AF92BF92CF9252
:10165000DF92EF92FF920F931F93CF93DF938C0152
:10166000009799F4CB01DF91CF911F910F91FF90DB
:10167000EF90DF90CF90BF90AF909F908F907F9032
:101680006F905F904F900C94FA09FC01E60FF71FE2
:101690009C0122503109E217F30708F4AEC0D901CA
:1016A000CD91DC911197C617D70720F1C530D10530
:1016B00078F0CE0104978617970750F0C61BD70B1A
:1016C0002297C193D1936D937C93CF010E94960A88
:1016D000C801DF91CF911F910F91FF90EF90DF90A4
:1016E000CF90BF90AF909F908F907F906F905F90C2
:1016F0004F9008955B01AC1ABD0A4C018C0E9D1EE3
:10170000A0919D03B0919E03512C412CF12CE12C12
:10171000109731F580919B0390919C038815990552
:1017200009F05CC04616570608F058C080911302B5
:1017300090911402009741F48DB79EB74091170223
:1017400050911802841B950BE817F90708F055C053
:10175000F0939C03E0939B03F90171836083B8CFFE
:101760008D919C91119712966C90129713967C9084
:101770001397A815B90559F56C0142E0C40ED11CA8
:10178000CA14DB0420F1AC014A195B09DA01129694
:10179000159780F06282738251834083D9016D93E3
:1017A0007C93E114F10471F0D7011396FC93EE934E
:1017B00012978ECF22968C0F9D1FF9019183808303
:1017C000F301EFCFF0939E03E0939D0381CF481682
:1017D000590608F42C017D01D3019ACFCB010E9458
:1017E000FA097C01009749F0AE01B8010E94000C93
:1017F000C8010E94960A87016BCF10E000E068CF15
:10180000FB01DC0102C001900D9241505040D8F71D
:101810000895FB01DC018D91019080190110D9F32D
:10182000990B0895FB01DC0101900D920020E1F776
:10183000089511E0C3E4D1E000E006C0802FFE016E
:101840000E94F2092196011DC434D10780E00807E7
:06185000A9F7F894FFCF98
:101856004344454241403F313233343536373839D7
:101866002A302300009F03800000000000A0020A27
:10187600023702ED02680246025A020000000089A1
:10188600050A0244044304000000003F04FF03CE9F
:10189600033938333131333000436F727265637404
:1018A60020706173730077726F6E67207061737357
:0218B600000030
:00000001FF
