:020000040000FA
:100000000C946E010C949F010C949F010C949F0121
:100010000C949F010C949F010C949F010C949F01E0
:100020000C949F010C949F010C949F010C949F01D0
:100030000C949F010C949F010C949F010C949F01C0
:100040000C949F010C94680A0C949F010C949F01DE
:100050000C949F010C949F010C949F010C949409A3
:100060000C949F010C949F010C949F010C949F0190
:100070000C949F010C949F010C949F010C949F0180
:100080000C943A0A0C949F010C949F010C949F01CC
:100090000C949F010C949F010C949F010C949F0160
:1000A0000C949F010C949F010C940C0A0C949F01DA
:1000B0000C949F010C949F010C949F010C94DE09F9
:1000C0000C949F010C949F010C949F010C949F0130
:1000D0000C949F010C949F010C949F010C949F0120
:1000E0000C949F01084AD73B3BCE016E84BCBFFDF8
:1000F000C12F3D6C74319ABD56833DDA3D00C77FF8
:1001000011BED9E4BB4C3E916BAAAABE0000008090
:100110003F000C94FB020C94A1040C9497040C94E3
:10012000AB040C94570E0C941E040C9420030C94F6
:100130006D030C9456040C942E030C9424030C941D
:1001400060040C948D040C94B0020C943C030C9449
:100150001A030C9428040C9416030C9432030C9488
:1001600044040C940D030C9440030C943C040C9434
:1001700010030C946A040C940C050C9483040C94E6
:1001800001030C9479040C9405030C94B0040C94B2
:1001900032040C9436030C943B030C940B050C9422
:1001A00028030C949E030C9419040C9409030C94DA
:1001B00012040C9475070C944C04000021002400D8
:1001C00027002A002D003000330001010000040147
:1001D00007010A0100002200250028002B002E0044
:1001E0003100340002010000050108010B0100008C
:1001F00020002300260029002C002F0032000001DF
:1002000000000301060109010505050507050808A9
:100210000808020202020A0A080804040404010190
:1002200001010101010103030303030303030407A5
:1002300007070C0C0C0C0C0C0C0C0202020206063C
:100240000606060606060B0B0B0B0B0B0B0B01022F
:1002500010202008081020401020408002010201D8
:100260000804020101020408102040808040201090
:1002700008040201800402018040201008040201E9
:100280000804020101020408102040800102040851
:100290001020408000000A0B02090C0D0E08070315
:1002A0000401000000000000000000000000000049
:1002B000000000000000000000000000000000003E
:1002C00012111000000000000000000000000000FB
:1002D00000000000000000000000570E11241FBEA7
:1002E000CFEFD1E2DEBFCDBF00E00CBF12E0A0E057
:1002F000B2E0E0E5F4E200E00BBF02C007900D922F
:10030000A634B107D9F723E0A6E4B2E001C01D92FC
:10031000AD37B207E1F711E0CEE6D1E000E006C06C
:1003200021970109802FFE010E940A12CD36D107C4
:1003300080E00807A9F70E94960A0C9426120C94F4
:100340000000CF92DF92EF92FF92DC01A03282E0B8
:10035000B807D4F5A53BB10514F0A4EBB0E040918B
:10036000630328E830E0241B310947FD3395220F51
:10037000331F220F331F6901330FEE08FF0840912E
:10038000640328E532E0241B310947FD3395220F31
:10039000331F220F331F032E000C440B550B2C1957
:1003A0003D094E095F09B7FF02C0B0E0A0E00E941E
:1003B000110F24EB30E040E050E00E94E70EC20E47
:1003C000D31EE41EF51ED601E0916203E03380F5F2
:1003D0002091630388E890E0821B910927FD9395A3
:1003E000880F991F880F991FA817B90784F02091CB
:1003F000640388E592E0821B910927FD9395880F9D
:10040000991F880F991FA817B9070CF4CD010297FF
:10041000880F991F4FB7F8942E2F30E0F901EE0F97
:10042000FF1FE20FF31FEE52FD4F928381834FBFF8
:10043000FF90EF90DF90CF90089596E0899FD001D4
:100440001124AD59BD4F90967C936E935F9791E0C8
:1004500091969C939197E091D002F091D102909166
:10046000CF02992339F0309751F0811108C0809163
:100470007F021994309719F05C968C91FACF089509
:10048000CF92DF92EF92FF920F931F9396E0899F96
:10049000F0011124ED59FD4F11A2278D30A121301B
:1004A000310551F178F02230310509F451C0233083
:1004B000310509F452C01F910F91FF90EF90DF902A
:1004C000CF9008956623B9F361E070E00E941D02A9
:1004D0002FB7F89480915F0290916002A091610221
:1004E000B09162022FBF8093BB029093BC02A09395
:1004F000BD02B093BE02DFCF9FB7F894C0905F02F9
:10050000D0906002E0906102F09062029FBF009183
:10051000BB021091BC022091BD023091BE02C01AF4
:10052000D10AE20AF30A0091CD021091CE0230E026
:1005300020E00C151D052E053F0550F462E070E02B
:100540001F910F91FF90EF90DF90CF900C941D02C0
:100550006111B1CF63E070E0F3CF70E060E0F0CF05
:10056000AF92BF92CF92DF92EF92FF920F931F93C1
:10057000CF93DF936C017B018B01040F151FEB01FF
:100580005E01AE18BF08C017D10759F06991D601B6
:10059000ED91FC910190F081E02DC6011995892B18
:1005A00079F7C501DF91CF911F910F91FF90EF90E7
:1005B000DF90CF90BF90AF9008958150823108F0C6
:1005C0005AC0E82FF0E08827E751FD4F8F4F0C9479
:1005D0000A1209030D03FB02010305033B03100389
:1005E00016031A032003240328032E0332033B03BC
:1005F00036033C034003809180008F778093800016
:100600000895809180008F7DF9CF80918000877F51
:10061000F5CF84B58F7784BD089584B58F7DFBCFEA
:100620008091B0008F778093B00008958091B000E2
:100630008F7DF9CF809190008F77809390000895FF
:10064000809190008F7DF9CF80919000877FF5CFCA
:100650008091A0008F778093A00008958091A000E2
:100660008F7DF9CF8091A000877FF5CF8091200109
:100670008F77809320010895809120018F7DF9CF9D
:1006800080912001877FF5CFCF93DF93282F30E033
:10069000F901EC56FD4F8491F901E25BFD4FD491D5
:1006A000F901E85FFD4FC491CC23A1F081110E94B4
:1006B000DD02EC2FF0E0EE0FFF1FE251FE4FA5919F
:1006C000B491EC91ED2381E090E009F480E0DF91BA
:1006D000CF91089580E090E0FACF862F0C944403E8
:1006E0001F93CF93DF93282F30E0F901EC56FD4F95
:1006F0008491F901E25BFD4FD491F901E85FFD4F70
:10070000C491CC23A9F0162F81110E94DD02EC2F99
:10071000F0E0EE0FFF1FEC52FE4FA591B4918FB7A2
:10072000F894EC91111108C0D095DE23DC938FBFB3
:10073000DF91CF911F910895DE2BF8CF862F642F84
:100740000C947003CF93DF9390E0FC01E25BFD4FCC
:100750002491885F9D4FFC0184918823C9F090E02B
:10076000880F991FFC01E654FE4FA591B491FC013E
:10077000EC52FE4FC591D49161110DC09FB7F89412
:100780008C91209582238C938881282328839FBF76
:10079000DF91CF910895623051F49FB7F8943C9166
:1007A000822F809583238C93E8812E2BEFCF8FB7F8
:1007B000F894EC912E2B2C938FBFEACFCF93DF933D
:1007C000EC0161E083E00E94A203209731F460E035
:1007D00083E0DF91CF910C947003CF3FD10511F4EA
:1007E00061E0F6CFE7E9F2E0E491E150E23108F0B0
:1007F000B2C0F0E08827E050FC4F8F4F0C940A12F3
:10080000120419041E0428043204AB043C044404FA
:100810004C04560460046A0479048304AB048D0418
:100820009704A10484B5806884BDC7BDDF91CF91D2
:10083000089584B5806284BDC8BDF8CF80918000E2
:10084000806880938000D0938900C0938800EECFA9
:1008500080918000806280938000D0938B00C09351
:100860008A00E4CF80918000886080938000D093DC
:100870008D00C0938C00DACF8091B00080688093A7
:10088000B000C093B300D2CF8091B000806280935B
:10089000B000C093B400CACF80919000806880936C
:1008A0009000D0939900C0939800C0CF80919000A1
:1008B000806280939000D0939B00C0939A00B6CF43
:1008C00080919000886080939000D0939D00C093A9
:1008D0009C00ACCF8091A00080688093A0008091A4
:1008E000A0008F7B8093A000D093A900C093A800A4
:1008F0009DCF8091A00080628093A000D093AB0038
:10090000C093AA0093CF8091A00088608093A0003C
:10091000D093AD00C093AC0089CF80912001806856
:1009200080932001D0932901C09328017FCF80912B
:100930002001806280932001D0932B01C0932A0173
:1009400075CF80912001886080932001D0932D0184
:10095000C0932C016BCFC038D1050CF041CF37CFFD
:10096000862F642F0C94A2033FB7F89480914C0219
:1009700090914D02A0914E02B0914F0226B5A89BD6
:1009800005C02F3F19F00196A11DB11D3FBFBA2F21
:10099000A92F982F8827BC01CD01620F711D811DE1
:1009A000911D42E0660F771F881F991F4A95D1F766
:1009B00008958F929F92AF92BF92CF92DF92EF9263
:1009C000FF924B015C010E94B4046B017C010E9408
:1009D000B4046C197D098E099F09683E7340810536
:1009E0009105A8F321E0821A9108A108B10888EEC8
:1009F000C80E83E0D81EE11CF11C81149104A104EF
:100A0000B10429F7FF90EF90DF90CF90BF90AF90A7
:100A10009F908F900895089590E080E00895AF92A0
:100A2000BF92CF92DF92EF92FF920F931F93CF93DB
:100A3000DF936B017A01EC01C95BDD4F28813CE05B
:100A4000389F8001399F100D1124A0904602B12CCF
:100A500027FF1FC0FB011182108288818F5F88836E
:100A600088819801280F311D87FD3A95F6012A15D6
:100A70003B051CF488818C30C4F1808191810496FF
:100A800080349C4908F473C0F601808191810496FA
:100A900070C088819801280F311D87FD3A952A156D
:100AA0003B05DCF68881A801480F511D87FD5A954A
:100AB000FA01EE0FFF1FE40FF51FEE52FD4F80818C
:100AC00086FFCBCF8881F801E80FF11D87FDFA95ED
:100AD000CF01EE0FFF1FE80FF91FEE52FD4F80818F
:100AE00060E08F730E947003B8CF8081918128816C
:100AF000A801420F511D27FD5A959A01FA01EE0FE8
:100B0000FF1FE20FF31FEE52FD4F21813281820F52
:100B1000931FF7019183808388819801280F311DED
:100B200087FD3A95F901EE0FFF1FE20FF31FEE521A
:100B3000FD4F808186FF22C08881080F111D87FD2F
:100B40001A95F801EE0FFF1FE00FF11FEE52FD4F57
:100B5000808161E08F73DF91CF911F910F91FF90A2
:100B6000EF90DF90CF90BF90AF900C94700380E433
:100B70009CE9F701918380838FEF8883DF91CF9188
:100B80001F910F91FF90EF90DF90CF90BF90AF90AB
:100B900008958F929F92AF92BF920F931F93CF931E
:100BA000DF93CDB7DEB7A1970FB6F894DEBF0FBEC7
:100BB000CDBF19A2423008F44AE08E010F5D1F4FED
:100BC000842E912CB12CA12CA50194010E94190F07
:100BD000E62FB901CA01EA3044F5E05DD801EE9391
:100BE0008D01232B242B252B79F790E080E01097A3
:100BF00069F0FD0101900020E9F73197AF014A1B30
:100C00005B0BBD0185E693E00E94B002A1960FB692
:100C1000F894DEBF0FBECDBFDF91CF911F910F9132
:100C2000BF90AF909F908F900895E95CD7CFFC0163
:100C300001900020E9F73197AF01481B590BBC0127
:100C400085E693E00C94B002CF93DF93EC0160E073
:100C50008E810E94700361E08E810E94700360E0CB
:100C60008E810E9470038BE891E00197F1F7DF918C
:100C7000CF910895CF92DF92EF92FF920F931F933F
:100C8000CF93DF936C017C0187E0E80EF11CD0E08C
:100C9000C0E0062F10E0B8010C2E02C075956795D4
:100CA0000A94E2F76170F70181917F010E9470035D
:100CB0002196C430D10579F7C601DF91CF911F91FC
:100CC0000F91FF90EF90DF90CF900C942406CF927D
:100CD000DF92EF92FF920F931F93CF93DF93EC017C
:100CE000F62E642F8C810E9470038D818F3F19F046
:100CF00060E00E9470030F2D10E08F8584FF25C0F7
:100D00006E0187E0C80ED11CF12CE12CB8010E2C2D
:100D100002C0759567950A94E2F76170F6018191BA
:100D20006F010E947003FFEFEF1AFF0A88E0E816D8
:100D3000F10461F7CE01DF91CF911F910F91FF90E8
:100D4000EF90DF90CF900C942406B80184E0759565
:100D500067958A95E1F7CE010E943A066F2DCE0184
:100D6000DF91CF911F910F91FF90EF90DF90CF9087
:100D70000C943A0640E0682F85E693E00C946706F1
:100D8000CF93DF93823029F490917403986090930D
:100D90007403809378031092790380E480937A033C
:100DA00080E180937B0380E580937C0361E0809108
:100DB00069030E94A20380916A038F3F19F061E0EA
:100DC0000E94A20361E080916B030E94A203C5E62A
:100DD000D3E09E01255633408091740384FD0BC0FF
:100DE00084E090E021962817390744F461E08E8171
:100DF0000E94A203EECF88E090E0F4CF8BE39DE069
:100E00000197F1F760E0809169030E94700360E050
:100E100080916B030E94700380916A038F3F19F0E9
:100E200060E00E9470038091740384FD39C063E028
:100E300085E693E00E943A06CBE4D6E4CE01019722
:100E4000F1F763E085E693E00E943A062197F1F717
:100E500063E085E693E00E943A0683E592E001971D
:100E6000F1F762E085E693E00E943A068091740310
:100E700080620E94BA0684E0809375038CE00E9431
:100E8000BA0681E00E94BA068BE39FE10197F1F771
:100E900082E08093760386E0DF91CF910C94BA06CE
:100EA00080620E94BA068BE496E40197F1F7809184
:100EB000740380620E94BA0683E592E00197F1F71D
:100EC0008091740380620E94BA06D0CF909178031B
:100ED000691710F06FEF690FE62FF0E0EB59FC4F48
:100EE0009489890F80680C94BA0641E00E946706D5
:100EF00081E090E00895CF92DF92EF92FF926C0133
:100F0000990FEE08FF08F7FE16C041E06DE285E696
:100F100093E00E94670666277727CB016C197D094D
:100F20008E099F094AE00E94C9050196FF90EF9043
:100F3000DF90CF9008954AE0C701B601FF90EF908F
:100F4000DF90CF900C94C90581E00E94BA068BE334
:100F50009FE10197F1F760E080E00E9466078EE272
:100F600092E00E94170660E08AE00E946607809186
:100F70005C0290915D020E947B0761E080E00E942C
:100F8000660785E392E00E94170661E08AE00E940E
:100F90006607609158027091590280915A029091AF
:100FA0005B020E945D10CB010E947B0765E285E633
:100FB00093E00C947507EF92FF920F931F93CF93DA
:100FC000DF9300915C0210915D0280915402909138
:100FD0005502EE24EA94FE2C081719071CF0EE24A3
:100FE000E394F12C90935D0280935C02C0915C02CB
:100FF000D0915D02C131D10550F5C017D10739F14B
:10100000CE0144E0880F991F4A95E1F78F3F910583
:1010100009F0DCF48C2F8295807F90E00E94DE0343
:10102000C01BD10BC370DD27CD2B11F40E94A40788
:1010300064E670E080E090E00E94D90480915C0258
:1010400090915D028E0D9F1DCDCF8FEFE6CFC80131
:1010500034E0880F991F3A95E1F78F3F910551F1E0
:101060004CF180E190E090935D0280935C02C0912E
:101070005C02D0915D0280E0D7FD0DC0CE0124E07E
:10108000880F991F2A95E1F78F3F910509F0F4F435
:101090008C2F8295807F90E00E94DE03D0935502D2
:1010A000C0935402DF91CF911F910F91FF90EF9069
:1010B0000C94A40717FD05C010935D0200935C0219
:1010C000D6CF10925D0210925C02D1CF8FEFE3CFAA
:1010D0004F925F926F927F928F929F92AF92BF9248
:1010E000CF92DF92EF92FF92CF93DF9300D01F92C7
:1010F000CDB7DEB7C0905802D0905902E0905A02A6
:10110000F0905B0220E030E040EF51E4C701B6010F
:101110000E946C1118160CF0A3C080E090E0A0EFC4
:10112000B1E48093580290935902A0935A02B0936D
:101130005B02C0905802D0905902E0905A02F090A1
:101140005B028090500290905102A0905202B090A9
:101150005302A7019601C501B4010E946C11181633
:101160000CF08DC08FEF9FEF809258029092590241
:10117000A0925A02B0925B029C01990F440B550B4E
:1011800029833A834B835C834090580250905902E4
:1011900060905A0270905B02A7019601C301B201F0
:1011A0000E944A0F4B015C019F7720E030E040E451
:1011B00050E40E946C1187FD65C020E030E048ECEF
:1011C00052E4C301B2010E94EB0F0E94B70F20E06E
:1011D00030E044E353E40E9479112BED3FE049E411
:1011E00050E40E94EB0F2DE33AE04FE051E40E94FF
:1011F00079110E945D10DC01CB014E96A11DB11D3D
:101200000E94A101C501B4010E945D10CB0165E0FF
:1012100070E00E94F611892B11F40E94A40762E38A
:1012200070E080E090E00E94D90469817A818B812E
:101230009C810E9495109B01AC01609158027091B5
:10124000590280915A0290915B020E944B0F609369
:1012500058027093590280935A0290935B0294CF84
:1012600020E030E040EC50ECC701B6010E94E60FF0
:1012700087FF5FCF80E090E0A0ECB0EC52CF81E040
:1012800090E072CFC0925802D0925902E0925A0276
:10129000F0925B0220E030E048EC52E4C701B60176
:1012A0000E94EB0F0E94B70F20E030E044E353E4CC
:1012B0000E9479112BED3FE049E450E40E94EB0FCE
:1012C0002DE33AE04FE051E40E9479110E945D1055
:1012D000DC01CB014E96A11DB11D0E94A1010E940F
:1012E000A4078091580290915902A0915A02B0919E
:1012F0005B028093500290935102A0935202B093EC
:1013000053020F900F900F900F90DF91CF91FF90AD
:10131000EF90DF90CF90BF90AF909F908F907F9095
:101320006F905F904F9008951F920F920FB60F929B
:1013300011242F933F938F939F93AF93BF938091EB
:101340005F0290916002A0916102B09162023091BF
:101350004B0223E0230F2D3758F50196A11DB11D37
:1013600020934B0280935F0290936002A0936102EE
:10137000B093620280914C0290914D02A0914E0276
:10138000B0914F020196A11DB11D80934C02909324
:101390004D02A0934E02B0934F02BF91AF919F9127
:1013A0008F913F912F910F900FBE0F901F90189526
:1013B00026E8230F0296A11DB11DD2CF1F920F92D6
:1013C0000FB60F9211240BB60F922F933F934F93AA
:1013D0005F936F937F938F939F93AF93BF93EF939D
:1013E000FF9348E251E064E271E090E080E00E9407
:1013F0000F05FF91EF91BF91AF919F918F917F91D9
:101400006F915F914F913F912F910F900BBE0F9075
:101410000FBE0F901F9018951F920F920FB60F924C
:1014200011240BB60F922F933F934F935F936F93BB
:101430007F938F939F93AF93BF93EF93FF9348EA6C
:1014400050E064EA70E083E090E00E940F05FF91B5
:10145000EF91BF91AF919F918F917F916F915F912C
:101460004F913F912F910F900BBE0F900FBE0F9099
:101470001F9018951F920F920FB60F9211240BB662
:101480000F922F933F934F935F936F937F938F931D
:101490009F93AF93BF93EF93FF9348E950E064E9C4
:1014A00070E082E090E00E940F05FF91EF91BF9104
:1014B000AF919F918F917F916F915F914F913F91EC
:1014C0002F910F900BBE0F900FBE0F901F9018958D
:1014D0001F920F920FB60F9211240BB60F922F93FB
:1014E0003F934F935F936F937F938F939F93AF93AC
:1014F000BF93EF93FF9348E850E064E870E081E029
:1015000090E00E940F05FF91EF91BF91AF919F91E5
:101510008F917F916F915F914F913F912F910F909C
:101520000BBE0F900FBE0F901F901895789484B546
:10153000826084BD84B5816084BD85B5826085BDCF
:1015400085B5816085BD80916E00816080936E005D
:10155000109281008091810082608093810080914F
:101560008100816080938100809180008160809300
:1015700080008091B10084608093B1008091B000C0
:1015800081608093B000809191008260809391008F
:1015900080919100816080939100809190008160A2
:1015A000809390008091A10082608093A10080913F
:1015B000A10081608093A1008091A0008160809350
:1015C000A0008091210182608093210180912101FE
:1015D00081608093210180912001816080932001AE
:1015E00080917A00846080937A0080917A00826092
:1015F00080937A0080917A00816080937A00809154
:101600007A00806880937A001092C10061E083E0E4
:101610000E94A20310925D0210925C021092550289
:10162000109254020E94DB0761E082E00E94A20354
:1016300080916203803308F054C061E082E00E9430
:10164000A20380916203282F30E0F901EE0FFF1F03
:10165000E20FF31FEE52FD4F9081907C92609083D9
:101660009EE89093630394E6909364032CE0622FCA
:101670000E94EA11829FB001112430E020E0AB010A
:10168000420F531FFA01EE0FFF1FE40FF51FEE523A
:10169000FD4F908196FD17C02F5F3F4F2C303105D5
:1016A00071F7813009F077C01092800082E080935A
:1016B00081001092850010928400B19A80916F0091
:1016C000826080936F00E09162038E2F90E0FC01B6
:1016D000EE0FFF1FE80FF91FEE52FD4F808180646F
:1016E0008083109258021092590210925A0210925E
:1016F0005B0210925002109251021092520210920C
:1017000053020E94680882E00E94C0060E94A4075B
:1017100010925E025FE9252E52E0352E412C512CAD
:1017200060EC662E762CDD24D394D092CF028FB756
:10173000F89440915F025091600260916102709153
:1017400062028FBF8091BF029091C002A091C1023E
:10175000B091C202481B590B6A0B7B0B8091CB02E4
:101760009091CC02B0E0A0E084179507A607B707D8
:1017700008F046C1C0E08091C902C817C0F5E091E9
:10178000C502F091C602EC0FF11D62E080810E945B
:10179000A203CF5FF0CF823061F41092900080936B
:1017A0009100109295001092940088BB8093710074
:1017B0008ACF833069F41092A00082E08093A10068
:1017C0001092A5001092A40089BB809372007BCF79
:1017D000811179CF1092200182E080932101109233
:1017E0002501109224018ABB809373006CCFC12C19
:1017F0008091CA02C81608F061C00C2D10E0E0917B
:10180000C702F091C802E00FF11F61E080810E94E1
:10181000A203E091C702F091C802E00FF11F60E05F
:1018200080810E94700381E090E0A0E0B0E00C2C89
:1018300004C0880F991FAA1FBB1F0A94D2F75C012E
:101840007C01E094F094912C8091C9029816F8F4F0
:10185000C92DD0E0E091C502F091C602EC0FFD1F4A
:1018600080810E9444032496CC0FDD1FCD59DD4FAB
:10187000892B41F4888199818A299B2999838883BE
:101880009394E2CF888199818E219F21F7CFE091B7
:10189000C702F091C802E00FF11F61E080810E9451
:1018A00070038091C7029091C802080F191F60E071
:1018B000D8018C910E94A203C3949ACF33E6E32E01
:1018C00032E0F32EE7018F8D98A1892B31F41C8E25
:1018D000EFEFFFEFFE8FED8F19A226962C163D0637
:1018E00091F710E08091C902181708F053C000E08A
:1018F000812F90E0880F991F9C0125593D4F590178
:101900002091CA02021708F043C0D5016D917C9165
:10191000002E02C0769567950A94E2F7129F900117
:101920001124200F311DE3E6F2E080E0458D568D55
:101930002417350709F4B9C18F5F36968A30B1F79D
:1019400060FF24C0E3E6F2E090E080E0448D4111C6
:1019500018C0E091C302F091C402E20FF31F40816E
:10196000B6E0B89FF001B99FF00D1124ED59FD4F7D
:10197000448F368F258F10A2178E61E00E9440029F
:1019800005C0019636968A30910501F70F5FB8CFF2
:101990001F5FA8CF80E0F70191A19111892FF6E098
:1019A000EF0EF11CEC16FD06B1F79FB7F8944091CD
:1019B0005F025091600260916102709162029FBF6C
:1019C0004093BF025093C0026093C1027093C20261
:1019D0008823B1F080918402882391F08091820263
:1019E00090918302019761F4C0917F02C1110BC0F5
:1019F000A0E0B0E0AB2B09F498CE0E94000093CE9B
:101A00001092CF02F5CF80915E02811151C0C9348E
:101A100009F44AC084F4C43499F180915C02909135
:101A20005D020196C63421F790935D0280935C02BB
:101A30000E94DB07DDCFC33591F1C53541F0CC34D1
:101A4000B9F680915C0290915D020197EDCF20E0A4
:101A500030E040E450E46091580270915902809166
:101A60005A0290915B020E944B0F60935802709350
:101A7000590280935A0290935B020E946808B8CF83
:101A800020E030E040E450E4609158027091590247
:101A900080915A0290915B020E944A0FE6CFD09249
:101AA0005E0210925702A4CF82E080935E02F9CFCB
:101AB000813009F045C090ED9C0F9A3030F0C3356D
:101AC00009F096CF10925E02B3CF909157029923FE
:101AD00089F080915C0290915D020A978CF020E180
:101AE00030E030935D0220935C020E94DB0710928D
:101AF0005E027ECF8093570210925D0210925C02CC
:101B000020915C0230915D024AE0429FC001439FF8
:101B1000900D11240C2E000CDD0BE097C80FD91F7F
:101B2000D0935D02C0935C0260E08AE00E94660789
:101B3000CE010E947B078FE392E00E94170658CFE8
:101B4000823009F055CF80ED8C0F8A3040F0C535DA
:101B500031F0C93409F04CCF10925E028ECF8091E3
:101B60005702882399F18090580290905902A090D2
:101B70005A02B0905B0220E030E040E151E4C50140
:101B8000B4010E946C11181694F020E030E0A90115
:101B9000C501B4010E94E60F87FF7FC04092580242
:101BA0005092590260925A0270925B020CC080E01F
:101BB00090E0A0EFB1E48093580290935902A09373
:101BC0005A02B0935B020E94680891CFD0925702EC
:101BD000109258021092590210925A0210925B020F
:101BE000C53559F5D092560261E08AE00E94660739
:101BF0008090580290905902A0905A02B0905B02D7
:101C000020E030E0A901C501B4010E94E60F811176
:101C10000AC080915602882331F041E06DE285E6EA
:101C200093E00E946706C501B4010E945D10CB01DC
:101C30000E947B078EE392E080CF1092560220E054
:101C400030E040E251E46091580270915902809175
:101C50005A0290915B020E9479114B015C016C2F3A
:101C6000CC0F770B60537109072E000C880B990B72
:101C70000E94951020915602222391F09B01AC0105
:101C8000C501B4010E944A0F609358027093590233
:101C900080935A0290935B02A7CFC53581F6A4CFFB
:101CA000A50194010E944B0FEFCF617067CE809128
:101CB0004602803308F087C091E0980F9093460267
:101CC0008093620390E0FC01EE0FFF1FE80FF91F05
:101CD000EE52FD4F88EB9BE0928381831092650268
:101CE000109269021092680210926A0280E192E0FA
:101CF0009093640280936302EFE7F2E01082148213
:101D000013821582369682E0EB3BF807B9F78AE139
:101D100092E09093C6028093C50286E192E0909390
:101D2000C8028093C70284E08093C9028093CA02EC
:101D30002EE132E03093C4022093C3022AE030E067
:101D40003093CC022093CB0224EF31E03093CE02CB
:101D50002093CD021092D1021092D0021092BF02B5
:101D60001092C0021092C1021092C2021092CF02D1
:101D7000109268031092670324E032E03093660308
:101D80002093650399E0909369039FEF90936A0312
:101D900098E090936B0397E090936C0396E0909398
:101DA0006D0395E090936E0380936F031092700320
:101DB00010927103109272031092730310927403C5
:101DC00081E00C94C0068FEF8093620387CF052ECD
:101DD00097FB1EF400940E94FE0E57FD07D00E9450
:101DE000190F07FC03D04EF40C94FE0E509540954D
:101DF000309521953F4F4F4F5F4F089590958095B7
:101E0000709561957F4F8F4F9F4F08950E943B0FB4
:101E1000A59F900DB49F900DA49F800D911D11243E
:101E20000895B7FF0C94060F0E94060F821B930BB8
:101E30000895A1E21A2EAA1BBB1BFD010DC0AA1F0B
:101E4000BB1FEE1FFF1FA217B307E407F50720F023
:101E5000A21BB30BE40BF50B661F771F881F991F9E
:101E60001A9469F760957095809590959B01AC01E7
:101E7000BD01CF010895A29FB001B39FC001A39FF0
:101E8000700D811D1124911DB29F700D811D1124B3
:101E9000911D08955058BB27AA270E94620F0C94E9
:101EA00032110E94241138F00E942B1120F039F4D5
:101EB0009F3F19F426F40C94FA100EF4E095E7FB1A
:101EC0000C94F410E92F0E94431158F3BA176207DB
:101ED00073078407950720F079F4A6F50C94651133
:101EE0000EF4E0950B2EBA2FA02D0B01B901900135
:101EF0000C01CA01A0011124FF27591B99F0593F79
:101F000050F4503E68F11A16F040A22F232F342FC0
:101F10004427585FF3CF469537952795A795F0400E
:101F20005395C9F77EF41F16BA0B620B730B840B23
:101F3000BAF09150A1F0FF0FBB1F661F771F881FDB
:101F4000C2F70EC0BA0F621F731F841F48F4879533
:101F500077956795B795F7959E3F08F0B0CF939525
:101F6000880F08F09927EE0F979587950895DF93CE
:101F7000DD27B92FBF7740E85FE31616170648073D
:101F80005B0718F4D92F0E9471119F938F937F9351
:101F90006F930E94E611E4EEF0E00E94FD100E94B3
:101FA00032112F913F914F915F910E948C11DD234F
:101FB00051F09058A2EA2AED3FE049EC5FE3D07877
:101FC0005D270E94620FDF910C9432110E94D010A5
:101FD00008F481E008950E94FF0F0C9432110E94D2
:101FE0002B1158F00E94241140F029F45F3F29F092
:101FF0000C94F41051110C9466110C94FA100E9478
:10200000431168F39923B1F3552391F3951B550BB5
:10201000BB27AA2762177307840738F09F5F5F4FBB
:10202000220F331F441FAA1FA9F335D00E2E3AF0FA
:10203000E0E832D091505040E695001CCAF72BD012
:10204000FE2F29D0660F771F881FBB1F2617370763
:102050004807AB07B0E809F0BB0B802DBF01FF2795
:1020600093585F4F3AF09E3F510578F00C94F4106E
:102070000C9466115F3FE4F3983ED4F38695779510
:102080006795B795F7959F5FC9F7880F911D96954E
:10209000879597F90895E1E0660F771F881FBB1FAA
:1020A000621773078407BA0720F0621B730B840B57
:1020B000BA0BEE1F88F7E09508950E9464106894AB
:1020C000B1110C94661108950E944B1188F09F572E
:1020D00098F0B92F9927B751B0F0E1F0660F771F4C
:1020E000881F991F1AF0BA95C9F714C0B13091F042
:1020F0000E946511B1E008950C946511672F782F47
:102100008827B85F39F0B93FCCF386957795679506
:10211000B395D9F73EF490958095709561957F4F72
:102120008F4F9F4F0895E89409C097FB3EF4909518
:102130008095709561957F4F8F4F9F4F9923A9F0A0
:10214000F92F96E9BB279395F6958795779567952F
:10215000B795F111F8CFFAF4BB0F11F460FF1BC073
:102160006F5F7F4F8F4F9F4F16C0882311F096E906
:1021700011C0772321F09EE8872F762F05C06623B4
:1021800071F096E8862F70E060E02AF09A95660F6D
:10219000771F881FDAF7880F9695879597F9089526
:1021A000990F0008550FAA0BE0E8FEEF1616170668
:1021B000E807F907C0F012161306E407F50798F0D0
:1021C000621B730B840B950B39F40A2661F0232BE9
:1021D000242B252B21F408950A2609F4A140A69565
:1021E0008FEF811D811D089597F99F6780E870E04A
:1021F00060E008959FEF80EC0895DF93CF931F93E5
:102200000F93FF92EF92DF927B018C01689406C0DE
:10221000DA2EEF010E948C11FE01E894A591259120
:10222000359145915591A6F3EF010E94620FFE0191
:102230009701A801DA9469F7DF90EF90FF900F9172
:102240001F91CF91DF91089500240A941616170666
:1022500018060906089500240A9412161306140697
:1022600005060895092E0394000C11F4882352F0FA
:10227000BB0F40F4BF2B11F460FF04C06F5F7F4FB2
:102280008F4F9F4F089557FD9058440F551F59F099
:102290005F3F71F04795880F97FB991F61F09F3F53
:1022A00079F087950895121613061406551FF2CF7C
:1022B0004695F1DF08C0161617061806991FF1CFCC
:1022C00086957105610508940895E894BB276627F3
:1022D0007727CB0197F908950E94D01008F48FEF6B
:1022E00008959B01AC0160E070E080E89FE30C94EE
:1022F000EB0F0E948C110C9432110E94241138F0C3
:102300000E942B1120F0952311F00C94F4100C94E2
:10231000FA1011240C9466110E94431170F3959FDA
:10232000C1F3950F50E0551F629FF001729FBB27CC
:10233000F00DB11D639FAA27F00DB11DAA1F649F68
:102340006627B00DA11D661F829F2227B00DA11D1B
:10235000621F739FB00DA11D621F839FA00D611DA1
:10236000221F749F3327A00D611D231F849F600DC2
:10237000211D822F762F6A2F11249F5750409AF0EB
:10238000F1F088234AF0EE0FFF1FBB1F661F771F77
:10239000881F91505040A9F79E3F510580F00C9442
:1023A000F4100C9466115F3FE4F3983ED4F38695E5
:1023B00077956795B795F795E7959F5FC1F7FE2BE2
:1023C000880F911D9695879597F908959B01AC010B
:1023D0000C947911991B79E004C0991F961708F0A5
:1023E000961B881F7A95C9F78095089597FB072E4D
:1023F00016F4009407D077FD09D00E94121207FC52
:1024000005D03EF4909581959F4F08957095619504
:102410007F4F0895EE0FFF1F881F8BBF0790F69127
:10242000E02D1994AA1BBB1B51E107C0AA1FBB1FBB
:10243000A617B70710F0A61BB70B881F991F5A9550
:10244000A9F780959095BC01CD010895F894FFCF30
:10245000000000007507B0020C050B05000000002D
:10246000B0049E036D031A1B1C1D1617181937386C
:1024700039463435364C3132335553304944537034
:102480006565643A00496E636C696E653A002520A3
:06249000202020202000A6
:020000040003F7
:10E000000D9489F10D94B2F10D94B2F10D94B2F129
:10E010000D94B2F10D94B2F10D94B2F10D94B2F1F0
:10E020000D94B2F10D94B2F10D94B2F10D94B2F1E0
:10E030000D94B2F10D94B2F10D94B2F10D94B2F1D0
:10E040000D94B2F10D94B2F10D94B2F10D94B2F1C0
:10E050000D94B2F10D94B2F10D94B2F10D94B2F1B0
:10E060000D94B2F10D94B2F10D94B2F10D94B2F1A0
:10E070000D94B2F10D94B2F10D94B2F10D94B2F190
:10E080000D94B2F10D94B2F10D94B2F10D94B2F180
:10E090000D94B2F10D94B2F10D94B2F10D94B2F170
:10E0A0000D94B2F10D94B2F10D94B2F10D94B2F160
:10E0B0000D94B2F10D94B2F10D94B2F10D94B2F150
:10E0C0000D94B2F10D94B2F10D94B2F10D94B2F140
:10E0D0000D94B2F10D94B2F10D94B2F10D94B2F130
:10E0E0000D94B2F141546D656761323536300041AF
:10E0F000726475696E6F206578706C6F72657220DE
:10E1000073746B3530305632206279204D4C530099
:10E11000426F6F746C6F616465723E004875683F52
:10E1200000436F6D70696C6564206F6E203D200048
:10E130004350552054797065202020203D20005FF9
:10E140005F4156525F415243485F5F3D2000415658
:10E1500052204C696243205665723D20004743437C
:10E160002056657273696F6E203D20004350552024
:10E1700049442020202020203D20004C6F7720663D
:10E18000757365202020203D20004869676820665F
:10E190007573652020203D200045787420667573D6
:10E1A00065202020203D20004C6F636B2066757336
:10E1B000652020203D20004D617220203720323024
:10E1C000313300312E362E3800342E332E350056A2
:10E1D00023202020414444522020206F7020636F70
:10E1E00064652020202020696E73747275637469E1
:10E1F0006F6E2061646472202020496E74657272B3
:10E20000757074006E6F20766563746F7200726A49
:10E210006D702020006A6D70200057686174207056
:10E220006F72743A00506F7274206E6F7420737541
:10E2300070706F72746564004D7573742062652030
:10E2400061206C6574746572002000577269747483
:10E25000696E672045450052656164696E672045B7
:10E26000450045452065727220636E743D00504F35
:10E27000525400303D5A65726F2061646472003FF1
:10E280003D43505520737461747300403D454550C3
:10E29000524F4D207465737400423D426C696E6B41
:10E2A000204C454400453D44756D70204545505215
:10E2B0004F4D00463D44756D7020464C415348001B
:10E2C000483D48656C70004C3D4C69737420492F83
:10E2D0004F20506F72747300513D51756974005234
:10E2E0003D44756D702052414D00563D73686F7707
:10E2F00020696E7465727275707420566563746FF0
:10E30000727300593D506F727420626C696E6B00BD
:10E310002A0011241FBECFEFD1E2DEBFCDBF01E046
:10E320000CBF12E0A0E0B2E0EEE1FDEF03E00BBFB6
:10E3300002C007900D92A030B107D9F712E0A0E01B
:10E34000B2E001C01D92AE30B107E1F70F9460F367
:10E350000D948DFE01E20EBF0FEF0DBF11241FBE05
:10E360000D9460F30D9400F020E030E040ED57E0B4
:10E3700005C0FA013197F1F72F5F3F4F2817390792
:10E38000C0F308959C01260F311DC901A0E0B0E043
:10E390002F5F3F4FABBFFC018791882361F08093D3
:10E3A000C6008091C00086FFFCCF8091C0008064D1
:10E3B0008093C000EACF08958DE08093C6008091DD
:10E3C000C00086FFFCCF8091C00080648093C000B5
:10E3D0008AE08093C6008091C00086FFFCCF8091C8
:10E3E000C00080648093C00008950F94C2F10F9420
:10E3F000DCF10895FC019081992359F09093C600B7
:10E400008091C00086FFFCCF8091C0008064809323
:10E41000C0003196992379F70895282F982F929567
:10E420009F70892F805D8A3308F0895F8093C600D2
:10E430008091C00086FFFCCF8091C00080648093F3
:10E44000C000822F8F70982F905D9A3308F0995FEB
:10E450009093C6008091C00086FFFCCF8091C000E1
:10E4600080648093C00008959C01FB01853691056E
:10E470001CF46330710594F0C90164E670E00F94F8
:10E480002EFE605D7F4F6093C6008091C00086FFC6
:10E49000FCCF8091C00080648093C0002B30310598
:10E4A00014F43297B4F0C90164E670E00F942EFEC4
:10E4B0006AE070E00F942EFE605D7F4F6093C600AF
:10E4C0008091C00086FFFCCF8091C0008064809363
:10E4D000C000C9016AE070E00F942EFEC0968093E0
:10E4E000C6008091C00086FFFCCF8091C000806490
:10E4F0008093C00008951F93182F8EE692EE60E07F
:10E500000F94C2F11093C6008091C00086FFFCCF2B
:10E510008091C00080648093C0000F94DCF11F9153
:10E5200008952F923F924F925F926F927F928F92B7
:10E530009F92AF92BF92CF92DF92EF92FF920F9392
:10E540001F93DF93CF93CDB7DEB762970FB6F894E2
:10E55000DEBF0FBECDBF382E622ECA01DB015C01CB
:10E560006D01772420E2222E2E010894411C511CBB
:10E570008BC081E0A81680E0B80681E0C80680E084
:10E58000D80628F0C601AA27BB270F940DF2BB2797
:10E59000AD2D9C2D8B2D0F940DF28A2D0F940DF225
:10E5A0002092C6008091C00086FFFCCF8091C00001
:10E5B00080648093C0009DE29093C6008091C0006B
:10E5C00086FFFCCF8091C00080648093C0002092C1
:10E5D000C6008091C00086FFFCCF8091C00080649F
:10E5E0008093C00019828601750188249924A1E0D6
:10E5F0003A1651F03A1620F0B2E03B1661F409C029
:10E600000BBFF701779007C0C7010F9477FE782EF4
:10E6100002C0F7017080872D0F940DF22092C60082
:10E620008091C00086FFFCCF8091C0008064809301
:10E63000C000872D8052F401EF70F0708F3520F408
:10E64000E40DF51D708204C0E40DF51D8EE280839B
:10E650000894E11CF11C011D111D0894811C911CE2
:10E6600090E18916910409F0C2CF80E190E0A0E02A
:10E67000B0E0A80EB91ECA1EDB1E198AC2010F9493
:10E68000FAF10F94DCF16A94662009F072CF629679
:10E690000FB6F894DEBF0FBECDBFCF91DF911F91B3
:10E6A0000F91FF90EF90DF90CF90BF90AF909F9031
:10E6B0008F907F906F905F904F903F902F90089534
:10E6C0002F923F924F925F926F927F928F929F9282
:10E6D000AF92BF92CF92DF92EF92FF920F931F9370
:10E6E000DF93CF93CDB7DEB7CD53D1400FB6F894BB
:10E6F000DEBF0FBECDBF01E20EBF0FEF0DBF94B75F
:10E70000F894A89514BE80916000886180936000A1
:10E7100010926000789493FF05C0E0910002F091A0
:10E7200001021995279A2F9A8091C00082608093E8
:10E73000C00080E18093C40088E18093C1000000A4
:10E74000EE24FF24870144E0A42EB12CCC24DD2448
:10E7500024C0C5010197F1F70894E11CF11C011DCB
:10E76000111D21E2E2162EE4F20620E0020720E06D
:10E77000120718F031E0C32ED12CC801B70127ECE5
:10E780003BE140E050E00F9441FE611571058105C9
:10E79000910519F485B1805885B98091C00087FD35
:10E7A00003C0C114D104A9F2A6014F5F5F4FC25E3E
:10E7B000DE4F59834883CE51D140C25EDE4F8881FF
:10E7C0009981CE51D140019711F00D9410FEC05D9A
:10E7D000DE4F19821882C053D14060E0C15DDE4F28
:10E7E0001882CF52D14088249924C35DDE4F19820C
:10E7F0001882CD52D140C05EDE4F188219821A8233
:10E800001B82C052D140CE5CDE4F188219821A8220
:10E810001B82C253D140EE24FF2487010BBFF701B6
:10E8200007911691C45CDE4F19830883CC53D14005
:10E830000D940BFEC25EDE4F28813981CE51D1404E
:10E840002130310509F52091C600C25EDE4F1982E4
:10E850001882CE51D14022C02F5F3F4F4F4F5F4FA4
:10E86000213082E138078AE7480780E0580780F0C6
:10E87000C45CDE4FE881F981CC53D140EF5FFF4F9C
:10E8800019F0EE27FF27099420E030E040E050E047
:10E890008091C00087FFE0CF2091C600C35DDE4FAE
:10E8A00048815981CD52D1404F5F5F4FC35DDE4FEC
:10E8B00059834883CD52D140213209F063C64A3092
:10E8C000510508F05FC60894811C911C53E0851621
:10E8D000910409F059C600E010E018C081E280936D
:10E8E000C6008091C00086FFFCCF8091C00080648C
:10E8F0008093C0002F5F3F4F2931310579F70F9486
:10E90000DCF10F5F1F4F0530110519F020E030E0FA
:10E91000E5CF10920A0210920B0210920C02109294
:10E920000D02109206021092070210920802109235
:10E930000902109202021092030210920402109235
:10E9400005028FEE90EE60E00F94F5F180E191EE1C
:10E9500060E00F94C2F18091C00087FFFCCF9091DE
:10E96000C600903608F09F759032B8F09093C600BC
:10E970008091C00086FFFCCF8091C00080648093AE
:10E98000C000A0E2A093C6008091C00086FFFCCF2B
:10E990008091C00080648093C000983409F4D7C18E
:10E9A0009934B8F4923409F459C1933458F490333B
:10E9B00019F1903308F4E3C59F33A1F1903409F0C5
:10E9C000DEC5BDC0953409F470C1963409F0D7C5D1
:10E9D00098C1923509F42BC2933538F49C3409F46C
:10E9E000F5C1913509F0CBC518C2963509F445C279
:10E9F000993509F0C4C567C483E792EE62E00F94CD
:10EA0000F5F110920602109207021092080210927D
:10EA1000090210920A0210920B0210920C0210923C
:10EA20000D0213C18FE792EE62E00F94F5F18FEEC5
:10EA300090EE60E00F94F5F181E291EE60E00F94CA
:10EA4000C2F187EB91EE60E00F94F5F180E391EE77
:10EA500060E00F94C2F184EE90EE60E00F94F5F167
:10EA60008FE391EE60E00F94C2F186E090E061E008
:10EA700070E00F9434F20F94DCF18DE591EE60E0DC
:10EA80000F94C2F189EC91EE60E00F94F5F18EE401
:10EA900091EE60E00F94C2F183EC91EE60E00F9490
:10EAA000F5F18CE691EE60E00F94C2F18EE10F94E7
:10EAB0000DF288E90F940DF281E00F940DF20F949E
:10EAC000DCF18BE791EE60E00F94C2F119E0E0E039
:10EAD000F0E010935700E4918E2F0F940DF20F94F5
:10EAE000DCF18AE891EE60E00F94C2F1E3E0F0E03F
:10EAF00010935700E4918E2F0F940DF20F94DCF1D8
:10EB000089E991EE60E00F94C2F1E2E0F0E0109349
:10EB10005700E4918E2F0F940DF20F94DCF188EAE8
:10EB200091EE60E00F94C2F1E1E0F0E01093570045
:10EB30001491812F0F940DF20F94DCF107CF8BE825
:10EB400092EE62E00F94F5F18BE492EE60E00F94A8
:10EB5000F5F10F94DCF100E010E019C0C8016F2D51
:10EB60000F947FFEFF2031F489E492EE60E00F9471
:10EB7000C2F10BC0F092C6008091C00086FFFCCFAE
:10EB80008091C00080648093C0000F5F1F4FC80158
:10EB900081519F41A0E0B0E0ABBFFC01F790BAE229
:10EBA000FB1621F0E2E000301E07C1F60F94DCF105
:10EBB0000F94DCF187E592EE60E00F94F5F10F948D
:10EBC000DCF1CC24DD2400E010E01EC0C8010F946D
:10EBD00077FEF82E882331F489E492EE60E00F94FA
:10EBE000C2F10BC08093C6008091C00086FFFCCFAD
:10EBF0008091C00080648093C000FE1419F00894D6
:10EC0000C11CD11C0F5F1F4FC80181519F41A0E063
:10EC1000B0E0ABBFFC01E790FAE2EF1621F022E092
:10EC20000030120799F60F94DCF10F94DCF182E6C4
:10EC300092EE60E00F94C2F1C60161E070E00F94C3
:10EC400034F20F94DCF10F94DCF110920202109276
:10EC50000302109204021092050278CE89E992EE26
:10EC600062E00F94F5F1279A2F9A16C02F9880E052
:10EC700090E0E0EDF7E03197F1F7019684369105E9
:10EC8000C1F72F9A80E090E0E0EDF7E03197F1F7DF
:10EC9000019684369105C1F78091C00087FFE6CFC9
:10ECA0008091C00087FFFCCF64C485EA92EE62E0E9
:10ECB0000F94F5F140910202509103026091040219
:10ECC0007091050281E020E10F9491F2809102029F
:10ECD00090910302A0910402B091050280509F4FD1
:10ECE000AF4FBF4F8093020290930302A0930402A0
:10ECF000B093050280509041A040B04008F426CE69
:10ED0000A4CF83EB92EE62E00F94F5F140910602FE
:10ED100050910702609108027091090280E020E1A1
:10ED20000F9491F28091060290910702A09108023F
:10ED3000B091090280509F4FAF4FBF4F80930602A2
:10ED400090930702A0930802B0930902FFCD80ECD4
:10ED500092EE62E00F94F5F183E792EE60E00F949B
:10ED6000F5F18FE792EE60E00F94F5F18BE892EE0B
:10ED700060E00F94F5F189E992EE60E00F94F5F10F
:10ED800085EA92EE60E00F94F5F183EB92EE60E09D
:10ED90000F94F5F180EC92EE60E00F94F5F187ECC2
:10EDA00092EE60E00F94F5F188ED92EE60E00F9442
:10EDB000F5F18FED92EE60E00F94F5F18AEE92EEB0
:10EDC00060E00F94F5F183E093EEBDCD87EC92EE19
:10EDD00062E00F94F5F181E40F947BF282E40F94EA
:10EDE0007BF283E40F947BF284E40F947BF285E45E
:10EDF0000F947BF286E40F947BF287E40F947BF20E
:10EE000088E40F947BF28AE40F947BF28BE40F94F6
:10EE10007BF28CE40F947BF299CD88ED92EE62E068
:10EE20000F94F5F1772473948824992409C48FED05
:10EE300092EE62E00F94F5F140910A0250910B02BC
:10EE400060910C0270910D0282E020E10F9491F22A
:10EE500080910A0290910B02A0910C02B0910D02D8
:10EE600080509F4FAF4FBF4F80930A0290930B0289
:10EE7000A0930C02B0930D0269CD8AEE92EE62E08F
:10EE80000F94F5F184EE90EE60E00F94F5F18FECC5
:10EE900091EE60E00F94F5F1662477244301CC5D98
:10EEA000DE4F19821882C452D140D401C301B695F5
:10EEB000A79597958795CA5DDE4F88839983AA8326
:10EEC000BB83C652D140CC5DDE4FA881B981C4520C
:10EED000D1401196CC5DDE4FB983A883C452D14096
:10EEE000CD0162E070E00F9434F2B0E2B093C6005E
:10EEF0008091C00086FFFCCF8091C0008064809329
:10EF0000C000EDE2E093C6008091C00086FFFCCF18
:10EF10008091C00080648093C000F0E2F093C6004E
:10EF20008091C00086FFFCCF8091C00080648093F8
:10EF3000C000CA5DDE4FE880F9800A811B81C6529D
:10EF4000D140BB27A12F902F8F2D0F940DF2CA5DBA
:10EF5000DE4F8881C652D1400F940DF2B0E2FB2EF5
:10EF6000F092C6008091C00086FFFCCF8091C00067
:10EF700080648093C0000DE30093C6008091C000C0
:10EF800086FFFCCF8091C00080648093C00010E2B7
:10EF90001093C6008091C00086FFFCCF8091C00016
:10EFA00080648093C0008BBEF3012791C65DDE4F65
:10EFB0002883CA52D140A22EBB24CC24DD2408943D
:10EFC000611C711C811C911C8BBEF3018791282E42
:10EFD0003324442455240894611C711C811C911C09
:10EFE0008BBEF3013791C55DDE4F3883CB52D140E4
:10EFF0000894611C711C811C911C8BBEF30147910C
:10F00000C45DDE4F4883CC52D140ADEFEA2EAFEF66
:10F01000FA2EAFEF0A2FAFEF1A2F6E0C7F1C801E57
:10F02000911E142D032DF22CEE24EA0CFB1C0C1D5A
:10F030001D1D0F940DF220E22093C6008091C000A8
:10F0400086FFFCCF8091C00080648093C000C65DC5
:10F05000DE4F8881CA52D1400F940DF230E23093D6
:10F06000C6008091C00086FFFCCF8091C000806404
:10F070008093C000C45DDE4F8881CC52D1400F9494
:10F080000DF240E24093C6008091C00086FFFCCFA5
:10F090008091C00080648093C000C55DDE4F888190
:10F0A000CB52D1400F940DF250E25093C6008091A4
:10F0B000C00086FFFCCF8091C00080648093C000B8
:10F0C0008FEFE8168FEFF80680E0080780E018075A
:10F0D00031F484E092EE60E00F94C2F1DFC0D80119
:10F0E000C7018070907CA070B0708050904CA040A0
:10F0F000B040D1F52FEF3FE340E050E0E222F322B1
:10F1000004231523CA5DDE4FA880B980CA80DB8046
:10F11000C652D140AE0CBF1CC01ED11EAA0CBB1CD7
:10F12000CC1CDD1C8EE092EE60E00F94C2F1BB2798
:10F13000A12F902F8F2D0F940DF28E2D0F940DF285
:10F1400030E23093C6008091C00086FFFCCF8091F2
:10F15000C00080648093C0004EE34093C60080915D
:10F16000C00086FFFCCF87C08EE09EEFA0E0B0E03D
:10F17000E822F9220A231B239CE0E91694E9F90608
:10F1800090E0090790E0190709F088C0C45DDE4FE0
:10F19000A881CC52D140EA2EFF2400E010E0102FCD
:10F1A0000F2DFE2CEE24C55DDE4FB881CB52D14031
:10F1B000EB0EF11C011D111DD601C501817090706F
:10F1C000A070B070DC0199278827E80EF91E0A1F8D
:10F1D0001B1F20EF30E040E050E0A222B322C42207
:10F1E000D52241E1AA0CBB1CCC1CDD1C4A95D1F7F1
:10F1F000EA0CFB1C0C1D1D1D81E090E0A0E0B0E0BE
:10F20000282239224A225B2235E1220C331C441C7D
:10F21000551C3A95D1F7E20CF31C041D151D57013E
:10F220006801AA0CBB1CCC1CDD1C85E192EE60E0E1
:10F230000F94C2F1C801AA27BB270F940DF2BB2778
:10F24000A12F902F8F2D0F940DF28E2D0F940DF274
:10F2500090E29093C6008091C00086FFFCCF809121
:10F26000C00080648093C000AEE3A093C60080918C
:10F27000C00086FFFCCF8091C00080648093C000F6
:10F28000C601AA27BB270F940DF2BB27AD2D9C2DDD
:10F290008B2D0F940DF28A2D0F940DF20F94DCF14B
:10F2A000CC5DDE4FE881F981C452D140F99709F471
:10F2B0004DCBF4E0EF2EF12C012D112D6E0C7F1CA7
:10F2C000801E911EF2CD83E093EE62E00F94F5F183
:10F2D0008AE192EE60E00F94C2F18091C00087FF56
:10F2E000FCCF1091C6001F751093C6008091C0001E
:10F2F00086FFFCCF8091C00080648093C0000F9493
:10F30000DCF1812F81548A3108F036C1163409F4BA
:10F3100095C0173490F4133409F44EC0143430F40B
:10F320001134F1F0123409F01DC130C0143409F465
:10F3300059C0153409F016C16BC01A3409F4C4C0A1
:10F340001B3438F4173409F48FC0183409F00AC19B
:10F35000A1C01B3409F4D2C01C3409F003C1E8C0B9
:10F360008FEF81B90DC082B1809582B980E090E0C5
:10F37000E0EDF7E03197F1F70196883C9105C1F790
:10F380008091C00087FFEFCF12B8EFC08FEF84B934
:10F390000DC085B1809585B980E090E0E0EDF7E0A3
:10F3A0003197F1F70196883C9105C1F78091C00033
:10F3B00087FFEFCF15B8D9C08FEF87B90DC088B1DF
:10F3C000809588B980E090E0E0EDF7E03197F1F7C3
:10F3D0000196883C9105C1F78091C00087FFEFCF6F
:10F3E00018B8C3C08FEF8AB90DC08BB180958BB9A7
:10F3F00080E090E0E0EDF7E03197F1F70196883C8E
:10F400009105C1F78091C00087FFEFCF1BB8ADC059
:10F410008FEF8DB90DC08EB180958EB980E090E0F0
:10F42000E0EDF7E03197F1F70196883C9105C1F7DF
:10F430008091C00087FFEFCF1EB897C08FEF80BBD1
:10F440000DC081B3809581BB80E090E0E0EDF7E0F6
:10F450003197F1F70196883C9105C1F78091C00082
:10F4600087FFEFCF11BA81C08FEF83BB0DC084B38C
:10F47000809584BB80E090E0E0EDF7E03197F1F714
:10F480000196883C9105C1F78091C00087FFEFCFBE
:10F4900014BA6BC08FEF809301010FC080910201FD
:10F4A00080958093020180E090E0E0EDF7E03197F5
:10F4B000F1F70196883C9105C1F78091C00087FF64
:10F4C000EDCF1092020151C08FEF809304010FC065
:10F4D0008091050180958093050180E090E0E0ED4A
:10F4E000F7E03197F1F70196883C9105C1F78091DB
:10F4F000C00087FFEDCF1092050137C08FEF8093DA
:10F5000007010FC08091080180958093080180E079
:10F5100090E0E0EDF7E03197F1F70196883C910536
:10F52000C1F78091C00087FFEDCF109208011DC088
:10F530008FEF80930A010FC080910B01809580931B
:10F540000B0180E090E0E0EDF7E03197F1F70196F4
:10F55000883C9105C1F78091C00087FFEDCF1092E4
:10F560000B0103C085E292EEEEC98091C00087FFD7
:10F57000FCCF8091C600EAC988E392EEE4C98CE131
:10F5800091EEE1C988249924933011F1943028F444
:10F59000913089F09230B8F408C0953061F195301F
:10F5A000F0F0963009F048C043C02B3109F042C951
:10F5B00091E06BE13FC96227C15DDE4F2883CF52E6
:10F5C000D14092E037C9B22FA0E0622793E032C960
:10F5D000822F90E0A82BB92B622794E02BC92E3004
:10F5E00009F039C3622795E0C05DDE4F19821882A9
:10F5F000C053D1401FC9E1E0F0E0EC0FFD1FC05D3A
:10F60000DE4F08811981C053D140E00FF11F2083E4
:10F610000F5F1F4FC05DDE4F19830883C053D14079
:10F6200062270A171B0709F005C9D80196E002C92D
:10F63000261709F010C303C0973009F0FBC87724E0
:10F640009981933109F412C19431C8F4963009F4C8
:10F65000D8C0973050F4923009F406C1933009F4C1
:10F660006DC0913009F059C253C0913109F477C08F
:10F67000923108F0BBC0903109F04FC2F5C098310B
:10F6800009F487C0993150F4953109F4EFC09531F0
:10F6900008F4C6C1963109F040C2C2C19A3109F4DA
:10F6A0006CC09A3108F491C09B3109F45BC09D3164
:10F6B00009F033C29D81903359F48F81882311F46E
:10F6C0009EE11CC0813011F091E018C098E916C08D
:10F6D000892F807591F0903539F4E0E0F0E089E011
:10F6E0008093570094910AC0983539F4E3E0F0E034
:10F6F00089E080935700949101C090E01A821B82A8
:10F700008D818C831D829E831F8227E030E009C299
:10F710001A8288E08B8381E48C8386E58D8382E581
:10F720008E8389E48F8383E5888780E589878FE5E9
:10F730008A8782E38B872BE030E0F3C18A818139AD
:10F7400041F0823941F0803911F48FE005C080E04A
:10F7500003C082E001C08AE01A828B8344C0772410
:10F76000739482C08D81882311F48EE12CC0813086
:10F7700011F081E028C088E926C01A82E1E0F0E0BB
:10F7800089E08093570084918B831C8224E030E0D1
:10F79000C8C18B81803589F48C81883039F4E2E0EE
:10F7A000F0E089E08093570084910DC0E0E0F0E044
:10F7B00089E080935700849106C0E3E0F0E089E09F
:10F7C0008093570084911A82DFCF8D81836C99E0FA
:10F7D000E1E0F0E0082E90935700E89507B600FCB2
:10F7E000FDCF1A821B8223E030E09BC180EC8A832C
:10F7F000CE5CDE4F188219821A821B82C253D1401E
:10F800008EC18A8190E0A0E0B0E0582F44273327D2
:10F8100022278B8190E0A0E0B0E0DC0199278827C7
:10F82000282B392B4A2B5B2B8D8190E0A0E0B0E098
:10F83000282B392B4A2B5B2B8C8190E0A0E0B0E089
:10F84000BA2FA92F982F8827282B392B4A2B5B2BCF
:10F85000220F331F441F551FC05EDE4F288339839C
:10F860004A835B83C052D1401A8259C13A81C95C34
:10F87000DE4F3883C753D140CA5CDE4F1882C6536F
:10F88000D1408B81C82EDD24CA5CDE4F488159816E
:10F89000C653D140C42AD52A933109F082C0CE5C28
:10F8A000DE4F88819981AA81BB81C253D1408050AB
:10F8B000904CA340B04030F583E0CE5CDE4FE88052
:10F8C000F9800A811B81C253D140F70100935B008C
:10F8D00080935700E89507B600FCFDCFCE5CDE4F65
:10F8E000088119812A813B81C253D14000501F4FAA
:10F8F0002F4F3F4FCE5CDE4F088319832A833B8313
:10F90000C253D140C05EDE4F488159816A817B81FC
:10F91000C052D140DE011B9631E08C9111962C91A2
:10F9200011971296C75CDE4F2883C953D140C85C3B
:10F93000DE4F1882C853D14090E0C85CDE4FE881AA
:10F94000F981C853D1408E2B9F2B0C01FA01609393
:10F950005B0030935700E89511244E5F5F4F6F4F67
:10F960007F4F0EEFE02E0FEFF02ECE0CDF1CC114F8
:10F97000D10499F685E0C05EDE4F088119812A81A5
:10F980003B81C052D140F80120935B008093570027
:10F99000E89507B600FCFDCF81E180935700E8951C
:10F9A00035C0C05EDE4F88819981AA81BB81C0527B
:10F9B000D140B695A795979587957C018601ABE0D8
:10F9C000AA2EB12CAC0EBD1E0BC0D5016D915D01F0
:10F9D000C7010F947FFE0894E11CF11C01501040F8
:10F9E0000115110591F7A60160E070E0440F551F65
:10F9F000661F771FC05EDE4FE880F9800A811B8199
:10FA0000C052D1404E0D5F1D601F711F1A82C05E33
:10FA1000DE4F488359836A837B83C052D1407FC0C5
:10FA2000FA80C55CDE4FF882CB53D140C65CDE4F16
:10FA30001882CA53D1408B81C82EDD24C65CDE4FAC
:10FA400008811981CA53D140C02AD12A1A828981DA
:10FA5000BE016D5F7F4F843121F59601C05EDE4FA0
:10FA6000E880F9800A811B81C052D1400BBFF701A9
:10FA700087919691DB018C9311969C936E5F7F4FDB
:10FA8000D801C7010296A11DB11DC05EDE4F88835B
:10FA90009983AA83BB83C052D14022503040F1F6F3
:10FAA00036C0C05EDE4F288139814A815B81C052F9
:10FAB000D1400894C108D108760100E010E0089414
:10FAC000C11CD11C0894E11CF11C011D111DE20E8A
:10FAD000F31E041F151F21BDBB27A52F942F832FB5
:10FAE00082BD2F5F3F4F4F4F5F4FF89A80B5DB01CC
:10FAF0008D93BD012E153F054007510761F7C05E8C
:10FB0000DE4F288339834A835B83C052D1409601FC
:10FB10002D5F3F4FFB01108204C080EC8A8322E0FE
:10FB200030E08BE18093C6008091C00086FFFCCF5F
:10FB30008091C00080648093C000C15DDE4FF88179
:10FB4000CF52D140F093C6008091C00086FFFCCF19
:10FB50008091C00080648093C000432F3093C60022
:10FB60008091C00086FFFCCF8091C00080648093AC
:10FB7000C000922F2093C6008091C00086FFFCCF6A
:10FB80008091C00080648093C0008EE08093C600A6
:10FB90008091C00086FFFCCF8091C000806480937C
:10FBA000C00065E1C15DDE4FE880CF52D1406E25D7
:10FBB00069276427FE01319610C090819093C6009A
:10FBC0008091C00086FFFCCF31968091C000806498
:10FBD0008093C0006927215030402115310569F715
:10FBE0006093C6008091C00086FFFCCF8091C0006A
:10FBF00080648093C00085B1805885B9772081F4F6
:10FC0000C15DDE4F0881CF52D1400F5FC15DDE4F35
:10FC10000883CF52D14090E0A0E0B0E00D941AF4F8
:10FC200027982F9880E090E020ED37E0F901319798
:10FC3000F1F7019684369105C9F700008091C00064
:10FC40008D7F8093C00081E180935700E895EE2777
:10FC5000FF270994FFCF90E00D941AF497FB092E2B
:10FC600007260AD077FD04D02ED006D000201AF443
:10FC7000709561957F4F0895F6F7909581959F4F08
:10FC80000895A1E21A2EAA1BBB1BFD010DC0AA1FDD
:10FC9000BB1FEE1FFF1FA217B307E407F50720F0F5
:10FCA000A21BB30BE40BF50B661F771F881F991F70
:10FCB0001A9469F760957095809590959B01AC01B9
:10FCC000BD01CF010895AA1BBB1B51E107C0AA1FAC
:10FCD000BB1FA617B70710F0A61BB70B881F991FED
:10FCE0005A95A9F780959095BC01CD010895F99991
:10FCF000FECF92BD81BDF89A992780B50895262F31
:10FD0000F999FECF1FBA92BD81BD20BD0FB6F89400
:0EFD1000FA9AF99A0FBE01960895F894FFCF63
:00000001FF
