:100000000C946E010C949F010C949F010C949F0121
:100010000C949F010C949F010C949F010C949F01E0
:100020000C949F010C949F010C949F010C949F01D0
:100030000C949F010C949F010C949F010C949F01C0
:100040000C949F010C94680A0C949F010C949F01DE
:100050000C949F010C949F010C949F010C949409A3
:100060000C949F010C949F010C949F010C949F0190
:100070000C949F010C949F010C949F010C949F0180
:100080000C943A0A0C949F010C949F010C949F01CC
:100090000C949F010C949F010C949F010C949F0160
:1000A0000C949F010C949F010C940C0A0C949F01DA
:1000B0000C949F010C949F010C949F010C94DE09F9
:1000C0000C949F010C949F010C949F010C949F0130
:1000D0000C949F010C949F010C949F010C949F0120
:1000E0000C949F01084AD73B3BCE016E84BCBFFDF8
:1000F000C12F3D6C74319ABD56833DDA3D00C77FF8
:1001000011BED9E4BB4C3E916BAAAABE0000008090
:100110003F000C94FB020C94A1040C9497040C94E3
:10012000AB040C94570E0C941E040C9420030C94F6
:100130006D030C9456040C942E030C9424030C941D
:1001400060040C948D040C94B0020C943C030C9449
:100150001A030C9428040C9416030C9432030C9488
:1001600044040C940D030C9440030C943C040C9434
:1001700010030C946A040C940C050C9483040C94E6
:1001800001030C9479040C9405030C94B0040C94B2
:1001900032040C9436030C943B030C940B050C9422
:1001A00028030C949E030C9419040C9409030C94DA
:1001B00012040C9475070C944C04000021002400D8
:1001C00027002A002D003000330001010000040147
:1001D00007010A0100002200250028002B002E0044
:1001E0003100340002010000050108010B0100008C
:1001F00020002300260029002C002F0032000001DF
:1002000000000301060109010505050507050808A9
:100210000808020202020A0A080804040404010190
:1002200001010101010103030303030303030407A5
:1002300007070C0C0C0C0C0C0C0C0202020206063C
:100240000606060606060B0B0B0B0B0B0B0B01022F
:1002500010202008081020401020408002010201D8
:100260000804020101020408102040808040201090
:1002700008040201800402018040201008040201E9
:100280000804020101020408102040800102040851
:100290001020408000000A0B02090C0D0E08070315
:1002A0000401000000000000000000000000000049
:1002B000000000000000000000000000000000003E
:1002C00012111000000000000000000000000000FB
:1002D00000000000000000000000570E11241FBEA7
:1002E000CFEFD1E2DEBFCDBF00E00CBF12E0A0E057
:1002F000B2E0E0E5F4E200E00BBF02C007900D922F
:10030000A634B107D9F723E0A6E4B2E001C01D92FC
:10031000AD37B207E1F711E0CEE6D1E000E006C06C
:1003200021970109802FFE010E940A12CD36D107C4
:1003300080E00807A9F70E94960A0C9426120C94F4
:100340000000CF92DF92EF92FF92DC01A03282E0B8
:10035000B807D4F5A53BB10514F0A4EBB0E040918B
:10036000630328E830E0241B310947FD3395220F51
:10037000331F220F331F6901330FEE08FF0840912E
:10038000640328E532E0241B310947FD3395220F31
:10039000331F220F331F032E000C440B550B2C1957
:1003A0003D094E095F09B7FF02C0B0E0A0E00E941E
:1003B000110F24EB30E040E050E00E94E70EC20E47
:1003C000D31EE41EF51ED601E0916203E03380F5F2
:1003D0002091630388E890E0821B910927FD9395A3
:1003E000880F991F880F991FA817B90784F02091CB
:1003F000640388E592E0821B910927FD9395880F9D
:10040000991F880F991FA817B9070CF4CD010297FF
:10041000880F991F4FB7F8942E2F30E0F901EE0F97
:10042000FF1FE20FF31FEE52FD4F928381834FBFF8
:10043000FF90EF90DF90CF90089596E0899FD001D4
:100440001124AD59BD4F90967C936E935F9791E0C8
:1004500091969C939197E091D002F091D102909166
:10046000CF02992339F0309751F0811108C0809163
:100470007F021994309719F05C968C91FACF089509
:10048000CF92DF92EF92FF920F931F9396E0899F96
:10049000F0011124ED59FD4F11A2278D30A121301B
:1004A000310551F178F02230310509F451C0233083
:1004B000310509F452C01F910F91FF90EF90DF902A
:1004C000CF9008956623B9F361E070E00E941D02A9
:1004D0002FB7F89480915F0290916002A091610221
:1004E000B09162022FBF8093BB029093BC02A09395
:1004F000BD02B093BE02DFCF9FB7F894C0905F02F9
:10050000D0906002E0906102F09062029FBF009183
:10051000BB021091BC022091BD023091BE02C01AF4
:10052000D10AE20AF30A0091CD021091CE0230E026
:1005300020E00C151D052E053F0550F462E070E02B
:100540001F910F91FF90EF90DF90CF900C941D02C0
:100550006111B1CF63E070E0F3CF70E060E0F0CF05
:10056000AF92BF92CF92DF92EF92FF920F931F93C1
:10057000CF93DF936C017B018B01040F151FEB01FF
:100580005E01AE18BF08C017D10759F06991D601B6
:10059000ED91FC910190F081E02DC6011995892B18
:1005A00079F7C501DF91CF911F910F91FF90EF90E7
:1005B000DF90CF90BF90AF9008958150823108F0C6
:1005C0005AC0E82FF0E08827E751FD4F8F4F0C9479
:1005D0000A1209030D03FB02010305033B03100389
:1005E00016031A032003240328032E0332033B03BC
:1005F00036033C034003809180008F778093800016
:100600000895809180008F7DF9CF80918000877F51
:10061000F5CF84B58F7784BD089584B58F7DFBCFEA
:100620008091B0008F778093B00008958091B000E2
:100630008F7DF9CF809190008F77809390000895FF
:10064000809190008F7DF9CF80919000877FF5CFCA
:100650008091A0008F778093A00008958091A000E2
:100660008F7DF9CF8091A000877FF5CF8091200109
:100670008F77809320010895809120018F7DF9CF9D
:1006800080912001877FF5CFCF93DF93282F30E033
:10069000F901EC56FD4F8491F901E25BFD4FD491D5
:1006A000F901E85FFD4FC491CC23A1F081110E94B4
:1006B000DD02EC2FF0E0EE0FFF1FE251FE4FA5919F
:1006C000B491EC91ED2381E090E009F480E0DF91BA
:1006D000CF91089580E090E0FACF862F0C944403E8
:1006E0001F93CF93DF93282F30E0F901EC56FD4F95
:1006F0008491F901E25BFD4FD491F901E85FFD4F70
:10070000C491CC23A9F0162F81110E94DD02EC2F99
:10071000F0E0EE0FFF1FEC52FE4FA591B4918FB7A2
:10072000F894EC91111108C0D095DE23DC938FBFB3
:10073000DF91CF911F910895DE2BF8CF862F642F84
:100740000C947003CF93DF9390E0FC01E25BFD4FCC
:100750002491885F9D4FFC0184918823C9F090E02B
:10076000880F991FFC01E654FE4FA591B491FC013E
:10077000EC52FE4FC591D49161110DC09FB7F89412
:100780008C91209582238C938881282328839FBF76
:10079000DF91CF910895623051F49FB7F8943C9166
:1007A000822F809583238C93E8812E2BEFCF8FB7F8
:1007B000F894EC912E2B2C938FBFEACFCF93DF933D
:1007C000EC0161E083E00E94A203209731F460E035
:1007D00083E0DF91CF910C947003CF3FD10511F4EA
:1007E00061E0F6CFE7E9F2E0E491E150E23108F0B0
:1007F000B2C0F0E08827E050FC4F8F4F0C940A12F3
:10080000120419041E0428043204AB043C044404FA
:100810004C04560460046A0479048304AB048D0418
:100820009704A10484B5806884BDC7BDDF91CF91D2
:10083000089584B5806284BDC8BDF8CF80918000E2
:10084000806880938000D0938900C0938800EECFA9
:1008500080918000806280938000D0938B00C09351
:100860008A00E4CF80918000886080938000D093DC
:100870008D00C0938C00DACF8091B00080688093A7
:10088000B000C093B300D2CF8091B000806280935B
:10089000B000C093B400CACF80919000806880936C
:1008A0009000D0939900C0939800C0CF80919000A1
:1008B000806280939000D0939B00C0939A00B6CF43
:1008C00080919000886080939000D0939D00C093A9
:1008D0009C00ACCF8091A00080688093A0008091A4
:1008E000A0008F7B8093A000D093A900C093A800A4
:1008F0009DCF8091A00080628093A000D093AB0038
:10090000C093AA0093CF8091A00088608093A0003C
:10091000D093AD00C093AC0089CF80912001806856
:1009200080932001D0932901C09328017FCF80912B
:100930002001806280932001D0932B01C0932A0173
:1009400075CF80912001886080932001D0932D0184
:10095000C0932C016BCFC038D1050CF041CF37CFFD
:10096000862F642F0C94A2033FB7F89480914C0219
:1009700090914D02A0914E02B0914F0226B5A89BD6
:1009800005C02F3F19F00196A11DB11D3FBFBA2F21
:10099000A92F982F8827BC01CD01620F711D811DE1
:1009A000911D42E0660F771F881F991F4A95D1F766
:1009B00008958F929F92AF92BF92CF92DF92EF9263
:1009C000FF924B015C010E94B4046B017C010E9408
:1009D000B4046C197D098E099F09683E7340810536
:1009E0009105A8F321E0821A9108A108B10888EEC8
:1009F000C80E83E0D81EE11CF11C81149104A104EF
:100A0000B10429F7FF90EF90DF90CF90BF90AF90A7
:100A10009F908F900895089590E080E00895AF92A0
:100A2000BF92CF92DF92EF92FF920F931F93CF93DB
:100A3000DF936B017A01EC01C95BDD4F28813CE05B
:100A4000389F8001399F100D1124A0904602B12CCF
:100A500027FF1FC0FB011182108288818F5F88836E
:100A600088819801280F311D87FD3A95F6012A15D6
:100A70003B051CF488818C30C4F1808191810496FF
:100A800080349C4908F473C0F601808191810496FA
:100A900070C088819801280F311D87FD3A952A156D
:100AA0003B05DCF68881A801480F511D87FD5A954A
:100AB000FA01EE0FFF1FE40FF51FEE52FD4F80818C
:100AC00086FFCBCF8881F801E80FF11D87FDFA95ED
:100AD000CF01EE0FFF1FE80FF91FEE52FD4F80818F
:100AE00060E08F730E947003B8CF8081918128816C
:100AF000A801420F511D27FD5A959A01FA01EE0FE8
:100B0000FF1FE20FF31FEE52FD4F21813281820F52
:100B1000931FF7019183808388819801280F311DED
:100B200087FD3A95F901EE0FFF1FE20FF31FEE521A
:100B3000FD4F808186FF22C08881080F111D87FD2F
:100B40001A95F801EE0FFF1FE00FF11FEE52FD4F57
:100B5000808161E08F73DF91CF911F910F91FF90A2
:100B6000EF90DF90CF90BF90AF900C94700380E433
:100B70009CE9F701918380838FEF8883DF91CF9188
:100B80001F910F91FF90EF90DF90CF90BF90AF90AB
:100B900008958F929F92AF92BF920F931F93CF931E
:100BA000DF93CDB7DEB7A1970FB6F894DEBF0FBEC7
:100BB000CDBF19A2423008F44AE08E010F5D1F4FED
:100BC000842E912CB12CA12CA50194010E94190F07
:100BD000E62FB901CA01EA3044F5E05DD801EE9391
:100BE0008D01232B242B252B79F790E080E01097A3
:100BF00069F0FD0101900020E9F73197AF014A1B30
:100C00005B0BBD0185E693E00E94B002A1960FB692
:100C1000F894DEBF0FBECDBFDF91CF911F910F9132
:100C2000BF90AF909F908F900895E95CD7CFFC0163
:100C300001900020E9F73197AF01481B590BBC0127
:100C400085E693E00C94B002CF93DF93EC0160E073
:100C50008E810E94700361E08E810E94700360E0CB
:100C60008E810E9470038BE891E00197F1F7DF918C
:100C7000CF910895CF92DF92EF92FF920F931F933F
:100C8000CF93DF936C017C0187E0E80EF11CD0E08C
:100C9000C0E0062F10E0B8010C2E02C075956795D4
:100CA0000A94E2F76170F70181917F010E9470035D
:100CB0002196C430D10579F7C601DF91CF911F91FC
:100CC0000F91FF90EF90DF90CF900C942406CF927D
:100CD000DF92EF92FF920F931F93CF93DF93EC017C
:100CE000F62E642F8C810E9470038D818F3F19F046
:100CF00060E00E9470030F2D10E08F8584FF25C0F7
:100D00006E0187E0C80ED11CF12CE12CB8010E2C2D
:100D100002C0759567950A94E2F76170F6018191BA
:100D20006F010E947003FFEFEF1AFF0A88E0E816D8
:100D3000F10461F7CE01DF91CF911F910F91FF90E8
:100D4000EF90DF90CF900C942406B80184E0759565
:100D500067958A95E1F7CE010E943A066F2DCE0184
:100D6000DF91CF911F910F91FF90EF90DF90CF9087
:100D70000C943A0640E0682F85E693E00C946706F1
:100D8000CF93DF93823029F490917403986090930D
:100D90007403809378031092790380E480937A033C
:100DA00080E180937B0380E580937C0361E0809108
:100DB00069030E94A20380916A038F3F19F061E0EA
:100DC0000E94A20361E080916B030E94A203C5E62A
:100DD000D3E09E01255633408091740384FD0BC0FF
:100DE00084E090E021962817390744F461E08E8171
:100DF0000E94A203EECF88E090E0F4CF8BE39DE069
:100E00000197F1F760E0809169030E94700360E050
:100E100080916B030E94700380916A038F3F19F0E9
:100E200060E00E9470038091740384FD39C063E028
:100E300085E693E00E943A06CBE4D6E4CE01019722
:100E4000F1F763E085E693E00E943A062197F1F717
:100E500063E085E693E00E943A0683E592E001971D
:100E6000F1F762E085E693E00E943A068091740310
:100E700080620E94BA0684E0809375038CE00E9431
:100E8000BA0681E00E94BA068BE39FE10197F1F771
:100E900082E08093760386E0DF91CF910C94BA06CE
:100EA00080620E94BA068BE496E40197F1F7809184
:100EB000740380620E94BA0683E592E00197F1F71D
:100EC0008091740380620E94BA06D0CF909178031B
:100ED000691710F06FEF690FE62FF0E0EB59FC4F48
:100EE0009489890F80680C94BA0641E00E946706D5
:100EF00081E090E00895CF92DF92EF92FF926C0133
:100F0000990FEE08FF08F7FE16C041E06DE285E696
:100F100093E00E94670666277727CB016C197D094D
:100F20008E099F094AE00E94C9050196FF90EF9043
:100F3000DF90CF9008954AE0C701B601FF90EF908F
:100F4000DF90CF900C94C90581E00E94BA068BE334
:100F50009FE10197F1F760E080E00E9466078EE272
:100F600092E00E94170660E08AE00E946607809186
:100F70005C0290915D020E947B0761E080E00E942C
:100F8000660785E392E00E94170661E08AE00E940E
:100F90006607609158027091590280915A029091AF
:100FA0005B020E945D10CB010E947B0765E285E633
:100FB00093E00C947507EF92FF920F931F93CF93DA
:100FC000DF9300915C0210915D0280915402909138
:100FD0005502EE24EA94FE2C081719071CF0EE24A3
:100FE000E394F12C90935D0280935C02C0915C02CB
:100FF000D0915D02C131D10550F5C017D10739F14B
:10100000CE0144E0880F991F4A95E1F78F3F910583
:1010100009F0DCF48C2F8295807F90E00E94DE0343
:10102000C01BD10BC370DD27CD2B11F40E94A40788
:1010300064E670E080E090E00E94D90480915C0258
:1010400090915D028E0D9F1DCDCF8FEFE6CFC80131
:1010500034E0880F991F3A95E1F78F3F910551F1E0
:101060004CF180E190E090935D0280935C02C0912E
:101070005C02D0915D0280E0D7FD0DC0CE0124E07E
:10108000880F991F2A95E1F78F3F910509F0F4F435
:101090008C2F8295807F90E00E94DE03D0935502D2
:1010A000C0935402DF91CF911F910F91FF90EF9069
:1010B0000C94A40717FD05C010935D0200935C0219
:1010C000D6CF10925D0210925C02D1CF8FEFE3CFAA
:1010D0004F925F926F927F928F929F92AF92BF9248
:1010E000CF92DF92EF92FF92CF93DF9300D01F92C7
:1010F000CDB7DEB7C0905802D0905902E0905A02A6
:10110000F0905B0220E030E040EF51E4C701B6010F
:101110000E946C1118160CF0A3C080E090E0A0EFC4
:10112000B1E48093580290935902A0935A02B0936D
:101130005B02C0905802D0905902E0905A02F090A1
:101140005B028090500290905102A0905202B090A9
:101150005302A7019601C501B4010E946C11181633
:101160000CF08DC08FEF9FEF809258029092590241
:10117000A0925A02B0925B029C01990F440B550B4E
:1011800029833A834B835C834090580250905902E4
:1011900060905A0270905B02A7019601C301B201F0
:1011A0000E944A0F4B015C019F7720E030E040E451
:1011B00050E40E946C1187FD65C020E030E048ECEF
:1011C00052E4C301B2010E94EB0F0E94B70F20E06E
:1011D00030E044E353E40E9479112BED3FE049E411
:1011E00050E40E94EB0F2DE33AE04FE051E40E94FF
:1011F00079110E945D10DC01CB014E96A11DB11D3D
:101200000E94A101C501B4010E945D10CB0165E0FF
:1012100070E00E94F611892B11F40E94A40762E38A
:1012200070E080E090E00E94D90469817A818B812E
:101230009C810E9495109B01AC01609158027091B5
:10124000590280915A0290915B020E944B0F609369
:1012500058027093590280935A0290935B0294CF84
:1012600020E030E040EC50ECC701B6010E94E60FF0
:1012700087FF5FCF80E090E0A0ECB0EC52CF81E040
:1012800090E072CFC0925802D0925902E0925A0276
:10129000F0925B0220E030E048EC52E4C701B60176
:1012A0000E94EB0F0E94B70F20E030E044E353E4CC
:1012B0000E9479112BED3FE049E450E40E94EB0FCE
:1012C0002DE33AE04FE051E40E9479110E945D1055
:1012D000DC01CB014E96A11DB11D0E94A1010E940F
:1012E000A4078091580290915902A0915A02B0919E
:1012F0005B028093500290935102A0935202B093EC
:1013000053020F900F900F900F90DF91CF91FF90AD
:10131000EF90DF90CF90BF90AF909F908F907F9095
:101320006F905F904F9008951F920F920FB60F929B
:1013300011242F933F938F939F93AF93BF938091EB
:101340005F0290916002A0916102B09162023091BF
:101350004B0223E0230F2D3758F50196A11DB11D37
:1013600020934B0280935F0290936002A0936102EE
:10137000B093620280914C0290914D02A0914E0276
:10138000B0914F020196A11DB11D80934C02909324
:101390004D02A0934E02B0934F02BF91AF919F9127
:1013A0008F913F912F910F900FBE0F901F90189526
:1013B00026E8230F0296A11DB11DD2CF1F920F92D6
:1013C0000FB60F9211240BB60F922F933F934F93AA
:1013D0005F936F937F938F939F93AF93BF93EF939D
:1013E000FF9348E251E064E271E090E080E00E9407
:1013F0000F05FF91EF91BF91AF919F918F917F91D9
:101400006F915F914F913F912F910F900BBE0F9075
:101410000FBE0F901F9018951F920F920FB60F924C
:1014200011240BB60F922F933F934F935F936F93BB
:101430007F938F939F93AF93BF93EF93FF9348EA6C
:1014400050E064EA70E083E090E00E940F05FF91B5
:10145000EF91BF91AF919F918F917F916F915F912C
:101460004F913F912F910F900BBE0F900FBE0F9099
:101470001F9018951F920F920FB60F9211240BB662
:101480000F922F933F934F935F936F937F938F931D
:101490009F93AF93BF93EF93FF9348E950E064E9C4
:1014A00070E082E090E00E940F05FF91EF91BF9104
:1014B000AF919F918F917F916F915F914F913F91EC
:1014C0002F910F900BBE0F900FBE0F901F9018958D
:1014D0001F920F920FB60F9211240BB60F922F93FB
:1014E0003F934F935F936F937F938F939F93AF93AC
:1014F000BF93EF93FF9348E850E064E870E081E029
:1015000090E00E940F05FF91EF91BF91AF919F91E5
:101510008F917F916F915F914F913F912F910F909C
:101520000BBE0F900FBE0F901F901895789484B546
:10153000826084BD84B5816084BD85B5826085BDCF
:1015400085B5816085BD80916E00816080936E005D
:10155000109281008091810082608093810080914F
:101560008100816080938100809180008160809300
:1015700080008091B10084608093B1008091B000C0
:1015800081608093B000809191008260809391008F
:1015900080919100816080939100809190008160A2
:1015A000809390008091A10082608093A10080913F
:1015B000A10081608093A1008091A0008160809350
:1015C000A0008091210182608093210180912101FE
:1015D00081608093210180912001816080932001AE
:1015E00080917A00846080937A0080917A00826092
:1015F00080937A0080917A00816080937A00809154
:101600007A00806880937A001092C10061E083E0E4
:101610000E94A20310925D0210925C021092550289
:10162000109254020E94DB0761E082E00E94A20354
:1016300080916203803308F054C061E082E00E9430
:10164000A20380916203282F30E0F901EE0FFF1F03
:10165000E20FF31FEE52FD4F9081907C92609083D9
:101660009EE89093630394E6909364032CE0622FCA
:101670000E94EA11829FB001112430E020E0AB010A
:10168000420F531FFA01EE0FFF1FE40FF51FEE523A
:10169000FD4F908196FD17C02F5F3F4F2C303105D5
:1016A00071F7813009F077C01092800082E080935A
:1016B00081001092850010928400B19A80916F0091
:1016C000826080936F00E09162038E2F90E0FC01B6
:1016D000EE0FFF1FE80FF91FEE52FD4F808180646F
:1016E0008083109258021092590210925A0210925E
:1016F0005B0210925002109251021092520210920C
:1017000053020E94680882E00E94C0060E94A4075B
:1017100010925E025FE9252E52E0352E412C512CAD
:1017200060EC662E762CDD24D394D092CF028FB756
:10173000F89440915F025091600260916102709153
:1017400062028FBF8091BF029091C002A091C1023E
:10175000B091C202481B590B6A0B7B0B8091CB02E4
:101760009091CC02B0E0A0E084179507A607B707D8
:1017700008F046C1C0E08091C902C817C0F5E091E9
:10178000C502F091C602EC0FF11D62E080810E945B
:10179000A203CF5FF0CF823061F41092900080936B
:1017A0009100109295001092940088BB8093710074
:1017B0008ACF833069F41092A00082E08093A10068
:1017C0001092A5001092A40089BB809372007BCF79
:1017D000811179CF1092200182E080932101109233
:1017E0002501109224018ABB809373006CCFC12C19
:1017F0008091CA02C81608F061C00C2D10E0E0917B
:10180000C702F091C802E00FF11F61E080810E94E1
:10181000A203E091C702F091C802E00FF11F60E05F
:1018200080810E94700381E090E0A0E0B0E00C2C89
:1018300004C0880F991FAA1FBB1F0A94D2F75C012E
:101840007C01E094F094912C8091C9029816F8F4F0
:10185000C92DD0E0E091C502F091C602EC0FFD1F4A
:1018600080810E9444032496CC0FDD1FCD59DD4FAB
:10187000892B41F4888199818A299B2999838883BE
:101880009394E2CF888199818E219F21F7CFE091B7
:10189000C702F091C802E00FF11F61E080810E9451
:1018A00070038091C7029091C802080F191F60E071
:1018B000D8018C910E94A203C3949ACF33E6E32E01
:1018C00032E0F32EE7018F8D98A1892B31F41C8E25
:1018D000EFEFFFEFFE8FED8F19A226962C163D0637
:1018E00091F710E08091C902181708F053C000E08A
:1018F000812F90E0880F991F9C0125593D4F590178
:101900002091CA02021708F043C0D5016D917C9165
:10191000002E02C0769567950A94E2F7129F900117
:101920001124200F311DE3E6F2E080E0458D568D55
:101930002417350709F4B9C18F5F36968A30B1F79D
:1019400060FF24C0E3E6F2E090E080E0448D4111C6
:1019500018C0E091C302F091C402E20FF31F40816E
:10196000B6E0B89FF001B99FF00D1124ED59FD4F7D
:10197000448F368F258F10A2178E61E00E9440029F
:1019800005C0019636968A30910501F70F5FB8CFF2
:101990001F5FA8CF80E0F70191A19111892FF6E098
:1019A000EF0EF11CEC16FD06B1F79FB7F8944091CD
:1019B0005F025091600260916102709162029FBF6C
:1019C0004093BF025093C0026093C1027093C20261
:1019D0008823B1F080918402882391F08091820263
:1019E00090918302019761F4C0917F02C1110BC0F5
:1019F000A0E0B0E0AB2B09F498CE0E94000093CE9B
:101A00001092CF02F5CF80915E02811151C0C9348E
:101A100009F44AC084F4C43499F180915C02909135
:101A20005D020196C63421F790935D0280935C02BB
:101A30000E94DB07DDCFC33591F1C53541F0CC34D1
:101A4000B9F680915C0290915D020197EDCF20E0A4
:101A500030E040E450E46091580270915902809166
:101A60005A0290915B020E944B0F60935802709350
:101A7000590280935A0290935B020E946808B8CF83
:101A800020E030E040E450E4609158027091590247
:101A900080915A0290915B020E944A0FE6CFD09249
:101AA0005E0210925702A4CF82E080935E02F9CFCB
:101AB000813009F045C090ED9C0F9A3030F0C3356D
:101AC00009F096CF10925E02B3CF909157029923FE
:101AD00089F080915C0290915D020A978CF020E180
:101AE00030E030935D0220935C020E94DB0710928D
:101AF0005E027ECF8093570210925D0210925C02CC
:101B000020915C0230915D024AE0429FC001439FF8
:101B1000900D11240C2E000CDD0BE097C80FD91F7F
:101B2000D0935D02C0935C0260E08AE00E94660789
:101B3000CE010E947B078FE392E00E94170658CFE8
:101B4000823009F055CF80ED8C0F8A3040F0C535DA
:101B500031F0C93409F04CCF10925E028ECF8091E3
:101B60005702882399F18090580290905902A090D2
:101B70005A02B0905B0220E030E040E151E4C50140
:101B8000B4010E946C11181694F020E030E0A90115
:101B9000C501B4010E94E60F87FF7FC04092580242
:101BA0005092590260925A0270925B020CC080E01F
:101BB00090E0A0EFB1E48093580290935902A09373
:101BC0005A02B0935B020E94680891CFD0925702EC
:101BD000109258021092590210925A0210925B020F
:101BE000C53559F5D092560261E08AE00E94660739
:101BF0008090580290905902A0905A02B0905B02D7
:101C000020E030E0A901C501B4010E94E60F811176
:101C10000AC080915602882331F041E06DE285E6EA
:101C200093E00E946706C501B4010E945D10CB01DC
:101C30000E947B078EE392E080CF1092560220E054
:101C400030E040E251E46091580270915902809175
:101C50005A0290915B020E9479114B015C016C2F3A
:101C6000CC0F770B60537109072E000C880B990B72
:101C70000E94951020915602222391F09B01AC0105
:101C8000C501B4010E944A0F609358027093590233
:101C900080935A0290935B02A7CFC53581F6A4CFFB
:101CA000A50194010E944B0FEFCF617067CE809128
:101CB0004602803308F087C091E0980F9093460267
:101CC0008093620390E0FC01EE0FFF1FE80FF91F05
:101CD000EE52FD4F88EB9BE0928381831092650268
:101CE000109269021092680210926A0280E192E0FA
:101CF0009093640280936302EFE7F2E01082148213
:101D000013821582369682E0EB3BF807B9F78AE139
:101D100092E09093C6028093C50286E192E0909390
:101D2000C8028093C70284E08093C9028093CA02EC
:101D30002EE132E03093C4022093C3022AE030E067
:101D40003093CC022093CB0224EF31E03093CE02CB
:101D50002093CD021092D1021092D0021092BF02B5
:101D60001092C0021092C1021092C2021092CF02D1
:101D7000109268031092670324E032E03093660308
:101D80002093650399E0909369039FEF90936A0312
:101D900098E090936B0397E090936C0396E0909398
:101DA0006D0395E090936E0380936F031092700320
:101DB00010927103109272031092730310927403C5
:101DC00081E00C94C0068FEF8093620387CF052ECD
:101DD00097FB1EF400940E94FE0E57FD07D00E9450
:101DE000190F07FC03D04EF40C94FE0E509540954D
:101DF000309521953F4F4F4F5F4F089590958095B7
:101E0000709561957F4F8F4F9F4F08950E943B0FB4
:101E1000A59F900DB49F900DA49F800D911D11243E
:101E20000895B7FF0C94060F0E94060F821B930BB8
:101E30000895A1E21A2EAA1BBB1BFD010DC0AA1F0B
:101E4000BB1FEE1FFF1FA217B307E407F50720F023
:101E5000A21BB30BE40BF50B661F771F881F991F9E
:101E60001A9469F760957095809590959B01AC01E7
:101E7000BD01CF010895A29FB001B39FC001A39FF0
:101E8000700D811D1124911DB29F700D811D1124B3
:101E9000911D08955058BB27AA270E94620F0C94E9
:101EA00032110E94241138F00E942B1120F039F4D5
:101EB0009F3F19F426F40C94FA100EF4E095E7FB1A
:101EC0000C94F410E92F0E94431158F3BA176207DB
:101ED00073078407950720F079F4A6F50C94651133
:101EE0000EF4E0950B2EBA2FA02D0B01B901900135
:101EF0000C01CA01A0011124FF27591B99F0593F79
:101F000050F4503E68F11A16F040A22F232F342FC0
:101F10004427585FF3CF469537952795A795F0400E
:101F20005395C9F77EF41F16BA0B620B730B840B23
:101F3000BAF09150A1F0FF0FBB1F661F771F881FDB
:101F4000C2F70EC0BA0F621F731F841F48F4879533
:101F500077956795B795F7959E3F08F0B0CF939525
:101F6000880F08F09927EE0F979587950895DF93CE
:101F7000DD27B92FBF7740E85FE31616170648073D
:101F80005B0718F4D92F0E9471119F938F937F9351
:101F90006F930E94E611E4EEF0E00E94FD100E94B3
:101FA00032112F913F914F915F910E948C11DD234F
:101FB00051F09058A2EA2AED3FE049EC5FE3D07877
:101FC0005D270E94620FDF910C9432110E94D010A5
:101FD00008F481E008950E94FF0F0C9432110E94D2
:101FE0002B1158F00E94241140F029F45F3F29F092
:101FF0000C94F41051110C9466110C94FA100E9478
:10200000431168F39923B1F3552391F3951B550BB5
:10201000BB27AA2762177307840738F09F5F5F4FBB
:10202000220F331F441FAA1FA9F335D00E2E3AF0FA
:10203000E0E832D091505040E695001CCAF72BD012
:10204000FE2F29D0660F771F881FBB1F2617370763
:102050004807AB07B0E809F0BB0B802DBF01FF2795
:1020600093585F4F3AF09E3F510578F00C94F4106E
:102070000C9466115F3FE4F3983ED4F38695779510
:102080006795B795F7959F5FC9F7880F911D96954E
:10209000879597F90895E1E0660F771F881FBB1FAA
:1020A000621773078407BA0720F0621B730B840B57
:1020B000BA0BEE1F88F7E09508950E9464106894AB
:1020C000B1110C94661108950E944B1188F09F572E
:1020D00098F0B92F9927B751B0F0E1F0660F771F4C
:1020E000881F991F1AF0BA95C9F714C0B13091F042
:1020F0000E946511B1E008950C946511672F782F47
:102100008827B85F39F0B93FCCF386957795679506
:10211000B395D9F73EF490958095709561957F4F72
:102120008F4F9F4F0895E89409C097FB3EF4909518
:102130008095709561957F4F8F4F9F4F9923A9F0A0
:10214000F92F96E9BB279395F6958795779567952F
:10215000B795F111F8CFFAF4BB0F11F460FF1BC073
:102160006F5F7F4F8F4F9F4F16C0882311F096E906
:1021700011C0772321F09EE8872F762F05C06623B4
:1021800071F096E8862F70E060E02AF09A95660F6D
:10219000771F881FDAF7880F9695879597F9089526
:1021A000990F0008550FAA0BE0E8FEEF1616170668
:1021B000E807F907C0F012161306E407F50798F0D0
:1021C000621B730B840B950B39F40A2661F0232BE9
:1021D000242B252B21F408950A2609F4A140A69565
:1021E0008FEF811D811D089597F99F6780E870E04A
:1021F00060E008959FEF80EC0895DF93CF931F93E5
:102200000F93FF92EF92DF927B018C01689406C0DE
:10221000DA2EEF010E948C11FE01E894A591259120
:10222000359145915591A6F3EF010E94620FFE0191
:102230009701A801DA9469F7DF90EF90FF900F9172
:102240001F91CF91DF91089500240A941616170666
:1022500018060906089500240A9412161306140697
:1022600005060895092E0394000C11F4882352F0FA
:10227000BB0F40F4BF2B11F460FF04C06F5F7F4FB2
:102280008F4F9F4F089557FD9058440F551F59F099
:102290005F3F71F04795880F97FB991F61F09F3F53
:1022A00079F087950895121613061406551FF2CF7C
:1022B0004695F1DF08C0161617061806991FF1CFCC
:1022C00086957105610508940895E894BB276627F3
:1022D0007727CB0197F908950E94D01008F48FEF6B
:1022E00008959B01AC0160E070E080E89FE30C94EE
:1022F000EB0F0E948C110C9432110E94241138F0C3
:102300000E942B1120F0952311F00C94F4100C94E2
:10231000FA1011240C9466110E94431170F3959FDA
:10232000C1F3950F50E0551F629FF001729FBB27CC
:10233000F00DB11D639FAA27F00DB11DAA1F649F68
:102340006627B00DA11D661F829F2227B00DA11D1B
:10235000621F739FB00DA11D621F839FA00D611DA1
:10236000221F749F3327A00D611D231F849F600DC2
:10237000211D822F762F6A2F11249F5750409AF0EB
:10238000F1F088234AF0EE0FFF1FBB1F661F771F77
:10239000881F91505040A9F79E3F510580F00C9442
:1023A000F4100C9466115F3FE4F3983ED4F38695E5
:1023B00077956795B795F795E7959F5FC1F7FE2BE2
:1023C000880F911D9695879597F908959B01AC010B
:1023D0000C947911991B79E004C0991F961708F0A5
:1023E000961B881F7A95C9F78095089597FB072E4D
:1023F00016F4009407D077FD09D00E94121207FC52
:1024000005D03EF4909581959F4F08957095619504
:102410007F4F0895EE0FFF1F881F8BBF0790F69127
:10242000E02D1994AA1BBB1B51E107C0AA1FBB1FBB
:10243000A617B70710F0A61BB70B881F991F5A9550
:10244000A9F780959095BC01CD010895F894FFCF30
:10245000000000007507B0020C050B05000000002D
:10246000B0049E036D031A1B1C1D1617181937386C
:1024700039463435364C3132335553304944537034
:102480006565643A00496E636C696E653A002520A3
:06249000202020202000A6
:00000001FF
