:100000000C9441010C9472010C9472010C947201D5
:100010000C9472010C9472010C9472010C94720194
:100020000C9472010C9472010C9472010C94720184
:100030000C9472010C9472010C9472010C94720174
:100040000C9472010C9472010C9472010C94720164
:100050000C9472010C9472010C9472010C9463065E
:100060000C9472010C942D060C9403060C947201EE
:100070000C9472010C9472010C9472010C94720134
:100080000C9472010C9472010C9472010C94720124
:100090000C9472010C9472010C9472010C94720114
:1000A0000C9472010C9472010C9472010C94720104
:1000B0000C9472010C9472010C9472010C947201F4
:1000C0000C9472010C9472010C9472010C947201E4
:1000D0000C9472010C9472010C9472010C947201D4
:1000E0000C9472010C943C040C946B030C9440042B
:1000F0000C94CB030C9490030C9457020C949E0325
:100100000C9465020C9459030C9486030C947E03A2
:100110000C94EA020C9467030C946E030C94340262
:100120000C9474030C94D4050C9443020C94410475
:100130000C948C030C949D020C945F030C949A0312
:100140000C9494030C94FC030C9407020C9463032A
:100150000C9478030C94AD060C9499030C948203D0
:1001600000002100240027002A002D003000330069
:1001700001010000040107010A010000220025001E
:1001800028002B002E003100340002010000050180
:1001900008010B01000020002300260029002C008C
:1001A0002F003200000100000301060109010505CE
:1001B0000505070508080808020202020A0A0808DD
:1001C000040404040101010101010101030303030B
:1001D00003030303040707070C0C0C0C0C0C0C0C9A
:1001E0000202020206060606060606060B0B0B0BAB
:1001F0000B0B0B0B010210202008081020401020D0
:1002000040800201020108040201010204081020DA
:1002100040808040201008040201800402018040D8
:100220002010080402010804020101020408102041
:100230004080010204081020408000000A0B0209DF
:100240000C0D0E0807030401000000000000000070
:10025000000000000000000000000000000000009E
:10026000000000000000121110000000000000005B
:10027000000000000000000000000000000000007E
:10028000AD0611241FBECFEFD1E2DEBFCDBF00E02F
:100290000CBF12E0A0E0B2E0E4E9F4E100E00BBF43
:1002A00002C007900D92A034B107D9F723E0A0E473
:1002B000B2E001C01D92A437B207E1F711E0C1E43A
:1002C000D1E000E006C021970109802FFE010E94C5
:1002D0002C0AC034D10780E00807A9F70E946B07F9
:1002E0000C94480A0C94000096E0899FD0011124D8
:1002F000A351BD4F90967C936E935F9791E091963A
:100300009C939197E0915A03F0915B03909159036C
:10031000992339F0309751F0811108C08091090379
:100320001994309719F05C968C91FACF0895CF927A
:10033000DF92EF92FF920F931F9396E0899FF00157
:100340001124E351FD4F11A2278D30A12130310539
:1003500051F178F02230310509F451C023303105D4
:1003600009F452C01F910F91FF90EF90DF90CF9052
:1003700008956623B9F361E070E00E9474012FB71D
:10038000F89480914C0290914D02A0914E02B09150
:100390004F022FBF8093450390934603A0934703DA
:1003A000B0934803DFCF9FB7F894C0904C02D09031
:1003B0004D02E0904E02F0904F029FBF0091450326
:1003C000109146032091470330914803C01AD10A87
:1003D000E20AF30A009157031091580330E020E03D
:1003E0000C151D052E053F0550F462E070E01F91CD
:1003F0000F91FF90EF90DF90CF900C9474016111FA
:10040000B1CF63E070E0F3CF70E060E0F0CFAF9287
:10041000BF92CF92DF92EF92FF920F931F93CF93F1
:10042000DF936C017B018B01040F151FEB015E0153
:10043000AE18BF08C017D10759F06991D601ED91E8
:10044000FC910190F081E02DC6011995892B79F777
:10045000C501DF91CF911F910F91FF90EF90DF9039
:10046000CF90BF90AF900895FC01538D448D252F00
:1004700030E0842F90E0821B930B541710F0CF963E
:10048000089501970895FC01918D828D981761F070
:10049000A28DAE0FBF2FB11D5D968C91928D9F5F87
:1004A0009F73928F90E008958FEF9FEF0895FC0166
:1004B000918D828D981731F0828DE80FF11D858D19
:1004C00090E008958FEF9FEF0895FC01918D228DAC
:1004D000892F90E0805C9F4F821B91098F73992731
:1004E000089580E592E00E94650221E0892B09F4DD
:1004F00020E0822F0895FC01A48DA80FB92FB11D13
:10050000A35ABF4F2C91848D90E001968F73992749
:10051000848FA689B7892C93A089B1898C91837027
:1005200080648C93938D848D981306C00288F38920
:10053000E02D80818F7D80830895EF92FF920F934D
:100540001F93CF93DF93EC0181E0888F9B8D8C8D7F
:1005500098131AC0E889F989808185FF15C09FB773
:10056000F894EE89FF896083E889F9898081837036
:10057000806480839FBF81E090E0DF91CF911F91E5
:100580000F91FF90EF900895F62E0B8D10E00F5F06
:100590001F4F0F731127E02E8C8D8E110CC00FB6DC
:1005A00007FCFACFE889F989808185FFF5CFCE0174
:1005B0000E947B02F1CFEB8DEC0FFD2FF11DE35A72
:1005C000FF4FF0829FB7F8940B8FEA89FB898081F7
:1005D0008062CFCFCF93DF93EC01888D8823B9F071
:1005E000AA89BB89E889F9898C9185FD03C080813E
:1005F00086FD0DC00FB607FCF7CF8C9185FFF2CFBB
:10060000808185FFEDCFCE010E947B02E9CFDF9193
:10061000CF91089580E090E0892B29F00E9471022B
:1006200081110E94000080E090E0892B49F080E079
:1006300090E0892B29F00E94000081110E940000A7
:1006400080E090E0892B49F080E090E0892B29F050
:100650000E94000081110E94000080E090E0892B40
:1006600049F080E090E0892B29F00E940000811180
:100670000C94000008958150823108F05AC0E82F90
:10068000F0E08827E95BFC4F8F4F0C942C0A67033E
:100690006B0359035F03630399036E0374037803C9
:1006A0007E03820386038C039003990394039A03C9
:1006B0009E03809180008F778093800008958091C1
:1006C00080008F7DF9CF80918000877FF5CF84B542
:1006D0008F7784BD089584B58F7DFBCF8091B00066
:1006E0008F778093B00008958091B0008F7DF9CF0F
:1006F000809190008F778093900008958091900072
:100700008F7DF9CF80919000877FF5CF8091A000F9
:100710008F778093A00008958091A0008F7DF9CFFE
:100720008091A000877FF5CF809120018F77809303
:1007300020010895809120018F7DF9CF80912001C3
:10074000877FF5CFCF93DF93282F30E0F901E65C68
:10075000FD4F8491F901EC50FE4FD491F901E2551F
:10076000FE4FC491CC23A1F081110E943B03EC2FDA
:10077000F0E0EE0FFF1FEC56FE4FA591B491EC9107
:10078000ED2381E090E009F480E0DF91CF910895BE
:1007900080E090E0FACF862F0C94A2031F93CF93B2
:1007A000DF93282F30E0F901E65CFD4F8491F901D9
:1007B000EC50FE4FD491F901E255FE4FC491CC2389
:1007C000A9F0162F81110E943B03EC2FF0E0EE0FF1
:1007D000FF1FE658FE4FA591B4918FB7F894EC91A6
:1007E000111108C0D095DE23DC938FBFDF91CF912C
:1007F0001F910895DE2BF8CF862F642F0C94CE0323
:10080000CF93DF9390E0FC01EC50FE4F2491825592
:100810009E4FFC0184918823C9F090E0880F991FB6
:10082000FC01E05AFE4FA591B491FC01E658FE4F41
:10083000C591D49161110DC09FB7F8948C9120950A
:1008400082238C938881282328839FBFDF91CF91B7
:100850000895623051F49FB7F8943C91822F8095AF
:1008600083238C93E8812E2BEFCF8FB7F894EC91F4
:100870002E2B2C938FBFEACF862F642F0C9400046D
:10088000089590E080E008958F929F92AF92BF927A
:100890000F931F93CF93DF93CDB7DEB7A1970FB61A
:1008A000F894DEBF0FBECDBF19A2423008F44AE073
:1008B0008E010F5D1F4F842E912CB12CA12CA50110
:1008C00094010E940A0AE62FB901CA01EA3044F5F0
:1008D000E05DD801EE938D01232B242B252B79F796
:1008E00090E080E0109769F0FD0101900020E9F7A9
:1008F0003197AF014A1B5B0BBD018CE593E00E9471
:100900000702A1960FB6F894DEBF0FBECDBFDF91F0
:10091000CF911F910F91BF90AF909F908F900895AE
:10092000E95CD7CFCF93DF93EC0160E08E810E942A
:10093000CE0361E08E810E94CE0360E08E810E9432
:10094000CE038BE891E00197F1F7DF91CF91089505
:10095000CF92DF92EF92FF920F931F93CF93DF938B
:100960006C017C0187E0E80EF11CD0E0C0E0062FAE
:1009700010E0B8010C2E02C0759567950A94E2F755
:100980006170F70181917F010E94CE032196C430EE
:10099000D10579F7C601DF91CF911F910F91FF909B
:1009A000EF90DF90CF900C949204CF92DF92EF9271
:1009B000FF920F931F93CF93DF93EC01F62E642FDA
:1009C0008C810E94CE038D818F3F19F060E00E94E0
:1009D000CE030F2D10E08F8584FF25C06E0187E0C8
:1009E000C80ED11CF12CE12CB8010E2C02C075955B
:1009F00067950A94E2F76170F60181916F010E9498
:100A0000CE03FFEFEF1AFF0A88E0E816F10461F762
:100A1000CE01DF91CF911F910F91FF90EF90DF906A
:100A2000CF900C949204B80184E0759567958A95EF
:100A3000E1F7CE010E94A8046F2DCE01DF91CF9186
:100A40001F910F91FF90EF90DF90CF900C94A8042E
:100A500040E0682F8CE593E00C94D504CF93DF93AE
:100A6000823029F490916B03986090936B0380938C
:100A70006F031092700380E48093710380E1809390
:100A8000720380E58093730361E0809160030E94AC
:100A90000004809161038F3F19F061E00E9400041F
:100AA00061E0809162030E940004CCE5D3E09E01E6
:100AB0002C55334080916B0384FD0BC084E090E0A3
:100AC00021962817390744F461E08E810E940004C2
:100AD000EECF88E090E0F4CF8BE39DE00197F1F753
:100AE00060E0809160030E94CE0360E08091620329
:100AF0000E94CE03809161038F3F19F060E00E9455
:100B0000CE0380916B0384FD39C063E08CE593E0F4
:100B10000E94A804CBE4D6E4CE010197F1F763E08C
:100B20008CE593E00E94A8042197F1F763E08CE53F
:100B300093E00E94A80483E592E00197F1F762E058
:100B40008CE593E00E94A80480916B0380620E9470
:100B5000280584E080936C038CE00E94280581E0E6
:100B60000E9428058BE39FE10197F1F782E08093D3
:100B70006D0386E0DF91CF910C94280580620E947E
:100B800028058BE496E40197F1F780916B0380626E
:100B90000E94280583E592E00197F1F780916B03AD
:100BA00080620E942805D0CF41E00E94D50481E0F8
:100BB00090E00895CF92DF92EF92FF926C01990F2F
:100BC000EE08FF08F7FE16C041E06DE28CE593E009
:100BD0000E94D50466277727CB016C197D098E0901
:100BE0009F094AE00E9444040196FF90EF90DF9035
:100BF000CF9008954AE0C701B601FF90EF90DF90D3
:100C0000CF900C9444041F920F920FB60F921124B0
:100C10000BB60F922F933F934F935F936F937F93F6
:100C20008F939F93AF93BF93EF93FF9380E592E0F1
:100C30000E947B02FF91EF91BF91AF919F918F91A5
:100C40007F916F915F914F913F912F910F900BBECC
:100C50000F900FBE0F901F9018951F920F920FB616
:100C60000F9211240BB60F922F938F939F93EF93B4
:100C7000FF93E0916002F09161028081E091660251
:100C8000F091670282FD1DC09081809169028F5FA3
:100C90008F7320916A02821741F0E0916902F0E0BF
:100CA000E05BFD4F958F80936902FF91EF919F91DB
:100CB0008F912F910F900BBE0F900FBE0F901F9032
:100CC00018958081F2CF1F920F920FB60F921124C8
:100CD0002F933F938F939F93AF93BF9380914C0239
:100CE00090914D02A0914E02B0914F02309144027A
:100CF00023E0230F2D3758F50196A11DB11D209338
:100D0000440280934C0290934D02A0934E02B09304
:100D10004F028091400290914102A0914202B09115
:100D200043020196A11DB11D8093400290934102A0
:100D3000A0934202B0934302BF91AF919F918F91D4
:100D40003F912F910F900FBE0F901F90189526E89E
:100D5000230F0296A11DB11DD2CF10925302109203
:100D6000520288EE93E0A0E0B0E0809354029093AA
:100D70005502A0935602B09357028CE192E09093F3
:100D800051028093500285EC90E090935D02809335
:100D90005C0284EC90E090935F0280935E0280ECB2
:100DA00090E0909361028093600281EC90E09093D8
:100DB00063028093620282EC90E0909365028093DC
:100DC000640286EC90E09093670280936602109232
:100DD000690210926A0210926B0210926C021092D9
:100DE0005F0310925E0388E392E090935D0380932B
:100DF0005C0389E1809360038FEF809361038BE153
:100E0000809362038DE2809363038EE28093640398
:100E100080E38093650381E38093660382E380939C
:100E2000670383E38093680384E38093690385E326
:100E300080936A0380E180936B0381E00E942E051A
:100E40001092EF021092F3021092F2021092F4024A
:100E50008EE292E09093EE028093ED02E9E0F3E0FF
:100E60001082148213821582369683E0E534F807E7
:100E7000B9F784E092E09093500380934F0380E0B1
:100E800092E0909352038093510384E08093530344
:100E90008093540388E092E090934E0380934D0337
:100EA0008AE090E0909356038093550384EF91E09D
:100EB000909358038093570310925B0310925A0348
:100EC0001092490310924A0310924B0310924C0364
:100ED000109259030895789484B5826084BD84B5D6
:100EE000816084BD85B5826085BD85B5816085BD25
:100EF00080916E00816080936E00109281008091DD
:100F00008100826080938100809181008160809364
:100F10008100809180008160809380008091B10089
:100F200084608093B1008091B00081608093B000B4
:100F30008091910082608093910080919100816006
:100F400080939100809190008160809390008091C7
:100F5000A10082608093A1008091A10081608093B4
:100F6000A1008091A00081608093A0008091210168
:100F70008260809321018091210181608093210111
:100F80008091200181608093200180917A008460AB
:100F900080937A0080917A00826080937A008091B9
:100FA0007A00816080937A0080917A0080688093D3
:100FB0007A001092C100E0916002F091610282E03B
:100FC0008083E0915C02F0915D021082E0915E020C
:100FD000F0915F028FEC808310926802E0916402CE
:100FE000F091650286E08083E0916202F0916302F5
:100FF000808180618083E0916202F0916302808150
:1010000088608083E0916202F09163028081806851
:101010008083E0916202F091630280818F7D808302
:1010200082E00E942E0581E00E9428058BE39FE16B
:101030000197F1F7E1E080916F038111E0E0E19524
:10104000F0E0E45AFC4F848980680E942805812CD6
:10105000912C5401839466246A94762C56E0252EB4
:101060006AE0362E41E0409359038FB7F8944091DF
:101070004C0250914D0260914E0270914F028FBF11
:101080008091490390914A03A0914B03B0914C0386
:10109000481B590B6A0B7B0B8091550390915603AB
:1010A000B0E0A0E084179507A607B70708F00EC1C7
:1010B000C0E080915303C81760F4E0914F03F091B2
:1010C0005003EC0FF11D62E080810E940004CF5FAD
:1010D000F0CF512C80915403581608F05FC0052DB5
:1010E00010E0E0915103F0915203E00FF11F61E035
:1010F00080810E940004E0915103F0915203E00FBF
:10110000F11F60E080810E94CE03D501C401052C4F
:1011100004C0880F991FAA1FBB1F0A94D2F76C0145
:101120007C01E094F094412C809153034816F8F42C
:10113000C42DD0E0E0914F03F0915003EC0FFD1F60
:1011400080810E94A2032496CC0FDD1FC351DD4F86
:10115000892B41F4888199818C299D2999838883E1
:101160004394E2CF888199818E219F21F7CFE0912E
:101170005103F0915203E00FF11F61E080810E9462
:10118000CE038091510390915203080F191F60E024
:10119000F80180810E94000453949CCFCDEED2E0F0
:1011A000FE01878D90A1892B21F4148E768E658E99
:1011B00011A2369643E0E932F40799F710E08091E6
:1011C0005303181708F052C000E0E12EF12CEE0C8A
:1011D000FF1CC7018B509D4F7C01209154030217C7
:1011E00008F042C0F70160817181002E02C076953F
:1011F00067950A94E2F7129F90011124200F311D88
:10120000EDEEF2E080E0458D568D2417350709F4A8
:10121000EBC08F5F36968A30B1F760FF23C0EDEEEA
:10122000F2E090E080E0448D411117C0E0914D0361
:10123000F0914E03E20FF31F6081289EF001299E7A
:10124000F00D1124E351FD4F648F368F258F10A2CE
:10125000178E61E00E94970105C0019636968A308C
:10126000910509F70F5FB9CF1F5FA9CF80E099A162
:101270009111892F2696F3E0C932DF07C1F79FB796
:10128000F89440914C0250914D0260914E02709141
:101290004F029FBF4093490350934A0360934B030F
:1012A00070934C03882391F080910E03882371F092
:1012B00080910C0390910D038130910539F4609178
:1012C0000903611106C00E940A03CCCE1092590393
:1012D000FACF20ED260F2A30D8F4862F062E000CE8
:1012E000990BC09720914A0230914B02232B81F138
:1012F0004091460250914702349E9001359E300D38
:101300001124820F931F90934702809346022FC0AF
:101310006D3309F062C0E0916F03E23068F5E1508F
:10132000F0E0E45AFC4F848980680E94280580918F
:1013300045028B3219F52091480230914902809183
:10134000460290914702820F931F0E94DA05BBCF9D
:101350004091480250914902349E9001359E300DD3
:101360001124820F931F90934902809348028CE5C9
:1013700093E00E94D405A7CFE1E0D2CF8D3259F49B
:101380008091480290914902209146023091470293
:10139000821B930BDACF8F3261F4809148029091D7
:1013A000490260914602709147020E94F609CB0102
:1013B000CCCF8A3209F087CF209148023091490280
:1013C0008091460290914702AC01249FC001259F65
:1013D000900D349F900D1124B8CF90934B028093C1
:1013E0004A0260934502C3CF617034CF97FB072E4A
:1013F00016F4009407D077FD09D00E94340A07FC48
:1014000005D03EF4909581959F4F08957095619514
:101410007F4F0895A1E21A2EAA1BBB1BFD010DC030
:10142000AA1FBB1FEE1FFF1FA217B307E407F50794
:1014300020F0A21BB30BE40BF50B661F771F881F70
:10144000991F1A9469F760957095809590959B0106
:10145000AC01BD01CF010895EE0FFF1F881F8BBFA8
:101460000790F691E02D1994AA1BBB1B51E107C010
:10147000AA1FBB1FA617B70710F0A61BB70B881F24
:10148000991F5A95A9F780959095BC01CD010895B3
:04149000F894FFCFFE
:101494003A3B3C3D454443423738392F3435362AAC
:1014A4003132332D4F303D2B000000009D020702E6
:1014B4003402EA02650243025702000000003C04C1
:1014C400FC03CB0300000000D405070241044004E0
:00000001FF
