:020000040040BA
:1000000000040020C1004000C9004000CB004000B7
:10001000CD004000CF004000D100400000000000B3
:10002000000000000000000000000000D3004000BD
:10003000D500400000000000D7004000D90040007B
:10004000DB004000DB004000DB004000DB00400044
:10005000DB004000DB004000DB004000000000004F
:10006000DB004000DB00400000000000DB0040003F
:10007000DB004000DB004000DB004000DB00400014
:10008000000000000000000000000000DB00400055
:10009000DB004000DB00400000000000DB0040000F
:1000A000DB004000DB004000DB004000DB004000E4
:1000B000DB004000DB004000DB004000DB004000D4
:1000C0000948804709480047FEE7FEE7FEE7FEE7EC
:1000D000FEE7FEE7FEE7FEE7FEE7FEE70448054928
:1000E000054A064B70470000090140008D014000A1
:1000F0000000002000040020000200200002002078
:10010000704770477047000040F26840C4F20E002C
:100110004FF4007244F20031C0F8982540F2011209
:10012000C5F24D01C0F23712C16740F8482C00BF3C
:100130000268D207FCD048F20162C2F20F0240F816
:10014000402C00BF02689207FCD550F8382C0223DF
:1001500063F3061240F8382C02681207FCD52222FD
:1001600040F8382C02681207FCD5002240F8682CB1
:100170004FF4E052013140F8582CC16741F254402D
:10018000C4F20E004FF40041016070474FF00008C8
:100190004FF0000900F09EF800F0B5F800F0F4F818
:1001A00000F0F7F800F0FAF800F0FDF800F014F9AC
:1001B00000F074F800F0C0F800F0EBF800F0EEF892
:1001C00000F0F1F800F008F900F068F800F0DCF851
:1001D00000F0B7F800F0E2F800F0E5F800F0FCF805
:1001E00000F05CF800F0A8F800F0ABF800F0D6F8EA
:1001F00000F0D9F800F0F0F800F050F800F0C4F882
:1002000000F0C7F800F0A2F800F0CDF800F0E4F834
:1002100000F044F800F090F800F0BBF800F096F819
:1002200000F0C1F800F0D8F800F038F800F0ACF8B1
:1002300000F087F800F08AF800F0B5F800F0CCF88C
:1002400000F02CF800F078F800F07BF800F07EF871
:1002500000F0A9F800F0C0F800F020F800F094F8E1
:1002600000F097F800F09AF800F075F800F0B4F894
:1002700000F014F800F060F800F08BF800F08EF851
:1002800000F069F800F0A8F800F008F809F110098A
:100290004C46564D2C6000F09FF87FE754490A68A1
:1002A000402A06D0704752490A68202A3FF476AFA8
:1002B000F9E700F069F800F06CF800F06FF800F072
:1002C00072F800F075F800F078F800F07BF800F0B4
:1002D0007EF8E8E74FF00104464D2C60464D2C6057
:1002E0004FF00204434D2C60434D2C604FF004044A
:1002F000404D2C60404D2C604FF008043D4D2C606B
:100300003D4D2C6070474FF010043A4D2C603A4D33
:100310002C604FF02004374D2C60374D2C604FF08F
:100320004004344D2C60344D2C604FF08004314D2E
:100330002C60314D2C6070474FF001042B4D2C6028
:1003400070474FF00204294D2C6070474FF00404B1
:10035000264D2C6070474FF00804244D2C607047E8
:100360004FF01004214D2C6070474FF020041F4DBA
:100370002C6070474FF040041C4D2C6070474FF0CC
:1003800080041A4D2C6070474FF001041B4D2C6007
:1003900070474FF00204194D2C6070474FF0040471
:1003A000164D2C6070474FF00804144D2C607047B8
:1003B0004FF01004114D2C6070474FF020040F4D8A
:1003C0002C6070474FF040040C4D2C6070474FF08C
:1003D00080040A4D2C6070474FF000044FF47025E4
:1003E00004F10104AC42FBD170470000300E0E4016
:1003F0004C0E0E40000E0E40100E0E40340E0E40FD
:040000050040018D29
:00000001FF
