:020000040040BA
:1000000000040020C1004000C9004000CB004000B7
:10001000CD004000CF004000D100400000000000B3
:10002000000000000000000000000000D3004000BD
:10003000D500400000000000D7004000D90040007B
:10004000DB004000DB004000DB004000DB00400044
:10005000DB004000DB004000DB004000000000004F
:10006000DB004000DB00400000000000DB0040003F
:10007000DB004000DB004000DB004000DB00400014
:10008000000000000000000000000000DB00400055
:10009000DB004000DB00400000000000DB0040000F
:1000A000DB004000DB004000DB004000DB004000E4
:1000B000DB004000DB004000DB004000DB004000D4
:1000C0000948804709480047FEE7FEE7FEE7FEE7EC
:1000D000FEE7FEE7FEE7FEE7FEE7FEE70448054928
:1000E000054A064B70470000090140008D014000A1
:1000F0000000002000040020000200200002002078
:10010000704770477047000040F26840C4F20E002C
:100110004FF4007244F20031C0F8982540F2011209
:10012000C5F24D01C0F23712C16740F8482C00BF3C
:100130000268D207FCD048F20162C2F20F0240F816
:10014000402C00BF02689207FCD550F8382C0223DF
:1001500063F3061240F8382C02681207FCD52222FD
:1001600040F8382C02681207FCD5002240F8682CB1
:100170004FF4E052013140F8582CC16741F254402D
:10018000C4F20E004FF400410160704700F037F8F0
:1001900000F03CF800F041F84FF4202638490A6896
:1001A000402A25D000F040F800F05CF800F04BF851
:1001B00000F058F832490A68402A19D000F039F89E
:1001C00000F050F800F044F800F04CF82C490A68B0
:1001D000402A0DD000F032F800F044F800F03DF86D
:1001E00000F040F8DAE726490A68202AD6D0FAE774
:1001F00000F029F800F02CF800F02FF8F3E74FF0AA
:100200000104204D2C60204D2C6070474FF00204FB
:100210001C4D2C601C4D2C6070474FF00404194D90
:100220002C60194D2C6070474FF00104174D2C6065
:1002300070474FF00204154D2C6070474FF00404D6
:10024000124D2C6070474FF00104114D2C60704727
:100250004FF002040E4D2C6070474FF004040C4D1B
:100260002C6070474FF00004B6F5204698BF4FF45D
:100270002026354604F10104AC42FBD17047000052
:100280004C0E0E40000E0E40100E0E40300E0E4072
:04029000340E0E40DA
:040000050040018D29
:00000001FF
